:020000040800F2
:10000000300A00207D0100087D0500087505000804
:1000100079050008D90400087107000800000000F5
:10002000000000000000000000000000850500083E
:10003000710500080000000081050008890500081E
:100040009701000897010008970100089701000830
:100050009701000897010008970100089701000820
:10006000970100089701000897010008DD040008C7
:100070009701000897010008970100089701000800
:100080009701000897010008000000009D06000885
:1000900097010008970100089701000897010008E0
:1000A00097010008970100089701000897010008D0
:1000B0001D07000800000000970100080000000074
:1000C0009701000800000000970100089701000850
:1000D0009701000897010008970100080000000040
:1000E00000000000000000009701000897010008D0
:1000F0009701000897010008970100089701000880
:1001000097010008000000000000000097010008AF
:1001100000000000000000000000000000000000DF
:1001200000000000000000000000000000000000CF
:1001300000000000000000000000000000000000BF
:1001400000000000000000000000000000000000AF
:10015000000000000000000097010008970100085F
:100160009701000897010008DFF80CD000F09CF917
:1001700000480047D1180008300A00200648804790
:1001800006480047FEE7FEE7FEE7FEE7FEE7FEE77C
:10019000FEE7FEE7FEE7FEE78D05000869010008BF
:1001A00040EA01039B0703D009E008C9121F08C0F9
:1001B000042AFAD203E011F8013B00F8013B521E79
:1001C000F9D27047F0B480EA0102D40F4200B2EBDA
:1001D000410F02D20246084611464A0042D0C30DE2
:1001E000DDB2C1F3C752AD1A202D35DAC1F31601C5
:1001F00041F4000204B15242C5F1200602FA06F1B0
:100200002A411044B3EBD05F23D0C4B1012DA0EB41
:10021000C35009DCF0BC4FF0004202EAC352DBB22B
:1002200000F5000000F012B9400000F1807000EB12
:10023000C350A0F1807040EAD170490009E049083C
:1002400041EAC071A0EBC35000F50000400800EB8C
:10025000C350F0BC00F0F1B86142012202EB410151
:10026000001BF6E7F0BC704781F00041AAE780F080
:100270000040A7E780EA010210B502F00043400009
:1002800022D04A001FD0010E01EB1261C0F35600CC
:10029000C2F3560240F4000042F40002A0FB022028
:1002A00000047F39140400D0401C50EA124001D4ED
:1002B0004000491EC2B20C0604EBD010401C40089E
:1002C000802A02D003E0002010BD20F001000029A8
:1002D00000DA0020184310BD30B480EA010202F0B9
:1002E000004530F0004221F0004013D090B1C30D22
:1002F000D40DC2F31601C0F31600E41A41F4000154
:1003000040F400027D34914201D3641C00E04900B6
:10031000002C02DA30BC002070474FF400000023AC
:10032000914201D3891A034340084FEA4101F7D1B2
:1003300051B1914202D14FF0004105E002D24FF09D
:10034000010101E06FF0010103EBC450284430BC0F
:1003500000F073B8002801DBC0F10040002901DB88
:10036000C1F10041814201D801207047002070474F
:10037000002801DBC0F10040002901DBC1F1004190
:10038000814201D20120704700207047002801DB24
:10039000C0F10040002901DBC1F10041814201D3DD
:1003A0000120704700207047002801DBC0F10040A9
:1003B000002901DBC1F10041814201D901207047D0
:1003C00000207047C10F80EAE0700844CA079623F6
:1003D000002100F03BB896230022114600F036B809
:1003E00000F0004220F00040C10DC0F3160040F4C0
:1003F00000007F2901DA00207047962903DCC1F153
:100400009601C84001E096398840002AF4D0404265
:10041000704720F00040C10DC0F3160040F400000A
:100420007F2901DA00207047962903DCC1F196018B
:10043000C84070479639884070470029A8BF704768
:10044000401C490008BF20F00100704710B4B0FA0A
:1004500080FC00FA0CF050EA010404BF10BC7047A5
:1004600049B1CCF1200421FA04F411FA0CF118BFBF
:10047000012121430843A3EB0C01CB1D4FEA00618E
:100480004FEA102042BF002010BC704700EBC35061
:1004900010440029A4BF10BC7047401C490008BF8D
:1004A00020F0010010BC70471CB5094800900948B5
:1004B00001900546009C06E0E06840F0010394E8E6
:1004C000070098471034AC42F6D3FFF751FE000006
:1004D0005830000878300008FEE7000080B503209F
:1004E000022100F0EDFE002808BF80BD032002219C
:1004F00000F0DCFE032000F041FE40F22D60C2F26D
:1005000000000121017080BDB0B588B04FF4A0603B
:1005100001F0ACFE0020002500F060FE6C46204695
:1005200000F0F0FE42F24C40C4F2010000904FF4A3
:100530008070019040F23000C2F2000003904FF44E
:10054000806004900120ADF81400022006904FF462
:1005500000500790002021468DF8085000F056FE0C
:10056000002000F02FFE002000F014FE08B0B0BD07
:1005700070470000FEE70000FEE700007047000043
:10058000704700007047000000F0ECBD81B041F200
:100590000400C4F2020050F8041C41F0010140F8CC
:1005A000041C00BF50F8041C8907FBD5016841F00A
:1005B0008001016000210091009A4F2A06D800BFF7
:1005C000009A01320092009A502AF9D3026842F050
:1005D00090020260009100994F2905D800990131DD
:1005E000009100995029F9D301684FF6FF7221F06C
:1005F0000301016050F8041CCFF6F262114040F88C
:10060000041C01680C22C0F6FF0211400160016861
:100610004FF6FF72CFF2C07211400160016840F2E4
:10062000431321F440010160816A02F5003221F098
:100630000F018162C16A9943C162016B21F001011E
:100640000163002141600168016001680160016887
:100650000160016811400160016841F0006141F4EE
:100660008021016050F8041C41F0807140F8041CA6
:1006700050F8041C8901FBD5016821F003010160D9
:10068000016841F00201016001680907FCD54FF0E3
:100690000060002101B001F04BBC0000B0B542F297
:1006A0000004C4F2000420460121012502F048FBA9
:1006B000002808BFB0BD2046012102F03DFB40F2FA
:1006C0003801C2F2000108684CF6CD4301300860E1
:1006D000086840F2FC40C2F2000080F862500A68EC
:1006E000CCF6CC435A4349F699134FEA7202C1F64D
:1006F00099139A429CBF012280F863200A68012264
:1007000080F85F200B68DB0708BF80F8602009686D
:10071000890704BF012180F86110B0BD10B544F213
:100720000044C4F200040521C0F20571204602F025
:1007300039FC40B1204602F0CFFB40F22E61C2F2FC
:100740000001097801B110BD40F2F631C2F200019A
:10075000B1F80021B1F802310132D2B29A4208BF99
:1007600010BDB1F80031C854A1F8002110BD00003F
:10077000FEE7000042F20840C4F20100016841F0C7
:100780000801016001680907FCD4016841F0040117
:10079000016000BF01684907FCD47047022814D0EB
:1007A000012818BF704742F22C40C4F201000268D1
:1007B00022F4700202604FF4700202EB01510268F1
:1007C00001F4700111430160704742F22C40C4F201
:1007D0000100C26822F44012C2604FF4401202EBE2
:1007E0000151C26801F440111143C160704700001B
:1007F00042F20841C4F201010A68002822F40062B2
:1008000018BF02F500620A607047000080B540F230
:10081000093001F04BFD40F20930BDE8804001F0A5
:1008200035BD000042F20840C4F20100016841F405
:10083000807101607047000042F20840C4F201007C
:100840000168C90718BF7047016841F001010160E4
:1008500070470000002942F20841C4F2010104D0AF
:10086000C20710D1800714D47047C20703D00A68AA
:1008700022F480120A60800758BF7047086820F48D
:100880000040086070470A6842F480120A608007DE
:10089000EAD5086840F4004008607047012805D098
:1008A000022818BF70476FF4E04001E06FF4602049
:1008B00042F20842C4F20102136818401060106846
:1008C000084310607047000010B582B040F211502C
:1008D00001F0CCFC40F2096001F0C8FC032001F0FB
:1008E00001FC4FF09040032100221823002400F067
:1008F0000BFEFFF78BFF0020FFF77AFF4FF48070AD
:10090000012100F08BF801200221FFF747FF0020B2
:100910000321052200F028F801200421052200F01F
:1009200023F801204FF40021FFF7B8FF0120012137
:10093000FFF790FFFFF780FF0194019842F20F71DB
:10094000884207D842F21070019901310191019952
:100950008142F9D3FFF70EFFFFF7D6FD02B0BDE8E5
:100960001040FFF75FBF000080B5B1F1120342F203
:100970000C4C18BF0B460528C4F2010C0DD8DCF84E
:1009800028E000EB80001F2181402EEA010103FADC
:1009900000F00843CCF8280020E00B280ED800EB2C
:1009A0008000DCF824E01E381F2181402EEA01017E
:1009B00003FA00F00843CCF824000FE00F280DD80C
:1009C00000EB8000DCF820E03C381F2181402EEA5B
:1009D000010103FA00F00843CCF82000092B0CD8E1
:1009E000DCF8040003EB430107238B40984302FA31
:1009F00001F10843CCF8040080BD112B88BF80BDF5
:100A000003EB4301DCF800001E3907238B409843B9
:100A100002FA01F10843CCF8000080BD002942F23F
:100A20000441C4F2010106D0C20518D442051CD409
:100A3000800720D47047C20503D50A6822F480726B
:100A40000A60420503D50A6822F480620A608007C2
:100A500058BF7047486820F00200486070470A6835
:100A600042F480720A604205E2D50A6842F480626C
:100A70000A608007DED5486840F002004860704791
:100A80002DE9F04F81B0D0E903AB044686690D46ED
:100A9000584600210027FFF75DFC28BB5046002187
:100AA000FFF782FC00B3A0682968FFF7DDFB002197
:100AB00007464FF00009FFF769FC40F2000827F0F5
:100AC0000047CBF68078002838464FF07E5118BF9B
:100AD0004FF07E58FFF75AFC50B9C4F818902868B8
:100AE000E06101B0BDE8F08FA76101B0BDE8F08F13
:100AF00030464146FFF7BEFB002181460026FFF746
:100B000037FC00285846594618BF4FF00009FFF738
:100B100059FB3946FFF7AEFB00210546FFF71AFCEB
:100B2000B0B928464FF07E51FFF74CFB4FF07C5197
:100B3000FFF7A0FB064628463146FFF7CDFB0146EE
:100B40003046FFF73FFB4FF07C51FFF793FB064623
:100B500030465146FFF728FC41F26F210028CBF6C2
:100B60008331584618BF5646FFF784FB014630468E
:100B7000FFF728FB01464846FFF708FC41F26F21CA
:100B8000C3F6833108B9584610E05846FFF772FBA8
:100B90003146FFF717FB01464846FFF7DBFB58B924
:100BA00041F26F218BF00040C3F68331FFF762FB07
:100BB0004946FFF707FB064630465146FFF7F4FB70
:100BC000002818BF564630460021FFF7D1FB002809
:100BD00018BF002640463146FFF74CFBA06101B02C
:100BE000BDE8F08F0022C0E9062140F21B60C2F28E
:100BF0000000012101707047F0B589B040F22C600F
:100C0000C2F200000026067040F22D60C2F2000021
:100C1000067040F2115001F029FB40F2117001F012
:100C200025FB4FF0904001210422012700F0FAFB40
:100C30004FF0904002210122042300F065FC4FF0A8
:100C4000904001210322042300F088FC44F2004478
:100C5000C4F20004204602F047F944F24021C0F2F9
:100C60000F01204602F00AF92046002102F0ACF9FB
:100C70002046002102F0D0F92046002102F0B8F908
:100C8000204602F06DF92046082102F0BDF9204609
:100C9000042102F0A5F9204602F04AF94FF4A060C1
:100CA00001F0E4FA032000F099FA01AD284600F0C3
:100CB00029FB04F12800CDE9010640F20110ADF84E
:100CC0001800032029468DF80C600596CDE90776BB
:100CD00000F09CFA032000F069FA0320022100F0E2
:100CE000D9FA0B200221002201F0F0F820468021E1
:100CF00002F016F909B0F0BD002908BF70472DE9D0
:100D0000F04144F200460C468046C4F2000600253D
:100D100018F80570304640F2077102F019F9002802
:100D2000F8D03046394602F0DBF800BF304640F2DA
:100D3000067102F00DF90028F8D0304640F2067135
:100D400002F0FCF80135A542E2D1BDE8F041704760
:100D500010B540F23C00C2F200000021017040F2E8
:100D6000115001F083FA40F2157001F07FFA4FF054
:100D7000904004214FF4C06200F054FB4FF09040CB
:100D8000022101224FF4C06300F0BEFB4FF09040FF
:100D9000012103224FF4C06300F0E0FB45F2004460
:100DA000C4F20004204600F079FC41F68021C0F234
:100DB00006012046002200F0FFFB20460021002211
:100DC000002300F0F1FC2046012100F0EBFB20465F
:100DD00000F086FC204640F20A5100F087FC2046D5
:100DE0004FF4A16100F082FC204640F2095100F06E
:100DF0007DFC204640F20B51BDE8104000F076BC6F
:100E00002DE9F04F83B0002A00F0C7809A46002BEE
:100E100000F0C38045F20044C4F2000489464FEA62
:100E2000400847F6601672B6204640F20A519346D3
:100E3000CFF6FE7600F05AFC20464FF4A16100F098
:100E400055FC204640F2095100F050FC204640F28B
:100E50000B5100F04BFC3546204640F2016100F09A
:100E600059FC012803D1002D05F10105F4D1012819
:100E700000F09C80204600F0A5FC354620464FF44B
:100E8000A06100F047FC18B9002D05F10105F5D16E
:100E9000002800F08F805FFA88F8204641466FF006
:100EA000010200F079FC00F03DFC002800F0868093
:100EB0002046494600F0F0FB354600BF204640F290
:100EC000025100F027FC18B9002D05F10105F5D1FC
:100ED000002877D0204600F075FC354620464FF4B8
:100EE000A06100F017FC18B9002D05F10105F5D13E
:100EF00000286BD0204641460122012500F04CFC21
:100F000000F010FC002865D0BAF1000F1ED0AAF145
:100F100001080025A84503D12046002100F042FB2E
:100F2000374600BF204640F2065100F0F3FB18B9E7
:100F3000002F07F10107F5D1002852D0204600F01C
:100F4000A7FB0BF8050001355545E3D120460121EB
:100F500000F028FB204600F03BFC30462168890564
:100F600003D5002800F10100F8D1002935D4354619
:100F7000204640F2016100F0CDFB012803D1002D95
:100F800005F10105F4D101460139B1FA81F14909B0
:100F900001380D4618BF01202AE040F23C01C2F2A0
:100FA00000010020087003B0BDE8F08F002001218F
:100FB00001251DE000200125022119E00020012566
:100FC000032115E000200125042111E00020012566
:100FD00005210DE0002006210AE00020012508215E
:100FE00006E020460121012500F0DCFA002007215F
:100FF00040F23C02C2F20002002D117000F0A48009
:101000000546204600F0E4FB304600BF2168890514
:1010100003D5002800F10100F8D1204640F20A5122
:1010200000F064FB20464FF4A16100F05FFB204616
:1010300040F2095100F05AFB204640F20B5100F0FB
:1010400055FB00BF204640F2016100F063FB012820
:1010500003D1002E06F10106F4D10128284673D1F0
:10106000204600F037FB4FF09040012101224FF461
:10107000C06300F049FA4FF09040012103224FF481
:10108000C06300F06BFA4FF090404FF4C06100F085
:1010900003FA0026002703E0082F07F1010720D2FA
:1010A0004FF090404FF4007100F0F4F9029602986E
:1010B000C72805D80298013002900298C828F9D3B1
:1010C0004FF090404FF4007100F0E6F9019601985E
:1010D000C728E1D80198013001900198C828F9D3B8
:1010E000DAE74FF0904004214FF4C06200F09AF923
:1010F0004FF09040022101224FF4C06300F004FA47
:101100004FF09040012103224FF4C06300F026FA13
:101110002046012100F046FA204600F0E1FA204680
:1011200040F20A5100F0E2FA20464FF4A16100F0CB
:10113000DDFA204640F2095100F0D8FA204640F28C
:101140000B5100F0D3FA284662B603B0BDE8F08F29
:1011500040F23401C2F20001086000BF08680028B4
:10116000FCD1704740F23400C2F20000016800294F
:1011700008BF70470168013901607047082100EB22
:101180008000C4F2020151F8202022F0010241F84F
:1011900020207047082100EB8000C4F2020151F8C2
:1011A000202042F0010241F820207047082100EB86
:1011B0008000C4F2020151F8202022F0200241F800
:1011C00020207047082100EB8000C4F2020151F892
:1011D000202042F0200241F820207047042200EB3A
:1011E0008001C4F2020202EB81014B68800023F00F
:1011F00001034B6000234B608B60CB600B610F21C0
:10120000136801FA00F018431060704710B540F2FF
:10121000080E00EB8000C4F2020E5EF8203023F0CE
:1012200001034EF82030D1F800C00EEB8003C3F864
:1012300008C0CA68DA600A8B5A605EF820204B68E2
:1012400022F47C5C0A69CC6943EA0C031A4322430A
:101250004EF820205EF820200B7A22F040020C7D10
:10126000012B08BF40324EF820205EF82020012CD0
:1012700022F0800208BF80324EF82020497D5EF8BF
:101280002020002922F0100218BF10324EF8202032
:1012900010BD0000082200EB8000C4F2020252F8E8
:1012A0002030194342F82010704700000422C4F295
:1012B00002028000136801FA00F0184310607047C2
:1012C00008294FF000021BD801238B4013F48A7FBA
:1012D00016D040F2000CC4F2020C820000EB800039
:1012E000DCF800304CEA800001FA02F280681A4013
:1012F00000EA010018BF0122002818BF01200240A7
:10130000104670470021C0E900110172C0E90611C2
:10131000C0E9031181827047F0B581B040F230011D
:1013200072B6C2F2000108884C8862B6FFF753F823
:1013300043F23335C4F253052946FEF79BFF4FF0C5
:101340006651FEF797FF40F2FC47C2F200070646DF
:1013500038602046FFF73FF82946FEF78BFF4FF035
:101360006651FEF787FF396978603046FEF77CFFEB
:101370000146FEF727FF00210446FEF7F9FF00288B
:1013800018BF002400F08CFC84F000410028D8BF76
:1013900001EAE07478680021C4F23811BC60FEF7FD
:1013A00069FF4FF07F51FEF797FFF86001B0F0BD85
:1013B000FFF7CEBC10B582B00DF1030236200B2131
:1013C0000523FFF71DFD18B19DF80300800602D428
:1013D000002002B010BD9DF806109DF8070061F3D3
:1013E0000B20FEF7F8FF40F2FC440021C2F200049B
:1013F000C4F2B431A061FEF73DFF4FF06651FEF735
:1014000039FF40F6DB71C4F249012062FEF732FF7A
:101410000021C4F23431FEF75FFFE061012002B029
:1014200010BD0000F0B5D0F820E0D0F824C00023B3
:101430000F27002505E000BF0135082D03F1040347
:101440000CD022FA05F6F607F6D007FA03F62EEAD4
:10145000060601FA03F446EA040EEDE70823002429
:101460000F2504E00133102B04F104040CD022FA00
:1014700003F6F607F6D005FA04F62CEA060701FA99
:1014800004F647EA060CEDE7C0F820E0C0F824C0F7
:10149000F0BD0000816270478161704710B540F275
:1014A000165000F0E3FE40F2115000F0DFFE40F273
:1014B000125000F0DBFE41F20044C4F60004204666
:1014C00001210022012300F01FF820460021002204
:1014D000012300F043F820460121FFF7DBFF4FF026
:1014E000904001210022402300F00EF84FF0904080
:1014F00000210022402300F031F84FF090404021BD
:10150000BDE81040FFF7C6BF2DE9F041D0F800E07C
:10151000D0F80CC000244FF00308002605E000BFFF
:101520000136102E04F1020412D023FA06F7FF0749
:10153000F6D008FA04F72EEA070E01FA04F54EEA8F
:10154000050E2CEA070702FA04F547EA050CE7E75F
:10155000C0F800E0C0F80CC0BDE8F0810129416886
:1015600014BF994319434160B0B5D0F808C00021B9
:101570004FF0030E002404E00134102C01F10201AD
:101580000CD023FA04F5ED07F6D00EFA01F52CEA9B
:10159000050C02FA01F54CEA050CEDE7C0F808C0AD
:1015A000B0BD00000268012922F4806208BF02F584
:1015B0008062026070470000F0B581B004460220EE
:1015C00017460D4600F0BAFD4DF68361C4F21B319B
:1015D000A0FB0112910C4AF2FF12C0F24A42904263
:1015E0000A4688BF4822636848F2A066C0F2010636
:1015F00023F07F03B54243EA0203636007D845F650
:10160000C072C0F23B4290422BD3482131E041F6F8
:101610008021C0F206018D4237D84FF496715143B4
:1016200048F63812C0F24102A1FB0212511C21629D
:10163000E169192221F48041002F18BF01F5804192
:1016400008BF0322E161E1696A4341F40041B0FB54
:10165000F2F0E161E169020508BF41F001010843D0
:1016600012E048F27F42C0F21E0290428CBF01316C
:10167000022121626900B0FBF1F0042898BF042028
:10168000E1696FF31F300843E06101B0F0BD000075
:101690000069C0B2704700000161704710B545F2A3
:1016A0000041C4F20001884209D045F60001C4F2AD
:1016B0000001884218BF10BD40F2164401E040F21C
:1016C0001544204600F0F2FD2046BDE8104000F031
:1016D000DDBD0000016821F00101016070470000DC
:1016E000016841F0010101607047000040F20152C1
:1016F000914202D141698069704701F01F02890956
:101700004FF0010C0B580CFA02F223EA02020A50C5
:10171000704700008A09105801F01F01C84000F00E
:1017200001007047B0B547F6601545F20044CFF6AA
:10173000FE75C4F2000400BF204640F20151FFF7DD
:10174000E9FF18B9002D05F10105F5D110B32046C8
:1017500040F20A51FFF7DEFF0546204640F20151F4
:10176000FFF7C4FF012D1CBF0120B0BD204640F291
:101770000A51FFF7BBFF20464FF4A161FFF7B6FF08
:10178000204640F20951FFF7B1FF204640F20B51CD
:10179000FFF7ACFF0020B0BD21F00101023218BFFD
:1017A0000131016170470000D0F800C06FF39F2342
:1017B0002CF0020C41EA0C01016043EA0201816055
:1017C00070470000016841F48071016070470000BB
:1017D000016841F4007101607047000080B501F0BC
:1017E00019F8FFF75BFEFFF76FF800F061FAFFF7FB
:1017F000DFFD00F09DFA01F033F801F0BDFABDE81D
:10180000804000F04FB900002DE9F0470446886899
:10181000D16AC4E90301FEF727FD82466061606872
:10182000276A666B5146FEF725FD3946FEF7CAFC6E
:101830000746206230460021FEF78CFD90B93846FD
:10184000314686F00048FEF7AFFD814638464146F6
:10185000FEF78EFD002818BF4746B9F1000F18BFEC
:1018600037462762A1692668A768256A5046FEF7B1
:10187000FBFC01463846FEF7FDFC07463046514664
:10188000FEF7F8FC2946FEF79DFC01463846FEF7B8
:1018900099FCA76B0646606238460021FEF75AFDA8
:1018A00090B93046394687F00045FEF77DFD804609
:1018B00030462946FEF75CFD002818BF2E46B8F1D9
:1018C000000F18BF3E466662C4F818A0BDE8F08756
:1018D000FFF784FF40F2FC4440F24005C2F20004EE
:1018E0000026C2F2000506E001F062FA00F058FAA4
:1018F000204600F03FF994F8620018B184F8626065
:10190000FFF70AFD94F863000028EDD084F86360C7
:10191000FFF750FD94F85F000028E5D028462146E7
:1019200084F85F6000F0D6FDDEE700002DE9F043AB
:1019300081B040F20407C2F20007787802283ED056
:10194000012804D00028786901B0BDE8F08340F296
:101950002468C2F2000898F8001040F228690029B3
:10196000F968C2F200094FF07E507C68D9F8005047
:101970001CBF0020CBF68070FEF77CFC2946FEF7EA
:1019800021FC21460546C9F80000FEF7FFFC26466B
:1019900028B9BE6828463146FEF706FD50B92846EC
:1019A0002146FEF7F3FC002818BF0120C9F80060AB
:1019B00088F80000D9F8000001B0BDE8F08340F2DB
:1019C0002065C2F20005F8682968FEF7FBFB40F6C7
:1019D000DB71C4F2490104462860FEF7BBFC88B9FC
:1019E00040F6DB7540F6DB76CCF2C905C4F2490659
:1019F00020462946FEF7E6FB31460446FEF7D4FCB6
:101A00000028F5D140F6DB71CCF249012046FEF703
:101A1000BDFC88B940F6DB7540F6DB76C4F2C9053B
:101A2000CCF2490620462946FEF7CCFB3146044657
:101A3000FEF79EFC0028F5D184F000412046FEF719
:101A400019FC48F68901C3F608410546FEF712FC69
:101A50004AF6AB21C3F62A61FEF7B4FB01462846DD
:101A6000FEF708FC4FF07E51FEF7ACFB0146204626
:101A7000FEF700FC4FF07C51FEF7FCFB4FF07C5171
:101A8000FEF7A0FBD7E90114054608462146FEF7FC
:101A9000EBFB2946FEF7EEFB2146FEF793FB01B078
:101AA000BDE8F08370B540F20404C2F20004A068FF
:101AB00040F22861C2F20001086040F22460C2F2E4
:101AC00000000021017040F22060C2F2000040F2EC
:101AD0001A660160C2F2000640F228003170C2F2BC
:101AE0000000FF21017040F22900C2F200000170E5
:101AF00040F23800C2F200000068227840F214611F
:101B000040F2FC45C2F20001022AC2F20005086060
:101B100005D195F85C0000281CBFE86A6061FFF7FA
:101B200005FF2178A061022910D0012907D00029E2
:101B300018BF70BD012185F83C10286470BD226A71
:101B4000022185F83C10C5E9120270BD032085F81A
:101B50003C0095F85C00D4E90712C5E9121230B1D7
:101B60000120E96A307005F13C00FFF73BF8A069FD
:101B7000686470BD2DE9F0470546044615F83C0F32
:101B8000032818D002280ED0012840F08680206C4F
:101B9000FEF726FC40F21861C2F200010880BDE8A1
:101BA000F04700F06FBA94F86000002875D028461E
:101BB00000F08CFB5BE094F86100002851D02646D1
:101BC00056F82CAFB0695146FEF74EFB40F21B6948
:101BD000C2F2000999F80070804620F000402FB151
:101BE0000021C3F6A071FEF7B5FB03E04FF07E5174
:101BF000FEF7DAFB002804BF87F0010089F8000037
:101C000040F21C60C2F20000027899F800105AB14C
:101C100051B90122636B89F800200022C4E9153A0A
:101C2000C4F8F420C4E93F22017049B104F1DC009A
:101C300029462246FFF7E8FDD4F8000154210CE0C4
:101C400028463146FEF71CFF606CE16A04F1E802A9
:101C500082E8030100204FF480716050002084F876
:101C6000610094F86000002808BFBDE8F08704F127
:101C7000A00004F1540104F1340200F0ABFBD4F8ED
:101C8000C400FEF7ADFB40F21861C2F2000108800B
:101C900000F0F8F9002084F86000BDE8F08700004B
:101CA00040F21860C2F20000B0F900007047000076
:101CB000B0B540F21860C2F200000021018000F0CF
:101CC00059F94FF090404021FFF7E6FB40F2FC4508
:101CD000C2F2000505F1A0040021C4F22011204643
:101CE0004FF07C52002300F031F94CF20002002149
:101CF000C4F25A52C4F234412046134600F036F979
:101D000005F1DC0400214CF6CD43C4F2A001C3F67A
:101D10004C532046002200F019F90023C4F270232E
:101D2000204600210022BDE8B04000F01FB90000AD
:101D3000B0B540F2FC44C2F2000400204FF4FA7542
:101D400084F85C00FFF736FB30B90120FFF700FA9A
:101D5000013D08BFB0BDF5E740F24005C2F2000505
:101D60002846214600F02EFB2846214600F0B2FB13
:101D7000E06A616B40F21B630022C2F2000301259E
:101D8000C4E911021D70C4E91510C4F8FC20C4E9AF
:101D90003C22C4F8C020C4F8B82084F85C50B0BD20
:101DA0002DE9F04140F20405C2F200052C6940F231
:101DB0003800C2F20000066820460021FEF7F4FA5F
:101DC000002808BF4FF07E542046FEF722FB40F269
:101DD0001461C2F200010A68B21A824201D2BDE85F
:101DE000F08140F22807C2F2000728783A780E60A6
:101DF00040F2FC4440F21A6840F229069042C2F2D6
:101E00000004C2F20008C2F2000603D169783278F9
:101E1000914228D0A96840F22862C2F20002116003
:101E200040F22461C2F20001002294F85C300A7092
:101E300040F22061C2F200010A6088F8002073B10C
:101E4000022807D001280AD1616B04F13C0000F0A0
:101E5000B7FA04E0E16A04F13C00FEF7C3FE28781B
:101E6000697838703170FFF761FD2978A86102291F
:101E700013D0012909D0002918BFBDE8F081012144
:101E800084F83C102064BDE8F0812A6A022184F8BD
:101E90003C10C4E91202BDE8F081032084F83C0044
:101EA00098F80000D5E90712C4E9121250B994F865
:101EB0005C0038B10120E16A88F8000004F13C00C0
:101EC000FEF790FEA8696064BDE8F0814EF60C5CF8
:101ED000CEF2000CDCF8003003F4E063A3F54073AD
:101EE000B3F5A06F01D21B0A06E040F20053C0F226
:101EF000FA53CCF80030022301FA03FCC3F10403C7
:101F00000F21D94011404EF2001241EA0C01CEF2ED
:101F10000002090140EA020383F8001300F01F01E8
:101F2000012303FA01F11C2303EAD000815070471A
:101F30004FF68072C1F6FF72114008434EF6085109
:101F4000CEF200010860BFF34F8F70474FF0000CD6
:101F5000C0E908CCC0E90CCCC0F838C080E80E104D
:101F6000C0E904CCC0F818C07047000030300EC083
:101F700070470000F0B589B040F2115000F076F9DA
:101F800040F2125000F072F940F2017000F06EF968
:101F90004FF09040012180220126FFF743FA40F2E2
:101FA0000044C4F2000404F1006528460121022225
:101FB000FFF738FA4FF090400221002280230027DB
:101FC000FFF7A2FA2846022100220223FFF79CFA1B
:101FD0004FF09040002103228023FFF7BFFA2846EC
:101FE000002103220223FFF7B9FA204600F0CEFDBC
:101FF00005AD284600F0B8FE40F60F600790204679
:102000002946CDE905778DF8207000F027FE01AD57
:10201000284600F0B5FD204601212A46CDE901679A
:102020000397ADF8107000F057FC204603212A46B4
:1020300000F052FC20460121602200F061FD2046A4
:102040000321602200F05CFD20460121002200F007
:102050007BFD20460321002200F076FD2046012171
:10206000002200F069FD20460321002200F064FDFB
:102070002046202100F070FE204600F0E9FD09B066
:10208000F0BD0000B0B54FF2F115CFF6FF75A842D4
:1020900040F60F61C8BF05468D4240F20044A8BF1C
:1020A0000D460128C4F2000406DB2046012101226E
:1020B00000F042FDADB20EE0B0F1FF3F04DD20467E
:1020C00001210022002504E0684282B2204601215D
:1020D000012500F031FD204603212A46BDE8B0402D
:1020E00000F02ABD41F20401C4F202010A6804288A
:1020F00022F440420A60CA6A22F48072CA6288BF2F
:102100007047DFE800F003140C100800C86A20F4E0
:102110008070C8627047086840F4404008E0086872
:1021200040F4804004E0086840F4004000E00868A3
:102130000860C86A40F48070C862704770B541F2A8
:102140000402C4F202020146106841F2002CC0F2FF
:102150007A0C00F00C000828634619D11068136847
:1021600016681B014FF01103C0F3834058BF0223D0
:10217000F603184405D440F60013C0F23D03434370
:1021800006E0936A03F00F030133BCFBF3F3434310
:10219000106832A6C0F30310305C166843F24E0597
:1021A000C6F30226C0F6000515F806E016680629F3
:1021B00019D823FA00F4C6F3C220285C24FA00F0F0
:1021C000DFE801F004130E3706151D00184670BD38
:1021D000D16AC9052ED449F68070C0F2D50070BD11
:1021E00024FA0EF070BD002070BD204670BDD06A8C
:1021F00040064FF4004058BF48F2120070BDD16A4B
:10220000890708BF70BDD06A00F003000128184696
:102210000FD0D06A00F00300022804BF4FF4004042
:1022200070BDD06A00F00300032818BF4FF0000C07
:10223000604670BD1168C1F38131DFE801F0020D25
:10224000040B400870BD4AF6AB21C2F6AA21A0FBE0
:10225000011070BDC00870BD800870BD0000000096
:1022600000000000010203040607080941F2000310
:1022700000F01F018009C4F202034FF0010CC258A4
:102280000CFA01F11143C1507047000041F2000304
:1022900000F01F018009C4F202034FF0010CC25884
:1022A0000CFA01F122EA0101C150704741F200032A
:1022B00000F01F018009C4F202034FF0010CC25864
:1022C0000CFA01F11143C150704700002DE9F041B3
:1022D000D0E903570446866938460021FEF73AF8EC
:1022E00040BB30460021FEF735F820B928460021D2
:1022F000FEF73EF848B930460021FEF747F8C8BB64
:1023000028460021FEF726F8A0BB30460021FEF744
:1023100021F890B941F26F21CBF683213846FDF7C1
:10232000A9FF01463046FDF74DFF00210546FEF7A7
:102330002DF8D8B1A561BDE8F08130460021FEF747
:1023400025F800281CBFA661BDE8F08141F26F218D
:10235000C3F683213846FDF78DFF3146FDF732FF86
:1023600000210546FDF7F6FF0028E3D10025A56111
:10237000BDE8F08128463146FDF776FF41F26F2136
:102380008046C3F683213846FDF774FF0746404672
:102390003946FDF7DFFF20B930463946FDF712FF19
:1023A0000AE087F000414046FDF7F0FF0028C1D168
:1023B00030463946FDF758FF0546A561BDE8F08176
:1023C00081617047002202600B6A4360C96A027330
:1023D000816070472DE9F047076B04460D68384669
:1023E00000219046FDF7B6FF88B92846394687F0A8
:1023F0000046FDF7D9FF814628463146FDF7B8FF74
:10240000002818BF3546B9F1000F18BF3D46E560FA
:10241000D8F8001028462161FDF726FF824660614A
:102420006068276A666B5146FDF724FF3946FDF761
:10243000C9FE0746206230460021FDF78BFF90B9A8
:102440003846314686F00048FDF7AEFF81463846F3
:102450004146FDF78DFF002818BF4746B9F1000F30
:1024600018BF37462762A1692668A768256A5046C3
:10247000FDF7FAFE01463846FDF7FCFE07463046FA
:102480005146FDF7F7FE2946FDF79CFE014638460A
:10249000FDF798FEA76B0646606238460021FDF7FF
:1024A00059FF90B93046394687F00045FDF77CFF6B
:1024B000804630462946FDF75BFF002818BF2E46B0
:1024C000B8F1000F18BF3E466662C4F818A0BDE818
:1024D000F0870000F0B581B00E6A0C4641680546F1
:1024E0003046FDF7C1FE0021C4F234310746FDF746
:1024F0005BFF10B14FF0FF3007E00021CCF2343128
:102500003846FDF743FF18B90120296808442860C0
:1025100028686E60FDF756FF0021C4F2B431FDF764
:10252000A9FE3146FDF74EFE297BE062B1B3A968F2
:102530000646FDF799FE0021C4F2C821AE60FDF702
:1025400099FE49F69A11656BC3F69961FDF792FE03
:1025500043F233310646C3F633712846FDF78AFE4F
:102560003146FDF72FFE40F6DB71C4F24901054606
:102570006063FDF77FFE0021C4F23431FDF7ACFE4D
:102580000021A063C4F2B4312846FDF7A5FE4FF048
:102590008B41FDF76FFE206301B0F0BDA860012004
:1025A000287301B0F0BD000040F26521C2F20001C5
:1025B0000020087040F26621C2F20001087040F26B
:1025C0006421C2F20001087040F25001C2F2000121
:1025D00001220A70C1F8010040F26721C2F2000135
:1025E00040F2D50C85396FF08402C2F2000C00BFB6
:1025F0000CEB02038532B2F5857F01F8850F83F875
:102600008500F5D1704700002DE9F04F83B00DF142
:10261000050000F01BFC50B10DF105049DF805000C
:1026200000F054F8204600F011FC0028F6D140F2EA
:10263000642640F2662740F2D50AC2F200060DF188
:102640000604C2F20007C2F2000A852545F2565B75
:102650004FF000084FF000093078B0B1397801FB35
:1026600005A2694392F8018092F8059000220AF8C9
:1026700001203978013101FB0BF2120C02EB42020E
:10268000891A3970317801393170E0B1B8F1010F30
:1026900008BFB9F1010FDFD14FF6FF70ADF80600AA
:1026A000022000218DF80880ADF80900225C01307D
:1026B00005281144FAD1C8438DF80B0020460621A5
:1026C00000F078FBC8E703B0BDE8F08F2DE9F043D8
:1026D000A1B040F25004C2F200042178013904296B
:1026E0003CD8DFE801F003362A2D0600FF283CD154
:1026F0003EE0E178A6784A1CD3B22144B342E270AE
:10270000487132D3022E3AD3701E40B2002836D41C
:10271000C2B2A11863784D798DF802308DF803604C
:1027200028B10DF102000230611DFDF739FD711C69
:10273000C8B2884225D0FF202FE0607004201AE044
:1027400041B2A07000200129E07013DC012121704A
:102750005BE0FF2814BF012003200CE00121217061
:102760000021FF28C4F8011002D021B0BDE8F08399
:10277000022000E00520207021B0BDE8F083002099
:102780000FE00DF102014A1E002100BF12F8013FC7
:1027900001381944FAD1C843C0B2401BB0FA80F0E6
:1027A0004009207170B3062640F264252670C2F2FB
:1027B00000052878022825D840F26529C2F20009D0
:1027C00099F8001040F2D508C2F20008852201FBFA
:1027D000028001FB02F740F25001C2F20001FDF756
:1027E000DFFC08F8076099F8000045F25651013007
:1027F0004143090C01EB4101401A89F80000287897
:1028000001302870012020700020C4F8010021B0A0
:10281000BDE8F08340F20000C2F20000006844F618
:10282000D351C1F26201A0FB01014FF0FF3000EB78
:102830009110B0F1807F11D24EF21001CEF2000162
:1028400048604EF62350CEF20000F02202700022C3
:1028500007238A600B600270704700BFFEE700002C
:1028600070B584B040F23800C2F200000026066065
:1028700040F2FC40C2F20000012180F863104FF4E6
:10288000E160FFF7F3FC42F20004C4F200042046CA
:1028900000F07CF96D46284600F066FA4720CDE945
:1028A000000640F2E7300290204629468DF80C6081
:1028B00000F0D4F92046012100F03EFA2046012123
:1028C00000F036FA132001210022FFF7FFFA20461C
:1028D00000F0BEF904B070BD032900F20F81DFE8FB
:1028E00001F002B8468D016A21F00101016281699F
:1028F00021F0030181611168036A19430162016AD1
:1029000021F002010162D188036A0B43A0F18041EA
:10291000A1F596314FEAB1210729036200F2EE805A
:10292000012303FA01F111F0E10F00F0E780016AE1
:1029300021F0040101629188036A19430162016A6E
:1029400021F0080101621189036A1943016250F8FC
:10295000041F21F4807101605189036819430160EB
:10296000016821F40071016092890368C3E0016A83
:1029700042F6044C21F480710162C169C4F2010C79
:1029800021F00301C1611168036A43EA0121016278
:10299000016A21F400710162D388016A41EA0321CE
:1029A000ACF104039842016240F0A880016A21F46E
:1029B000806101629188036A43EA01210162016A30
:1029C00021F4006101621189036A43EA0121016275
:1029D000DCF8000020F48050CCF800005089DCF8CE
:1029E000001041EA0010CCF80000DCF8000020F4F0
:1029F0000050CCF800009089030126E0016A42F6FD
:102A0000044C21F480510162C169C4F2010C21F42B
:102A10004071C1611168036A43EA01310162016AD0
:102A200021F400510162D388016A41EA0331ACF11B
:102A300004039842016218BF7047DCF8000020F4DC
:102A40008040CCF8000050898301DCF8002060460B
:102A500051E0016A21F010010162816921F44071A5
:102A600081611168036A43EA01110162016A21F080
:102A700020010162D188036A43EA011144F2000394
:102A8000C4F20103984201622AD042F60041C4F226
:102A90000101884232D1016A21F04001016291882E
:102AA000036A43EA01110162016A21F080010162B7
:102AB0001189036A43EA0111016242F60440C4F23B
:102AC0000100016821F4806101605189036843EAD3
:102AD00081010160016821F400610160918908E0D1
:102AE00044F20400C4F20100016821F48061016035
:102AF000518902688B0043EA0201016070470000BF
:102B0000032988BF7047DFE801F0020D050A50F87D
:102B1000181F01E050F81C1F21F0700107E050F869
:102B20001C1F01E050F8181F21F4E041120201605F
:102B30000168114301607047032988BF704789000D
:102B400089B2084442637047032988BF7047DFE8B1
:102B500001F0020D050A50F8181F01E050F81C1F83
:102B600021F0080107E050F81C1F01E050F8181F81
:102B700021F4006112020160016811430160704795
:102B800000218181C0E900118160704710B542F6D3
:102B9000FF31C4F20101884211DC40F6FF71C4F23A
:102BA0000001884220DCB0F1804F3CD040F200416F
:102BB000C4F20001884249D140F201443EE044F2AF
:102BC000FF31C4F2010188421DDC42F60041C4F22B
:102BD000010188422AD044F20001C4F20101884276
:102BE00034D14FF4447429E041F20001C4F20001F1
:102BF00088421ED042F20001C4F20001884225D171
:102C00004FF481641AE044F20041C4F201018842A9
:102C100012D044F60001C4F20101884218BF10BD71
:102C200040F212340AE04FF4806407E040F20B34C3
:102C300004E040F2044401E040F211342046FFF782
:102C400035FB2046BDE81040FFF720BB10BD00005B
:102C5000016841F001010160704700000A8842F6F6
:102C6000004CB0F1804FC4F2010C826218BF604585
:102C70002ED1036823F0700303604B8802681A4367
:102C800002608A8803681A43026042F6FF338A684A
:102C9000C4F201039842C2620ADD44F2FF32C4F278
:102CA000010290421BDC604525D044F200021EE088
:102CB000B0F1804F1FD040F20042C4F200029042B7
:102CC00019D042F20002C4F20002904213D02AE06E
:102CD00040F20043C4F200039842CAD0D5E744F65C
:102CE0000002C4F20102904205D044F20042C4F254
:102CF0000102904217D1026822F440720260CA8831
:102D000003681343A0F18042A2F596324FEAB22243
:102D1000072A036007D8012303FA02F212F0E10F39
:102D20001CBF097B0163416941F0010141617047AA
:102D3000C2681143C1607047C94301617047000018
:102D4000C26800690A40084018BF0120002A18BF65
:102D50000122104070470000426822F07002426079
:102D6000426811434160704700214FF6FF72C0E98D
:102D7000001182600173704780B540F2F630C2F2F4
:102D800000000021A0F80011A0F80211FDF734FFA7
:102D9000FFF70AFC44F20040C4F20000052100F0F5
:102DA000F5F81C2002210022BDE88040FFF78EB814
:102DB000FFF72ABC70B5054644F2004640F22E608B
:102DC0000C46C4F20006C2F2000001210170304638
:102DD000052100F0CFF800BF304640F2057100F049
:102DE000B7F818B1304600F077F8F5E728462146E5
:102DF000FDF782FFBDE87040AFF3008010B544F2EC
:102E00000044C4F2000400BF204640F2067100F006
:102E10009FF80028F8D0204640F2067100F08EF8A6
:102E2000204640F2057100F093F818B1204600F0FA
:102E300053F8F5E740F22E62C2F20002002320466A
:102E400005211370BDE8104000F0A0B840F2F63143
:102E5000C2F20001B1F80021B1F802319A4204BF78
:102E600000207047B1F802218A5C0270B1F80201BB
:102E70000130C0B2A1F8020101207047B0B504468C
:102E800043F60000C4F2010084420D4607D044F22C
:102E90000040C4F20000844205D1022000E0062078
:102EA000FFF74CF900E000202168090406D400EB8C
:102EB0005500B0FBF5F080B2E060B0BD400000EB23
:102EC0005500B0FBF5F04FF6F0710140C0F3420041
:102ED0000844E060B0BD0000406A6FF35F207047B7
:102EE0006FF35F218162704710B543F60001C4F2B1
:102EF0000101884209D044F20041C4F20001884235
:102F000018BF10BD40F2114401E040F20E342046DB
:102F1000FFF7CCF92046BDE81040FFF7B7B9000035
:102F2000826822F08002826082681143816070476B
:102F3000016841F0010101607047000001F01F01CC
:102F40000122036A02FA01F119430162704700008D
:102F50008A09105801F01F01C84000F001007047B5
:102F6000016821F001010160816841F00801816080
:102F70007047000001F01F0289094FF0010C0B5847
:102F80000CFA02F223EA02020A50704701F01F0213
:102F900089094FF0010C0B580CFA02F21A430A503F
:102FA00070470000C1F3891252F800C08A0D105812
:102FB00001F01F03C1F30441C8402CFA03F108409B
:102FC00000F0010070470000026822F00102026078
:102FD000026822F4C0620260026811430160704717
:102FE000026822F004020260026811430160704727
:102FF000026822F001020260426822F440524260FC
:103000004268114341607047026822F00802026082
:103010000268114301607047026822F001020260F9
:10302000026822F480520260026811430160704716
:1030300002E008C8121F08C1002AFAD17047704781
:10304000002001E001C1121F002AFBD170470000DF
:103050000000010203040000783000080000002096
:103060003000000030300008A83000083000002098
:10307000000A00004030000800A24A0402000000DC
:103080000000B4420000B4C200000040000048420A
:1030900000000000000000000000C8420000FA44E8
:0830A000FFFF0000000000002A
:040000050800016985
:00000001FF
