:020000040800F2
:10000000B00600207D0100085905000851050008D0
:1000100055050008B50400083D0700080000000071
:100020000000000000000000000000006105000862
:100030004D050008000000005D050008650500088A
:100040009701000897010008970100089701000830
:100050009701000897010008970100089701000820
:10006000970100089701000897010008B9040008EB
:100070009701000897010008970100089701000800
:1000800097010008970100080000000079060008A9
:1000900097010008970100089701000897010008E0
:1000A00097010008970100089701000897010008D0
:1000B000F906000800000000970100080000000099
:1000C0009701000800000000970100089701000850
:1000D0009701000897010008970100080000000040
:1000E00000000000000000009701000897010008D0
:1000F0009701000897010008970100089701000880
:1001000097010008000000000000000097010008AF
:1001100000000000000000000000000000000000DF
:1001200000000000000000000000000000000000CF
:1001300000000000000000000000000000000000BF
:1001400000000000000000000000000000000000AF
:10015000000000000000000097010008970100085F
:100160009701000897010008DFF80CD000F08AF929
:100170000048004775190008B0060020064880476F
:1001800006480047FEE7FEE7FEE7FEE7FEE7FEE77C
:10019000FEE7FEE7FEE7FEE76905000869010008E3
:1001A000F0B480EA0102D40F4200B2EB410F02D258
:1001B0000246084611464A0042D0C30DDDB2C1F3E3
:1001C000C752AD1A202D35DAC1F3160141F40002F1
:1001D00004B15242C5F1200602FA06F12A41104448
:1001E000B3EBD05F23D0C4B1012DA0EBC35009DC29
:1001F000F0BC4FF0004202EAC352DBB200F500004F
:1002000000F012B9400000F1807000EBC350A0F183
:10021000807040EAD170490009E0490841EAC071A4
:10022000A0EBC35000F50000400800EBC350F0BC49
:1002300000F0F1B86142012202EB4101001BF6E738
:10024000F0BC704781F00041AAE780F00040A7E7CA
:1002500080EA010210B502F00043400022D04A00BB
:100260001FD0010E01EB1261C0F35600C2F356021B
:1002700040F4000042F40002A0FB022000047F3999
:10028000140400D0401C50EA124001D44000491E22
:10029000C2B20C0604EBD010401C4008802A02D0E9
:1002A00003E0002010BD20F00100002900DA00204A
:1002B000184310BD30B480EA010202F0004530F06E
:1002C000004221F0004013D090B1C30DD40DC2F311
:1002D0001601C0F31600E41A41F4000140F40002D4
:1002E0007D34914201D3641C00E04900002C02DA05
:1002F00030BC002070474FF400000023914201D32E
:10030000891A034340084FEA4101F7D151B19142A4
:1003100002D14FF0004105E002D24FF0010101E0AF
:100320006FF0010103EBC450284430BC00F073B8F7
:10033000002801DBC0F10040002901DBC1F10041D0
:10034000814201D80120704700207047002801DB5E
:10035000C0F10040002901DBC1F10041814201D21E
:100360000120704700207047002801DBC0F10040E9
:10037000002901DBC1F10041814201D30120704716
:1003800000207047002801DBC0F10040002901DB9C
:10039000C1F10041814201D901207047002070471E
:1003A000C10F80EAE0700844CA079623002100F0DC
:1003B0003BB896230022114600F036B800F0004208
:1003C00020F00040C10DC0F3160040F400007F296A
:1003D00001DA00207047962903DCC1F19601C8407C
:1003E00001E096398840002AF4D04042704720F05E
:1003F0000040C10DC0F3160040F400007F2901DA6F
:1004000000207047962903DCC1F19601C84070476F
:100410009639884070470029A8BF7047401C4900A2
:1004200008BF20F00100704710B4B0FA80FC00FA59
:100430000CF050EA010404BF10BC704749B1CCF184
:10044000200421FA04F411FA0CF118BF0121214310
:100450000843A3EB0C01CB1D4FEA00614FEA1020CB
:1004600042BF002010BC704700EBC350104400296D
:10047000A4BF10BC7047401C490008BF20F0010019
:1004800010BC70471CB5094800900948019005460A
:10049000009C06E0E06840F0010394E807009847FC
:1004A0001034AC42F6D3FFF763FE0000942D000831
:1004B000B42D0008FEE7000080B50320022100F003
:1004C00003FF002808BF80BD0320022100F0F2FED8
:1004D000032000F057FE40F2A920C2F200000121E3
:1004E000017080BDB0B588B04FF4A06001F022FF6C
:1004F0000020002500F076FE6C46204600F00EFF3E
:1005000042F24C40C4F2010000904FF48070019020
:1005100040F23000C2F2000003904FF4806004907B
:100520000120ADF81400022006904FF4005007900F
:10053000002021468DF8085000F06CFE002000F0ED
:1005400045FE002000F02AFE08B0B0BD7047000054
:10055000FEE70000FEE70000704700007047000063
:100560007047000000F002BE81B041F20400C4F206
:10057000020050F8041C41F0010140F8041C00BFC7
:1005800050F8041C8907FBD5016841F08001016027
:1005900000210091009A4F2A06D800BF009A01322C
:1005A0000092009A502AF9D3026842F09002026049
:1005B000009100994F2905D80099013100910099C7
:1005C0005029F9D301684FF6FF7221F00301016051
:1005D00050F8041CCFF6F262114040F8041C016888
:1005E0000C22C0F6FF021140016001684FF6FF7255
:1005F000CFF2C07211400160016840F2431321F450
:1006000040010160816A02F5003221F00F01816230
:10061000C16A9943C162016B21F0010101630021AC
:100620004160016801600168016001680160016862
:1006300011400160016841F0006141F480210160D6
:1006400050F8041C41F0807140F8041C50F8041C60
:100650008901FBD5016821F003010160016841F0C7
:100660000201016001680907FCD54FF0006000211C
:1006700001B001F0C1BC0000B0B542F20004C4F208
:10068000000420460121012502F088FA002808BF55
:10069000B0BD2046012102F07DFA40F23801C2F2DD
:1006A000000108684CF6CD4301300860086840F24C
:1006B0007400C2F2000080F862500A68CCF6CC43A5
:1006C0005A4349F699134FEA7202C1F699139A42B6
:1006D0009CBF012280F863200A68012280F85F2015
:1006E0000B68DB0708BF80F860200968890704BF32
:1006F000012180F86110B0BD10B544F20044C4F28D
:1007000000040521C0F20571204602F0E9FAA0B10B
:10071000204602F09BFA40F29611C2F20001B1F8B5
:100720000021B1F802310132D2B29A4208BF10BDA5
:10073000B1F80031C854A1F8002110BDFEE7000057
:1007400042F20840C4F20100016841F00801016072
:1007500001680907FCD4016841F00401016000BF91
:1007600001684907FCD47047022814D0012818BF3B
:10077000704742F22C40C4F20100026822F4700279
:1007800002604FF4700202EB0151026801F4700143
:1007900011430160704742F22C40C4F20100C2686C
:1007A00022F44012C2604FF4401202EB0151C268C1
:1007B00001F440111143C1607047000042F208414A
:1007C000C4F201010A68002822F4006218BF02F591
:1007D00000620A607047000080B540F2093001F005
:1007E000C9FD40F20930BDE8804001F0B3BD000012
:1007F00042F20840C4F20100016841F480710160D6
:100800007047000042F20840C4F201000168C907C5
:1008100018BF7047016841F0010101607047000096
:10082000002942F20841C4F2010104D0C20710D1EC
:10083000800714D47047C20703D00A6822F48012DC
:100840000A60800758BF7047086820F400400860BD
:1008500070470A6842F480120A608007EAD5086887
:1008600040F4004008607047012805D0022818BFF6
:1008700070476FF4E04001E06FF4602042F20842FC
:10088000C4F2010213681840106010680843106039
:100890007047000010B582B040F2115001F04AFDDF
:1008A00040F2096001F046FD032001F07FFC4FF0AB
:1008B0009040032100221823002400F03BFEFFF7A4
:1008C0008BFF0020FFF77AFF4FF48070012100F0CA
:1008D0008BF801200221FFF747FF002003210522AA
:1008E00000F028F801200421052200F023F801205F
:1008F0004FF40021FFF7B8FF01200121FFF790FF1F
:10090000FFF780FF0194019842F20F71884207D8E7
:1009100042F2107001990131019101998142F9D39C
:10092000FFF70EFFFFF7DEFD02B0BDE81040FFF756
:100930005FBF000080B5B1F1120342F20C4C18BF4A
:100940000B460528C4F2010C0DD8DCF828E000EBBA
:1009500080001F2181402EEA010103FA00F00843C4
:10096000CCF8280020E00B280ED800EB8000DCF843
:1009700024E01E381F2181402EEA010103FA00F015
:100980000843CCF824000FE00F280DD800EB8000BE
:10099000DCF820E03C381F2181402EEA010103FAF7
:1009A00000F00843CCF82000092B0CD8DCF8040038
:1009B00003EB430107238B40984302FA01F10843FC
:1009C000CCF8040080BD112B88BF80BD03EB430130
:1009D000DCF800001E3907238B40984302FA01F12E
:1009E0000843CCF8000080BD002942F20441C4F263
:1009F000010106D0C20518D442051CD4800720D4BA
:100A00007047C20503D50A6822F480720A60420565
:100A100003D50A6822F480620A60800758BF7047D5
:100A2000486820F00200486070470A6842F480720B
:100A30000A604205E2D50A6842F480620A608007D3
:100A4000DED5486840F00200486070472DE9F04F5D
:100A500081B0D0E903AB044686690D4658460021B3
:100A60000027FFF765FC28BB50460021FFF78AFCF2
:100A700000B3A0682968FFF7E5FB002107464FF0A7
:100A80000009FFF771FC40F2000827F00047CBF6A1
:100A90008078002838464FF07E5118BF4FF07E58BE
:100AA000FFF762FC50B9C4F818902868E06101B003
:100AB000BDE8F08FA76101B0BDE8F08F3046414638
:100AC000FFF7C6FB002181460026FFF73FFC002808
:100AD0005846594618BF4FF00009FFF761FB3946E9
:100AE000FFF7B6FB00210546FFF722FCB0B9284608
:100AF0004FF07E51FFF754FB4FF07C51FFF7A8FBFE
:100B0000064628463146FFF7D5FB01463046FFF73B
:100B100047FB4FF07C51FFF79BFB064630465146A2
:100B2000FFF730FC41F26F210028CBF683315846A5
:100B300018BF5646FFF78CFB01463046FFF730FBE7
:100B400001464846FFF710FC41F26F21C3F683319E
:100B500008B9584610E05846FFF77AFB3146FFF7D0
:100B60001FFB01464846FFF7E3FB58B941F26F21EE
:100B70008BF00040C3F68331FFF76AFB4946FFF76D
:100B80000FFB064630465146FFF7FCFB002818BF16
:100B9000564630460021FFF7D9FB002818BF002633
:100BA00040463146FFF754FBA06101B0BDE8F08F2D
:100BB0000022C0E9062140F29310C2F20000012198
:100BC00001707047F0B589B040F2A820C2F2000071
:100BD0000026067040F2A920C2F20000067040F222
:100BE000115001F0A7FB40F2117001F0A3FB4FF090
:100BF000904001210422012700F02AFC4FF0904090
:100C000002210122042300F095FC4FF090400121C5
:100C10000322042300F0B8FC44F20044C4F20004B0
:100C2000204602F017F844F24021C0F20F0120469E
:100C300001F0DEFF2046002102F064F8204600218A
:100C400002F088F82046002102F070F8204602F0F9
:100C50003DF82046082102F075F82046042102F0F4
:100C60005DF8204602F01AF84FF4A06001F062FB34
:100C7000032000F0B7FA01AD284600F04FFB04F165
:100C80002800CDE9010640F20110ADF8180003205C
:100C900029468DF80C600596CDE9077600F0BAFA82
:100CA000032000F087FA0320022100F0F7FA0B205E
:100CB0000221002201F06EF92046802101F0E6FFBA
:100CC00009B0F0BD70B540F2A925C2F20005287840
:100CD00040F2A826C2F2000688B144F20044C4F2F1
:100CE0000004204640F2067101F0E8FF38B12046CA
:100CF00040F2067101F0D8FF002028703070307883
:100D0000002818BF012070BD70B5054640F2A8202C
:100D1000C2F20000027800294FF0000418BF002D35
:100D200001D1204670BD002AFBD1012404700320AC
:100D30000E4600F027FA0320294600F0E7FA0320C8
:100D4000314600F0F5FA0320022100F0B3FA032047
:100D500000F024FA204670BD10B540F23C00C2F20B
:100D600000000021017040F2115001F0E3FA40F25E
:100D7000157001F0DFFA4FF0904004214FF4C0628B
:100D800000F066FB4FF09040022101224FF4C06357
:100D900000F0D0FB4FF09040012103224FF4C063DC
:100DA00000F0F2FB45F20044C4F20004204600F0DB
:100DB0008BFC41F68021C0F206012046002200F0A3
:100DC00011FC204600210022002300F003FD2046F4
:100DD000012100F0FDFB204600F098FC204640F287
:100DE0000A5100F099FC20464FF4A16100F094FCF8
:100DF000204640F2095100F08FFC204640F20B5192
:100E0000BDE8104000F088BC2DE9F04F83B0002A07
:100E100000F0C7809A46002B00F0C38045F20044E2
:100E2000C4F2000489464FEA400847F6601672B6DD
:100E3000204640F20A519346CFF6FE7600F06CFC55
:100E400020464FF4A16100F067FC204640F20951B2
:100E500000F062FC204640F20B5100F05DFC35468C
:100E6000204640F2016100F06BFC012803D1002D07
:100E700005F10105F4D1012800F09C80204600F026
:100E8000B7FC354620464FF4A06100F059FC18B974
:100E9000002D05F10105F5D1002800F08F805FFAE3
:100EA00088F8204641466FF0010200F08BFC00F00C
:100EB0004FFC002800F086802046494600F002FCE6
:100EC000354600BF204640F2025100F039FC18B907
:100ED000002D05F10105F5D1002877D0204600F05E
:100EE00087FC354620464FF4A06100F029FC18B974
:100EF000002D05F10105F5D100286BD020464146B3
:100F00000122012500F05EFC00F022FC002865D0E3
:100F1000BAF1000F1ED0AAF101080025A84503D19F
:100F20002046002100F054FB374600BF204640F227
:100F3000065100F005FC18B9002F07F10107F5D1A3
:100F4000002852D0204600F0B9FB0BF8050001350F
:100F50005545E3D12046012100F03AFB204600F040
:100F60004DFC30462168890503D5002800F10100B9
:100F7000F8D1002935D43546204640F2016100F011
:100F8000DFFB012803D1002D05F10105F4D1014655
:100F90000139B1FA81F1490901380D4618BF012024
:100FA0002AE040F23C01C2F200010020087003B0C8
:100FB000BDE8F08F0020012101251DE00020012562
:100FC000022119E000200125032115E00020012560
:100FD000042111E00020012505210DE0002006215B
:100FE0000AE000200125082106E020460121012514
:100FF00000F0EEFA0020072140F23C02C2F20002AB
:10100000002D117000F0A4800546204600F0F6FB8C
:10101000304600BF2168890503D5002800F1010092
:10102000F8D1204640F20A5100F076FB20464FF4FA
:10103000A16100F071FB204640F2095100F06CFB09
:10104000204640F20B5100F067FB00BF204640F203
:10105000016100F075FB012803D1002E06F10106A5
:10106000F4D10128284673D1204600F049FB4FF007
:101070009040012101224FF4C06300F05BFA4FF071
:101080009040012103224FF4C06300F07DFA4FF03D
:1010900090404FF4C06100F015FA0026002703E0ED
:1010A000082F07F1010720D24FF090404FF4007154
:1010B00000F006FA02960298C72805D80298013077
:1010C00002900298C828F9D34FF090404FF4007175
:1010D00000F0F8F901960198C728E1D8019801308D
:1010E00001900198C828F9D3DAE74FF09040042125
:1010F0004FF4C06200F0ACF94FF0904002210122A1
:101100004FF4C06300F016FA4FF090400121032223
:101110004FF4C06300F038FA2046012100F058FA7D
:10112000204600F0F3FA204640F20A5100F0F4FAAB
:1011300020464FF4A16100F0EFFA204640F2095139
:1011400000F0EAFA204640F20B5100F0E5FA28469A
:1011500062B603B0BDE8F08F40F23401C2F2000184
:10116000086000BF08680028FCD1704740F23400D6
:10117000C2F200000168002908BF70470168013908
:1011800001607047082100EB8000C4F2020151F8B1
:10119000202022F0010241F820207047082100EBB6
:1011A0008000C4F2020151F8202042F0010241F80F
:1011B00020207047082100EB8000C4F2020151F8A2
:1011C000202022F0200241F820207047082100EB67
:1011D0008000C4F2020151F8202042F0200241F8C0
:1011E00020207047042200EB8001C4F2020202EBCF
:1011F00081014B68800023F001034B6000234B60AA
:101200008B60CB600B610F21136801FA00F018436B
:101210001060704710B540F2080E00EB8000C4F279
:10122000020E5EF8203023F001034EF82030D1F892
:1012300000C00EEB8003C3F808C0CA68DA600A8BEE
:101240005A605EF820204B6822F47C5C0A69CC6905
:1012500043EA0C031A4322434EF820205EF8202074
:101260000B7A22F040020C7D012B08BF40324EF871
:1012700020205EF82020012C22F0800208BF80325E
:101280004EF82020497D5EF82020002922F010022F
:1012900018BF10324EF8202010BD0000082200EBCD
:1012A0008000C4F2020252F82030194342F82010A4
:1012B000704700000422C4F202028000136801FAA1
:1012C00000F018431060704708294FF000021BD847
:1012D00001238B4013F48A7F16D040F2000CC4F235
:1012E000020C820000EB8000DCF800304CEA800049
:1012F00001FA02F280681A4000EA010018BF0122D8
:10130000002818BF0120024010467047142200EB4D
:101310008000C4F2020242F8201070470021C0E9A8
:1013200000110172C0E90611C0E903118182704702
:101330000C2289B200EB8000C4F2020242F82010B5
:1013400070470000F0B581B040F2300172B6C2F2D1
:10135000000108884C8862B6FFF72BF843F233355A
:10136000C4F253052946FEF773FF4FF06651FEF7AE
:101370006FFF40F27407C2F200070646386020464D
:10138000FFF717F82946FEF763FF4FF06651FEF7A7
:101390005FFF396978603046FEF754FF0146FEF77B
:1013A000FFFE00210446FEF7D1FF002818BF0024ED
:1013B00000F0DAFC84F000410028D8BF01EAE074B4
:1013C00078680021C4F23811BC60FEF741FF4FF08D
:1013D0007F51FEF76FFFF86001B0F0BDFFF7BCBCB6
:1013E00010B582B00DF1030236200B210523FFF763
:1013F0000BFD18B19DF80300800602D4002002B056
:1014000010BD9DF806109DF8070061F30B20FEF754
:10141000D0FF40F274040021C2F20004C4F2B431DF
:10142000A061FEF715FF4FF06651FEF711FF40F681
:10143000DB71C4F249012062FEF70AFF0021C4F209
:101440003431FEF737FFE061012002B010BD00002B
:10145000F0B5D0F820E0D0F824C000230F270025F5
:1014600005E000BF0135082D03F104030CD022FA7A
:1014700005F6F607F6D007FA03F62EEA060601FA95
:1014800003F446EA040EEDE7082300240F2504E0E8
:101490000133102B04F104040CD022FA03F6F607F2
:1014A000F6D005FA04F62CEA060701FA04F647EA34
:1014B000060CEDE7C0F820E0C0F824C0F0BD000045
:1014C000816270478161704710B540F2165000F09C
:1014D00031FF40F2115000F02DFF40F2125000F0A9
:1014E00029FF41F20044C4F60004204601210022F5
:1014F000012300F01FF8204600210022012300F004
:1015000043F820460121FFF7DBFF4FF09040012117
:101510000022402300F00EF84FF0904000210022FE
:10152000402300F031F84FF090404021BDE81040DA
:10153000FFF7C6BF2DE9F041D0F800E0D0F80CC0AD
:1015400000244FF00308002605E000BF0136102EEE
:1015500004F1020412D023FA06F7FF07F6D008FAC6
:1015600004F72EEA070E01FA04F54EEA050E2CEAFE
:10157000070702FA04F547EA050CE7E7C0F800E0C0
:10158000C0F80CC0BDE8F0810129416814BF99433F
:1015900019434160B0B5D0F808C000214FF0030EE8
:1015A000002404E00134102C01F102010CD023FAD4
:1015B00004F5ED07F6D00EFA01F52CEA050C02FA57
:1015C00001F54CEA050CEDE7C0F808C0B0BD00001D
:1015D0000268012922F4806208BF02F5806202607D
:1015E00070470000F0B581B00446022017460D4652
:1015F00000F008FE4DF68361C4F21B31A0FB01121E
:10160000910C4AF2FF12C0F24A4290420A4688BF49
:101610004822636848F2A066C0F2010623F07F0307
:10162000B54243EA0203636007D845F6C072C0F2D0
:101630003B4290422BD3482131E041F68021C0F259
:1016400006018D4237D84FF49671514348F638124F
:10165000C0F24102A1FB0212511C2162E169192270
:1016600021F48041002F18BF01F5804108BF0322FB
:10167000E161E1696A4341F40041B0FBF2F0E161EC
:10168000E169020508BF41F00101084312E048F298
:101690007F42C0F21E0290428CBF013102212162C2
:1016A0006900B0FBF1F0042898BF0420E1696FF3F2
:1016B0001F300843E06101B0F0BD00000069C0B216
:1016C000704700000161704710B545F20041C4F257
:1016D0000001884209D045F60001C4F200018842A9
:1016E00018BF10BD40F2164401E040F215442046F8
:1016F00000F040FE2046BDE8104000F02BBE000088
:10170000016821F00101016070470000016841F0AB
:10171000010101607047000040F20152914202D184
:1017200041698069704701F01F0289094FF0010C7F
:101730000B580CFA02F223EA02020A50704700002A
:101740008A09105801F01F01C84000F001007047DD
:10175000B0B547F6601545F20044CFF6FE75C4F209
:10176000000400BF204640F20151FFF7E9FF18B91D
:10177000002D05F10105F5D110B3204640F20A51C4
:10178000FFF7DEFF0546204640F20151FFF7C4FF98
:10179000012D1CBF0120B0BD204640F20A51FFF7C9
:1017A000BBFF20464FF4A161FFF7B6FF204640F291
:1017B0000951FFF7B1FF204640F20B51FFF7ACFF94
:1017C0000020B0BD21F00101023218BF01310161DA
:1017D00070470000D0F800C06FF39F232CF0020C7C
:1017E00041EA0C01016043EA020181607047000098
:1017F000016841F48071016070470000016841F4A4
:10180000007101607047000080B500F031FFFFF704
:101810005BFEFFF73FF800F0AFFAFFF7DFFD00F0E7
:10182000EBFA00F04BFF01F0D5F9BDE8804000F085
:101830009DB9000080B5FFF745FA002818BF0120C8
:1018400080BD0000B0B50D460446FFF73BFAA5F198
:10185000090111F1080F1DD3E4B1002818BFB0BD74
:1018600040F25000C2F20000ADB14FEA850CC21E3A
:10187000E51E0023EC78043BD47015F8044F1CEBF4
:10188000030102F8044F6C785470AC789470F1D175
:10189000594201E0B0BD00218AB24FF0FF4304314C
:1018A00089B28350BDE8B040FFF72EBA2DE9F0476A
:1018B00004468868D16AC4E90301FEF7C3FC824686
:1018C00060616068276A666B5146FEF7C1FC394665
:1018D000FEF766FC0746206230460021FEF728FD31
:1018E00090B93846314686F00048FEF74BFD8146F8
:1018F00038464146FEF72AFD002818BF4746B9F191
:10190000000F18BF37462762A1692668A768256AB5
:101910005046FEF797FC01463846FEF799FC07460D
:1019200030465146FEF794FC2946FEF739FC014645
:101930003846FEF735FCA76B064660623846002144
:10194000FEF7F6FC90B93046394687F00045FEF7C1
:1019500019FD804630462946FEF7F8FC002818BFDE
:101960002E46B8F1000F18BF3E466662C4F818A0B4
:10197000BDE8F08786B0FFF747FF40F2740440F2FD
:101980004006C2F2000401AD0027C2F2000600BF0B
:1019900094F8620018B184F86270FFF7D3FC94F8F1
:1019A000630060B184F86370FFF71AFD94F85F007C
:1019B00028B13046214684F85F7000F0EFFD01F059
:1019C00015F900F051FA204600F038F9FFF732FF20
:1019D0000028DDD1206AE16A626B636C0190606D62
:1019E000CDE90431CDE9022028460521FFF72AFF81
:1019F000CEE700002DE9F04381B040F20407C2F2C7
:101A00000007787802283ED0012804D000287869A1
:101A100001B0BDE8F08340F2A028C2F2000898F8B7
:101A2000001040F2A4290029F968C2F200094FF021
:101A30007E507C68D9F800501CBF0020CBF6807027
:101A4000FEF706FC2946FEF7ABFB21460546C9F822
:101A50000000FEF789FC264628B9BE6828463146B4
:101A6000FEF790FC50B928462146FEF77DFC002881
:101A700018BF0120C9F8006088F80000D9F80000FC
:101A800001B0BDE8F08340F29C25C2F20005F86881
:101A90002968FEF785FB40F6DB71C4F24901044674
:101AA0002860FEF745FC88B940F6DB7540F6DB762A
:101AB000CCF2C905C4F2490620462946FEF770FB60
:101AC00031460446FEF75EFC0028F5D140F6DB7196
:101AD000CCF249012046FEF747FC88B940F6DB7599
:101AE00040F6DB76C4F2C905CCF249062046294609
:101AF000FEF756FB31460446FEF728FC0028F5D1D8
:101B000084F000412046FEF7A3FB48F68901C3F6A6
:101B100008410546FEF79CFB4AF6AB21C3F62A6155
:101B2000FEF73EFB01462846FEF792FB4FF07E5142
:101B3000FEF736FB01462046FEF78AFB4FF07C514C
:101B4000FEF786FB4FF07C51FEF72AFBD7E9011424
:101B5000054608462146FEF775FB2946FEF778FB49
:101B60002146FEF71DFB01B0BDE8F08370B540F2E1
:101B70000404C2F20004A06840F2A421C2F20001F1
:101B8000086040F2A020C2F200000021017040F283
:101B90009C20C2F2000040F292160160C2F20006E0
:101BA00040F228003170C2F20000FF21017040F2C3
:101BB0002900C2F20000017040F23800C2F20000B9
:101BC0000068227840F28C1140F27405C2F20001E4
:101BD000022AC2F20005086005D195F85C000028D1
:101BE0001CBFE86A6061FFF705FF2178A061022948
:101BF00010D0012907D0002918BF70BD012185F838
:101C00003C10286470BD226A022185F83C10C5E9A9
:101C1000120270BD032085F83C0095F85C00D4E901
:101C20000712C5E9121230B10120E96A307005F1DE
:101C30003C00FEF7BDFFA069686470BD2DE9F04768
:101C40000546044615F83C0F032818D002280ED08C
:101C5000012840F08680206CFEF7B0FB40F2901126
:101C6000C2F200010880BDE8F04700F06FBA94F8B6
:101C70006000002875D0284600F08CFB5BE094F8EB
:101C80006100002851D0264656F82CAFB069514665
:101C9000FEF7D8FA40F29319C2F2000999F80070E1
:101CA000804620F000402FB10021C3F6A071FEF75E
:101CB0003FFB03E04FF07E51FEF764FB002804BFBA
:101CC00087F0010089F8000040F29410C2F2000091
:101CD000027899F800105AB151B90122636B89F862
:101CE00000200022C4E9153AC4F8F420C4E93F22D8
:101CF000017049B104F1DC0029462246FFF7D6FD08
:101D0000D4F8000154210CE028463146FEF79EFE2F
:101D1000606CE16A04F1E80282E8030100204FF4FC
:101D200080716050002084F8610094F86000002801
:101D300008BFBDE8F08704F1A00004F1540104F1EC
:101D4000340200F0ABFBD4F8C400FEF737FB40F2DE
:101D50009011C2F20001088000F0F8F9002084F828
:101D60006000BDE8F087000040F29010C2F2000071
:101D7000B0F9000070470000B0B540F29010C2F218
:101D800000000021018000F059F94FF090404021FF
:101D9000FFF798FB40F27405C2F2000505F1A004BC
:101DA0000021C4F2201120464FF07C52002300F0A5
:101DB00031F94CF200020021C4F25A52C4F234410B
:101DC0002046134600F036F905F1DC0400214CF6FC
:101DD000CD43C4F2A001C3F64C532046002200F0CC
:101DE00019F90023C4F27023204600210022BDE827
:101DF000B04000F01FB90000B0B540F27404C2F268
:101E0000000400204FF4FA7584F85C00FFF7E8FA4C
:101E100030B90120FFF7A0F9013D08BFB0BDF5E7DB
:101E200040F24005C2F200052846214600F02EFB94
:101E30002846214600F0B2FBE06A616B40F2931342
:101E40000022C2F200030125C4E911021D70C4E999
:101E50001510C4F8FC20C4E93C22C4F8C020C4F822
:101E6000B82084F85C50B0BD2DE9F04140F2040583
:101E7000C2F200052C6940F23800C2F20000066888
:101E800020460021FEF77EFA002808BF4FF07E545E
:101E90002046FEF7ACFA40F28C11C2F200010A684B
:101EA000B21A824201D2BDE8F08140F22807C2F2A4
:101EB000000728783A780E6040F2740440F29218D5
:101EC00040F229069042C2F20004C2F20008C2F2B7
:101ED000000603D169783278914228D0A96840F28F
:101EE000A422C2F20002116040F2A021C2F200015D
:101EF000002294F85C300A7040F29C21C2F200018A
:101F00000A6088F8002073B1022807D001280AD19E
:101F1000616B04F13C0000F0B7FA04E0E16A04F1FF
:101F20003C00FEF745FE2878697838703170FFF77D
:101F300061FD2978A861022913D0012909D000295F
:101F400018BFBDE8F081012184F83C102064BDE891
:101F5000F0812A6A022184F83C10C4E91202BDE82B
:101F6000F081032084F83C0098F80000D5E90712BE
:101F7000C4E9121250B994F85C0038B10120E16A4A
:101F800088F8000004F13C00FEF712FEA8696064C6
:101F9000BDE8F0814EF60C5CCEF2000CDCF80030AF
:101FA00003F4E063A3F54073B3F5A06F01D21B0AFD
:101FB00006E040F20053C0F2FA53CCF8003002239E
:101FC00001FA03FCC3F104030F21D94011404EF282
:101FD000001241EA0C01CEF20002090140EA0203BC
:101FE00083F8001300F01F01012303FA01F11C2301
:101FF00003EAD000815070474FF68072C1F6FF723D
:10200000114008434EF60851CEF200010860BFF3BC
:102010004F8F70474FF0000CC0E908CCC0E90CCCE2
:10202000C0F838C080E80E10C0E904CCC0F818C071
:102030007047000030300EC070470000F0B589B026
:1020400040F2115000F076F940F2125000F072F9AF
:1020500040F2017000F06EF94FF0904001218022B3
:102060000126FFF7F5F940F20044C4F2000404F140
:102070000065284601210222FFF7EAF94FF090405F
:102080000221002280230027FFF754FA284602216C
:1020900000220223FFF74EFA4FF090400021032266
:1020A0008023FFF771FA2846002103220223FFF75D
:1020B0006BFA204600F098FC05AD284600F082FD42
:1020C00040F60F60079020462946CDE905778DF848
:1020D000207000F0F1FC01AD284600F07FFC2046A6
:1020E00001212A46CDE901670397ADF8107000F091
:1020F00021FB204603212A4600F01CFB204601213B
:10210000602200F02BFC20460321602200F026FC18
:1021100020460121002200F045FC20460321002238
:1021200000F040FC20460121002200F033FC204654
:102130000321002200F02EFC2046202100F03AFD71
:10214000204600F0B3FC09B0F0BD0000B0B54FF27E
:10215000F115CFF6FF75A84240F60F61C8BF0546DE
:102160008D4240F20044A8BF0D460128C4F200048D
:1021700006DB20460121012200F00CFCADB20EE08E
:10218000B0F1FF3F04DD204601210022002504E0DC
:10219000684282B220460121012500F0FBFB204667
:1021A00003212A46BDE8B04000F0F4BB41F204012F
:1021B000C4F202010A68042822F440420A60CA6A92
:1021C00022F48072CA6288BF7047DFE800F003140F
:1021D0000C100800C86A20F48070C8627047086854
:1021E00040F4404008E0086840F4804004E008689B
:1021F00040F4004000E008680860C86A40F480705D
:10220000C862704770B541F20402C4F2020201468E
:10221000106841F2002CC0F27A0C00F00C00082883
:10222000634619D11068136816681B014FF011033B
:10223000C0F3834058BF0223F603184405D440F688
:102240000013C0F23D03434306E0936A03F00F031B
:102250000133BCFBF3F34343106832A6C0F3031011
:10226000305C166842F68A55C6F30226C0F60005B1
:1022700015F806E01668062919D823FA00F4C6F303
:10228000C220285C24FA00F0DFE801F004130E37C6
:1022900006151D00184670BDD16AC9052ED449F631
:1022A0008070C0F2D50070BD24FA0EF070BD002021
:1022B00070BD204670BDD06A40064FF4004058BF44
:1022C00048F2120070BDD16A890708BF70BDD06A9C
:1022D00000F00300012818460FD0D06A00F0030078
:1022E000022804BF4FF4004070BDD06A00F0030024
:1022F000032818BF4FF0000C604670BD1168C1F391
:102300008131DFE801F0020D040B400870BD4AF690
:10231000AB21C2F6AA21A0FB011070BDC00870BDA0
:10232000800870BD000000000000000001020304EE
:102330000607080941F2000300F01F018009C4F2FA
:1023400002034FF0010CC2580CFA01F11143C150C5
:102350007047000041F2000300F01F018009C4F241
:1023600002034FF0010CC2580CFA01F122EA0101FC
:10237000C150704741F2000300F01F018009C4F210
:1023800002034FF0010CC2580CFA01F11143C15085
:10239000704700002DE9F041D0E9035704468669F3
:1023A00038460021FDF7C4FF40BB30460021FDF751
:1023B000BFFF20B928460021FDF7C8FF48B93046C5
:1023C0000021FDF7D1FFC8BB28460021FDF7B0FF73
:1023D000A0BB30460021FDF7ABFF90B941F26F2161
:1023E000CBF683213846FDF733FF01463046FDF733
:1023F000D7FE00210546FDF7B7FFD8B1A561BDE8BE
:10240000F08130460021FDF7AFFF00281CBFA66118
:10241000BDE8F08141F26F21C3F683213846FDF714
:1024200017FF3146FDF7BCFE00210546FDF780FF92
:102430000028E3D10025A561BDE8F081284631469A
:10244000FDF700FF41F26F218046C3F68321384635
:10245000FDF7FEFE074640463946FDF769FF20B905
:1024600030463946FDF79CFE0AE087F000414046C1
:10247000FDF77AFF0028C1D130463946FDF7E2FE6C
:102480000546A561BDE8F0818161704700220260C8
:102490000B6A4360C96A0273816070472DE9F04797
:1024A000076B04460D68384600219046FDF740FF53
:1024B00088B92846394687F00046FDF763FF814614
:1024C00028463146FDF742FF002818BF3546B9F1CE
:1024D000000F18BF3D46E560D8F80010284621617E
:1024E000FDF7B0FE824660616068276A666B514600
:1024F000FDF7AEFE3946FDF753FE07462062304633
:102500000021FDF715FF90B93846314686F00048A6
:10251000FDF738FF814638464146FDF717FF002892
:1025200018BF4746B9F1000F18BF37462762A169A7
:102530002668A768256A5046FDF784FE014638469E
:10254000FDF786FE074630465146FDF781FE2946D7
:10255000FDF726FE01463846FDF722FEA76B06462C
:10256000606238460021FDF7E3FE90B930463946F7
:1025700087F00045FDF706FF804630462946FDF707
:10258000E5FE002818BF2E46B8F1000F18BF3E46E2
:102590006662C4F818A0BDE8F0870000F0B581B00D
:1025A0000E6A0C46416805463046FDF74BFE002199
:1025B000C4F234310746FDF7E5FE10B14FF0FF30AD
:1025C00007E00021CCF234313846FDF7CDFE18B9D2
:1025D000012029680844286028686E60FDF7E0FE45
:1025E0000021C4F2B431FDF733FE3146FDF7D8FDCA
:1025F000297BE062B1B3A9680646FDF723FE0021FE
:10260000C4F2C821AE60FDF723FE49F69A11656B4E
:10261000C3F69961FDF71CFE43F233310646C3F65B
:1026200033712846FDF714FE3146FDF7B9FD40F63B
:10263000DB71C4F2490105466063FDF709FE002124
:10264000C4F23431FDF736FE0021A063C4F2B43188
:102650002846FDF72FFE4FF08B41FDF7F9FD206373
:1026600001B0F0BDA8600120287301B0F0BD0000EA
:1026700040F20000C2F20000006844F6D351C1F2FB
:102680006201A0FB01014FF0FF3000EB9110B0F1AF
:10269000807F11D24EF21001CEF2000148604EF65A
:1026A0002350CEF20000F0220270002207238A603D
:1026B0000B600270704700BFFEE7000070B584B089
:1026C00040F23800C2F200000026066040F27400BA
:1026D000C2F20000012180F863104FF4E160FFF7BF
:1026E00029FE42F20004C4F20004204600F07CF906
:1026F0006D46284600F066FA4720CDE9000640F214
:10270000E7300290204629468DF80C6000F0D4F99D
:102710002046012100F03EFA2046012100F036FA61
:10272000132001210022FFF735FC204600F0BEF9FE
:1027300004B070BD032900F20F81DFE801F002B898
:10274000468D016A21F001010162816921F00301D6
:1027500081611168036A19430162016A21F0020173
:102760000162D188036A0B43A0F18041A1F5963143
:102770004FEAB1210729036200F2EE80012303FA38
:1027800001F111F0E10F00F0E780016A21F004018E
:1027900001629188036A19430162016A21F008010C
:1027A00001621189036A1943016250F8041F21F480
:1027B000807101605189036819430160016821F447
:1027C0000071016092890368C3E0016A42F6044C1B
:1027D00021F480710162C169C4F2010C21F003018E
:1027E000C1611168036A43EA01210162016A21F4AF
:1027F00000710162D388016A41EA0321ACF104034C
:102800009842016240F0A880016A21F4806101626F
:102810009188036A43EA01210162016A21F400619F
:1028200001621189036A43EA01210162DCF80000B8
:1028300020F48050CCF800005089DCF8001041EA08
:102840000010CCF80000DCF8000020F40050CCF8B8
:1028500000009089030126E0016A42F6044C21F44D
:1028600080510162C169C4F2010C21F44071C1615F
:102870001168036A43EA01310162016A21F40051DF
:102880000162D388016A41EA0331ACF10403984242
:10289000016218BF7047DCF8000020F48040CCF8DB
:1028A000000050898301DCF80020604651E0016A95
:1028B00021F010010162816921F440718161116888
:1028C000036A43EA01110162016A21F020010162F9
:1028D000D188036A43EA011144F20003C4F2010300
:1028E000984201622AD042F60041C4F201018842B6
:1028F00032D1016A21F0400101629188036A43EA02
:1029000001110162016A21F0800101621189036AEB
:1029100043EA0111016242F60440C4F20100016879
:1029200021F4806101605189036843EA81010160FB
:10293000016821F400610160918908E044F204001B
:10294000C4F20100016821F48061016051890268CC
:102950008B0043EA0201016070470000032988BF31
:102960007047DFE801F0020D050A50F8181F01E07A
:1029700050F81C1F21F0700107E050F81C1F01E007
:1029800050F8181F21F4E041120201600168114360
:1029900001607047032988BF7047890089B20844E5
:1029A00042637047032988BF7047DFE801F0020DDA
:1029B000050A50F8181F01E050F81C1F21F008010B
:1029C00007E050F81C1F01E050F8181F21F40061C7
:1029D000120201600168114301607047002181818A
:1029E000C0E900118160704710B542F6FF31C4F2B2
:1029F0000101884211DC40F6FF71C4F200018842F7
:102A000020DCB0F1804F3CD040F20041C4F2000124
:102A1000884249D140F201443EE044F2FF31C4F221
:102A2000010188421DDC42F60041C4F201018842E6
:102A30002AD044F20001C4F20101884234D14FF49B
:102A4000447429E041F20001C4F2000188421ED022
:102A500042F20001C4F20001884225D14FF48164A2
:102A60001AE044F20041C4F20101884212D044F657
:102A70000001C4F20101884218BF10BD40F21234B7
:102A80000AE04FF4806407E040F20B3404E040F2C7
:102A9000044401E040F211342046FFF76BFC20466D
:102AA000BDE81040FFF756BC10BD0000016841F0C2
:102AB00001010160704700000A8842F6004CB0F145
:102AC000804FC4F2010C826218BF60452ED10368AA
:102AD00023F0700303604B8802681A4302608A88FF
:102AE00003681A43026042F6FF338A68C4F20103A6
:102AF0009842C2620ADD44F2FF32C4F201029042FF
:102B00001BDC604525D044F200021EE0B0F1804F8E
:102B10001FD040F20042C4F20002904219D042F2AB
:102B20000002C4F20002904213D02AE040F20043B7
:102B3000C4F200039842CAD0D5E744F60002C4F2BA
:102B40000102904205D044F20042C4F201029042D8
:102B500017D1026822F440720260CA8803681343E6
:102B6000A0F18042A2F596324FEAB222072A036012
:102B700007D8012303FA02F212F0E10F1CBF097B10
:102B80000163416941F0010141617047C26811432D
:102B9000C1607047C943016170470000C2680069A5
:102BA0000A40084018BF0120002A18BF0122104027
:102BB00070470000426822F0700242604268114390
:102BC0004160704700214FF6FF72C0E9001182603A
:102BD0000173704740F29610C2F200000021A0F885
:102BE0000011A0F80211FDF7EDBF000070470000D2
:102BF000B0B5044643F60000C4F2010084420D461D
:102C000007D044F20040C4F20000844205D1022003
:102C100000E00620FFF7F6FA00E000202168090432
:102C200006D400EB5500B0FBF5F080B2E060B0BD1B
:102C3000400000EB5500B0FBF5F04FF6F07101409D
:102C4000C0F342000844E060B0BD0000406A6FF38A
:102C50005F20704710B543F60001C4F201018842BD
:102C600009D044F20041C4F20001884218BF10BDEF
:102C700040F2114401E040F20E342046FFF77AFBA7
:102C80002046BDE81040FFF765BB0000826822F0D7
:102C9000800282608268114381607047016841F060
:102CA000010101607047000001F01F010122036A69
:102CB00002FA01F119430162704700008A091058B5
:102CC00001F01F01C84000F001007047016821F0C9
:102CD00001010160816841F00801816070470000D6
:102CE000C1F3891252F800C08A0D105801F01F0379
:102CF000C1F30441C8402CFA03F1084000F0010080
:102D000070470000026822F001020260026822F4AB
:102D1000C06202600268114301607047026822F0DD
:102D2000040202600268114301607047026822F0E9
:102D300001020260426822F440524260426811433C
:102D400041607047026822F0080202600268114385
:102D500001607047026822F001020260026822F4FA
:102D600080520260026811430160704702E008C8A7
:102D7000121F08C1002AFAD170477047002001E0F5
:102D800001C1121F002AFBD17047000000000102A0
:102D900003040000B82D00080000002030000000EF
:102DA0006C2D0008E82D000830000020800600008F
:102DB0007C2D00080000000000A24A040200000070
:102DC0000000B4420000B4C20000004000004842CD
:102DD00000000000000000000000C8420000FA44AB
:082DE000FFFF000000000000ED
:040000050800016985
:00000001FF
