:020000040800F2
:10000000100400207D010008490200084102000898
:1000100045020008D1010008690300080000000043
:100020000000000000000000000000005102000875
:100030003D020008000000004D02000855020008C3
:100040009701000897010008970100089701000830
:100050009701000897010008970100089701000820
:100060009701000897010008970100089701000810
:100070009701000897010008970100089701000800
:100080009701000897010008000000009701000890
:1000900097010008970100089701000897010008E0
:1000A00097010008970100089701000897010008D0
:1000B0009701000800000000970100080000000000
:1000C0009701000800000000970100089701000850
:1000D0009701000897010008970100080000000040
:1000E00000000000000000009701000897010008D0
:1000F0009701000897010008970100089701000880
:1001000097010008000000000000000097010008AF
:1001100000000000000000000000000000000000DF
:1001200000000000000000000000000000000000CF
:1001300000000000000000000000000000000000BF
:1001400000000000000000000000000000000000AF
:10015000000000000000000097010008970100085F
:100160009701000897010008DFF80CD000F018F89C
:100170000048004765090008100400200648804731
:1001800006480047FEE7FEE7FEE7FEE7FEE7FEE77C
:10019000FEE7FEE7FEE7FEE75902000869010008F6
:1001A0001CB509480090094801900546009C06E0EE
:1001B000E06840F0010394E8070098471034AC422F
:1001C000F6D3FFF7D5FF00003811000858110008DA
:1001D000FEE70000B0B588B04FF4A06000F004FD69
:1001E0000020002500F08AFA6C46204600F0E2FA72
:1001F00042F24C40C4F2010000904FF48070019034
:1002000040F20800C2F2000003904FF480600490B6
:100210000120ADF81400022006904FF40050079022
:10022000002021468DF8085000F080FA002000F0F0
:1002300059FA002000F04AFA08B0B0BD704700003B
:10024000FEE70000FEE70000704700007047000076
:100250007047000000F02EBA81B041F20400C4F2F1
:10026000020050F8041C41F0010140F8041C00BFDA
:1002700050F8041C8907FBD5016841F0800101603A
:1002800000210091009A4F2A06D800BF009A01323F
:100290000092009A502AF9D3026842F0900202605C
:1002A000009100994F2905D80099013100910099DA
:1002B0005029F9D301684FF6FF7221F00301016064
:1002C00050F8041CCFF6F262114040F8041C01689B
:1002D0000C22C0F6FF021140016001684FF6FF7268
:1002E000CFF2C07211400160016840F2431321F463
:1002F00040010160816A02F5003221F00F01816244
:10030000C16A9943C162016B21F0010101630021BF
:100310004160016801600168016001680160016875
:1003200011400160016841F0006141F480210160E9
:1003300050F8041C41F0807140F8041C50F8041C73
:100340008901FBD5016821F003010160016841F0DA
:100350000201016001680907FCD54FF0006000212F
:1003600001B000F047BB0000FEE7000042F2084089
:10037000C4F20100016841F0080101600168090749
:10038000FCD4016841F00401016000BF0168490725
:10039000FCD47047022814D0012818BF704742F2DD
:1003A0002C40C4F20100026822F4700202604FF493
:1003B000700202EB0151026801F470011143016007
:1003C000704742F22C40C4F20100C26822F440128D
:1003D000C2604FF4401202EB0151C26801F44011B7
:1003E0001143C1607047000042F20841C4F20101AC
:1003F0000A68002822F4006218BF02F500620A6051
:100400007047000080B540F2093000F00DFC40F26A
:100410000930BDE8804000F0F7BB000042F2084020
:10042000C4F20100016841F480710160704700006E
:1004300042F20840C4F201000168C90718BF7047C2
:10044000016841F00101016070470000002942F29B
:100450000841C4F2010104D0C20710D1800714D4AE
:100460007047C20703D00A6822F480120A6080072E
:1004700058BF7047086820F40040086070470A6859
:1004800042F480120A608007EAD5086840F4004010
:1004900008607047012805D0022818BF70476FF424
:1004A000E04001E06FF4602042F20842C4F2010231
:1004B000136818401060106808431060704700000F
:1004C00010B582B040F2115000F08EFB40F209608E
:1004D00000F08AFB032000F05BFB4FF0904003210B
:1004E00000221823002400F0E1F9FFF78BFF002021
:1004F000FFF77AFF4FF48070012100F0A9F8012086
:100500000221FFF747FF00200321052200F046F8F3
:1005100001200421052200F041F801204FF40021C0
:10052000FFF7B8FF01200121FFF790FFFFF780FFE1
:100530000194019842F20F71884207D842F210707C
:1005400001990131019101998142F9D3FFF70EFF21
:10055000FFF764FF022000F009F80C2000210022C0
:1005600002B0BDE8104000F013BA0000C10742F22B
:100570000441C4F2010103D00A6842F040020A605B
:10058000820703D50A6842F020020A60400758BF7C
:100590007047086840F080000860704780B5B1F18E
:1005A000120342F20C4C18BF0B460528C4F2010C92
:1005B0000DD8DCF828E000EB80001F2181402EEAF6
:1005C000010103FA00F00843CCF8280020E00B28D2
:1005D0000ED800EB8000DCF824E01E381F2181409B
:1005E0002EEA010103FA00F00843CCF824000FE0E2
:1005F0000F280DD800EB8000DCF820E03C381F21EC
:1006000081402EEA010103FA00F00843CCF82000F3
:10061000092B0CD8DCF8040003EB430107238B40C3
:10062000984302FA01F10843CCF8040080BD112B75
:1006300088BF80BD03EB4301DCF800001E390723AF
:100640008B40984302FA01F10843CCF8000080BDCA
:10065000002942F20441C4F2010106D0C20518D4B7
:1006600042051CD4800720D47047C20503D50A6810
:1006700022F480720A60420503D50A6822F480627F
:100680000A60800758BF7047486820F00200486041
:1006900070470A6842F480720A604205E2D50A682F
:1006A00042F480620A608007DED5486840F00200AC
:1006B0004860704740F20C00C2F200000168002957
:1006C00008BF70470168013901607047082100EBDD
:1006D0008000C4F2020151F8202042F0010241F8EA
:1006E00020207047082100EB8000C4F2020151F87D
:1006F000202042F0200241F820207047042200EB25
:100700008001C4F2020202EB81014B68800023F0F9
:1007100001034B6000234B608B60CB600B610F21AA
:10072000136801FA00F018431060704710B540F2EA
:10073000080E00EB8000C4F2020E5EF8203023F0B9
:1007400001034EF82030D1F800C00EEB8003C3F84F
:1007500008C0CA68DA600A8B5A605EF820204B68CD
:1007600022F47C5C0A69CC6943EA0C031A432243F5
:100770004EF820205EF820200B7A22F040020C7DFB
:10078000012B08BF40324EF820205EF82020012CBB
:1007900022F0800208BF80324EF82020497D5EF8AA
:1007A0002020002922F0100218BF10324EF820201D
:1007B00010BD00000021C0E900110172C0E906115E
:1007C000C0E9031181827047F0B5D0F820E0D0F87D
:1007D00024C000230F27002505E000BF0135082DA8
:1007E00003F104030CD022FA05F6F607F6D007FA57
:1007F00003F62EEA060601FA03F446EA040EEDE7D4
:10080000082300240F2504E00133102B04F1040415
:100810000CD022FA03F6F607F6D005FA04F62CEA15
:10082000060701FA04F647EA060CEDE7C0F820E0F7
:10083000C0F824C0F0BD000081627047816170473C
:1008400010B540F2165000F0CFF940F2115000F010
:10085000CBF940F2125000F0C7F941F20044C4F65F
:100860000004204601210022012300F01FF8204649
:1008700000210022012300F043F820460121FFF768
:10088000DBFF4FF0904001210022402300F00EF8E2
:100890004FF0904000210022402300F031F84FF04B
:1008A00090404021BDE81040FFF7C6BF2DE9F04160
:1008B000D0F800E0D0F80CC000244FF00308002668
:1008C00005E000BF0136102E04F1020412D023FA15
:1008D00006F7FF07F6D008FA04F72EEA070E01FA2A
:1008E00004F54EEA050E2CEA070702FA04F547EA7A
:1008F000050CE7E7C0F800E0C0F80CC0BDE8F081E7
:100900000129416814BF994319434160B0B5D0F83B
:1009100008C000214FF0030E002404E00134102C25
:1009200001F102010CD023FA04F5ED07F6D00EFA1E
:1009300001F52CEA050C02FA01F54CEA050CEDE78D
:10094000C0F808C0B0BD000080B500F07DF9FFF729
:1009500077FFFFF7B5FDFFF73DFCBDE8804000F0F5
:1009600009B80000FFF7F0FF4FF4FA7000F00EF83E
:10097000FEE7000080B500F04BF84FF090404021BA
:10098000FFF75CFFBDE8804000F0FCB800F0CAB89B
:100990004EF60C5CCEF2000CDCF8003003F4E063A1
:1009A000A3F54073B3F5A06F01D21B0A06E040F235
:1009B0000053C0F2FA53CCF80030022301FA03FCD2
:1009C000C3F104030F21D94011404EF2001241EA55
:1009D0000C01CEF20002090140EA020383F8001381
:1009E00000F01F01012303FA01F11C2303EAD000E8
:1009F000815070474FF68072C1F6FF721140084374
:100A00004EF60851CEF200010860BFF34F8F7047D9
:100A1000F0B589B040F2115000F0E6F840F2125003
:100A200000F0E2F840F2017000F0DEF84FF0904084
:100A3000012180220126FFF7C7FE40F20044C4F2E4
:100A4000000404F10065284601210222FFF7BCFEE4
:100A50004FF090400221002280230027FFF726FF5D
:100A60002846022100220223FFF720FF4FF090408A
:100A7000002103228023FFF743FF284600210322A1
:100A80000223FFF73DFF204600F064FA05AD28463B
:100A900000F03AFB4FF40010CDE9050740F2077073
:100AA0000790204629468DF8207000F0BBFA01AD72
:100AB000284600F049FA204601212A46CDE901677F
:100AC0000397ADF8107000F0EBF8204603212A469A
:100AD00000F0E6F820460121602200F0F5F92046FA
:100AE0000321602200F0F0F92046202100F004FBF1
:100AF000204600F0CFF820460121082200F008FA35
:100B000020460321082200F003FA2046012100229A
:100B100000F0F6F920460321002200F0F1F909B0B7
:100B2000F0BD0000B0B54FF6F901CFF6FF71884275
:100B300040F20772C8BF0146914240F20044A8BF8C
:100B400011460128C4F2000404DB8AB220460121C8
:100B5000012506E0B0F1FF3F0CDD20460121002217
:100B6000002500F0CDF9204603212A46BDE8B0401B
:100B700000F0C6B94D4220460121012200F0C0F923
:100B8000ADB2F0E740F20040C4F2000000F044BA19
:100B900041F20401C4F202010A68042822F440422E
:100BA0000A60CA6A22F48072CA6288BF7047DFE8AE
:100BB00000F003140C100800C86A20F48070C862AA
:100BC0007047086840F4404008E0086840F48040FE
:100BD00004E0086840F4004000E008680860C86A63
:100BE00040F48070C862704741F2000300F01F01BA
:100BF0008009C4F202034FF0010CC2580CFA01F153
:100C00001143C1507047000041F2000300F01F0182
:100C10008009C4F202034FF0010CC2580CFA01F132
:100C200022EA0101C150704741F2000300F01F01A8
:100C30008009C4F202034FF0010CC2580CFA01F112
:100C40001143C1507047000040F20000C2F20000A2
:100C5000006844F6D351C1F26201A0FB01014FF0DC
:100C6000FF3000EB9110B0F1807F11D24EF21001F5
:100C7000CEF2000148604EF62350CEF20000F02282
:100C80000270002207238A600B600270704700BF69
:100C9000FEE70000016841F080010160704700003C
:100CA000032900F20F81DFE801F002B8468D016AE6
:100CB00021F001010162816921F003018161116864
:100CC000036A19430162016A21F002010162D188BD
:100CD000036A0B43A0F18041A1F596314FEAB1219F
:100CE0000729036200F2EE80012303FA01F111F0FB
:100CF000E10F00F0E780016A21F0040101629188B0
:100D0000036A19430162016A21F008010162118935
:100D1000036A1943016250F8041F21F480710160D5
:100D20005189036819430160016821F40071016071
:100D300092890368C3E0016A42F6044C21F4807191
:100D40000162C169C4F2010C21F00301C1611168A3
:100D5000036A43EA01210162016A21F40071016220
:100D6000D388016A41EA0321ACF10403984201628D
:100D700040F0A880016A21F4806101629188036AD1
:100D800043EA01210162016A21F4006101621189D3
:100D9000036A43EA01210162DCF8000020F480507C
:100DA000CCF800005089DCF8001041EA0010CCF8C3
:100DB0000000DCF8000020F40050CCF8000090891E
:100DC000030126E0016A42F6044C21F480510162DD
:100DD000C169C4F2010C21F44071C1611168036A58
:100DE00043EA01310162016A21F400510162D388B2
:100DF000016A41EA0331ACF104039842016218BF71
:100E00007047DCF8000020F48040CCF800005089E6
:100E10008301DCF80020604651E0016A21F01001F6
:100E20000162816921F4407181611168036A43EABA
:100E300001110162016A21F020010162D188036A77
:100E400043EA011144F20003C4F201039842016233
:100E50002AD042F60041C4F20101884232D1016A2F
:100E600021F0400101629188036A43EA01110162A5
:100E7000016A21F0800101621189036A43EA0111CC
:100E8000016242F60440C4F20100016821F480616D
:100E900001605189036843EA81010160016821F41E
:100EA00000610160918908E044F20400C4F201008D
:100EB000016821F480610160518902688B0043EA76
:100EC0000201016070470000032988BF7047DFE816
:100ED00001F0020D050A50F8181F01E050F81C1F20
:100EE00021F0700107E050F81C1F01E050F8181FB6
:100EF00021F4E04112020160016811430160704772
:100F0000032988BF7047890089B20844426370474B
:100F1000032988BF7047DFE801F0020D050A50F889
:100F2000181F01E050F81C1F21F0080107E050F8DD
:100F30001C1F01E050F8181F21F40061120201602B
:100F4000016811430160704700218181C0E90011EF
:100F50008160704710B542F6FF31C4F2010188424A
:100F600011DC40F6FF71C4F20001884220DCB0F1D0
:100F7000804F3CD040F20041C4F20001884249D188
:100F800040F201443EE044F2FF31C4F201018842E4
:100F90001DDC42F60041C4F2010188422AD044F22D
:100FA0000001C4F20101884234D14FF4447429E0B5
:100FB00041F20001C4F2000188421ED042F2000159
:100FC000C4F20001884225D14FF481641AE044F252
:100FD0000041C4F20101884212D044F60001C4F27B
:100FE0000101884218BF10BD40F212340AE04FF4EC
:100FF000806407E040F20B3404E040F2044401E076
:1010000040F211342046FFF70FFE2046BDE81040A5
:10101000FFF7FABD10BD0000016841F00101016059
:10102000704700000A8842F6004CB0F1804FC4F2CD
:10103000010C826218BF60452ED1036823F0700353
:1010400003604B8802681A4302608A8803681A4367
:10105000026042F6FF338A68C4F201039842C2621A
:101060000ADD44F2FF32C4F2010290421BDC60450B
:1010700025D044F200021EE0B0F1804F1FD040F2B4
:101080000042C4F20002904219D042F20002C4F2BF
:101090000002904213D02AE040F20043C4F2000361
:1010A0009842CAD0D5E744F60002C4F20102904249
:1010B00005D044F20042C4F20102904217D1026806
:1010C00022F440720260CA8803681343A0F1804290
:1010D000A2F596324FEAB222072A036007D801230D
:1010E00003FA02F212F0E10F1CBF097B01634169B0
:1010F00041F0010141617047426822F07002426094
:10110000426811434160704700214FF6FF72C0E909
:10111000001182600173704702E008C8121F08C105
:10112000002AFAD170477047002001E001C1121F68
:10113000002AFBD170470000581100080000002071
:1011400008000000181100086011000808000020C5
:10115000080400002811000800A24A040000000052
:040000050800016985
:00000001FF
