:020000040800F2
:10000000F01A00207D010008BD050008B5050008B4
:10001000B905000819050008FD07000800000000E8
:10002000000000000000000000000000C5050008FE
:10003000B105000800000000C1050008C90500085E
:100040009701000897010008970100089701000830
:100050009701000897010008970100089701000820
:100060009701000897010008970100081D05000886
:100070009701000897010008970100089701000800
:10008000970100089701000800000000DD06000845
:1000900097010008970100089701000897010008E0
:1000A00097010008970100089701000897010008D0
:1000B0005D07000800000000970100080000000034
:1000C0009701000800000000970100089701000850
:1000D0009701000897010008970100080000000040
:1000E00000000000000000009701000897010008D0
:1000F0009701000897010008970100089701000880
:1001000097010008000000000000000097010008AF
:1001100000000000000000000000000000000000DF
:1001200000000000000000000000000000000000CF
:1001300000000000000000000000000000000000BF
:1001400000000000000000000000000000000000AF
:10015000000000000000000097010008970100085F
:100160009701000897010008DFF80CD000F0BCF9F7
:10017000004800473D1C0008F01A00200648804750
:1001800006480047FEE7FEE7FEE7FEE7FEE7FEE77C
:10019000FEE7FEE7FEE7FEE7CD050008690100087F
:1001A00040EA01039B0703D009E008C9121F08C0F9
:1001B000042AFAD203E011F8013B00F8013B521E79
:1001C000F9D27047D2B201E000F8012B491EFBD2F0
:1001D00070470022F6E710B513460A460446194652
:1001E000FFF7F0FF204610BDF0B480EA0102D40F03
:1001F0004200B2EB410F02D20246084611464A00C5
:1002000042D0C30DDDB2C1F3C752AD1A202D35DA8D
:10021000C1F3160141F4000204B15242C5F12006B7
:1002200002FA06F12A411044B3EBD05F23D0C4B1E7
:10023000012DA0EBC35009DCF0BC4FF0004202EAF4
:10024000C352DBB200F5000000F020B9400000F11D
:10025000807000EBC350A0F1807040EAD17049007B
:1002600009E0490841EAC071A0EBC35000F5000065
:10027000400800EBC350F0BC00F0FFB8614201221F
:1002800002EB4101001BF6E7F0BC704781F0004132
:10029000AAE780F00040A7E780EA010210B502F06B
:1002A0000043400022D04A001FD0010E01EB126132
:1002B000C0F35600C2F3560240F4000042F40002BC
:1002C000A0FB022000047F39140400D0401C50EA37
:1002D000124001D44000491EC2B20C0604EBD010FB
:1002E000401C4008802A02D003E0002010BD20F00E
:1002F0000100002900DA0020184310BD30B480EA64
:10030000010202F0004530F0004221F0004013D01D
:1003100090B1C30DD40DC2F31601C0F31600E41A58
:1003200041F4000140F400027D34914201D3641C89
:1003300000E04900002C02DA30BC002070474FF486
:1003400000000023914201D3891A034340084FEA79
:100350004101F7D151B1914202D14FF0004105E086
:1003600002D24FF0010101E06FF0010103EBC45034
:10037000284430BC00F081B8002801DBC0F1004007
:10038000002901DBC1F10041814201D80120704701
:1003900000207047002801DBC0F10040002901DB8C
:1003A000C1F10041814201D2012070470020704715
:1003B000002801DBC0F10040002901DBC1F1004150
:1003C000814201D30120704700207047002801DBE3
:1003D000C0F10040002901DBC1F10041814201D997
:1003E0000120704700207047002801DBC0F1004069
:1003F000002901DBC1F10041814201D10120704798
:1004000000207047C10F80EAE0700844CA079623B5
:10041000002100F03BB896230022114600F036B8C8
:1004200000F0004220F00040C10DC0F3160040F47F
:1004300000007F2901DA00207047962903DCC1F112
:100440009601C84001E096398840002AF4D0404225
:10045000704720F00040C10DC0F3160040F40000CA
:100460007F2901DA00207047962903DCC1F196014B
:10047000C84070479639884070470029A8BF704728
:10048000401C490008BF20F00100704710B4B0FACA
:1004900080FC00FA0CF050EA010404BF10BC704765
:1004A00049B1CCF1200421FA04F411FA0CF118BF7F
:1004B000012121430843A3EB0C01CB1D4FEA00614E
:1004C0004FEA102042BF002010BC704700EBC35021
:1004D00010440029A4BF10BC7047401C490008BF4D
:1004E00020F0010010BC70471CB509480090094875
:1004F00001900546009C06E0E06840F0010394E8A6
:10050000070098471034AC42F6D3FFF731FE0000E5
:10051000DC4C0008FC4C0008FEE7000080B503201E
:10052000022100F0C5FF002808BF80BD0320022182
:1005300000F0B4FF032000F019FF41F2E560C2F2C1
:1005400000000121017080BDB0B588B04FF4A060FB
:1005500002F0D8FD0020002500F038FF6C46204650
:1005600000F0C8FF42F24C40C4F2010000904FF48A
:100570008070019040F23000C2F2000003904FF40E
:10058000806004900120ADF81400022006904FF422
:1005900000500790002021468DF8085000F02EFFF3
:1005A000002000F007FF002000F0ECFE08B0B0BD16
:1005B00070470000FEE70000FEE700007047000003
:1005C000704700007047000000F0C4BE81B041F2E7
:1005D0000400C4F2020050F8041C41F0010140F88C
:1005E000041C00BF50F8041C8907FBD5016841F0CA
:1005F0008001016000210091009A4F2A06D800BFB7
:10060000009A01320092009A502AF9D3026842F00F
:1006100090020260009100994F2905D8009901319C
:10062000009100995029F9D301684FF6FF7221F02B
:100630000301016050F8041CCFF6F262114040F84B
:10064000041C01680C22C0F6FF0211400160016821
:100650004FF6FF72CFF2C07211400160016840F2A4
:10066000431321F440010160816A02F5003221F058
:100670000F018162C16A9943C162016B21F00101DE
:100680000163002141600168016001680160016847
:100690000160016811400160016841F0006141F4AE
:1006A0008021016050F8041C41F0807140F8041C66
:1006B00050F8041C8901FBD5016821F00301016099
:1006C000016841F00201016001680907FCD54FF0A3
:1006D0000060002101B002F077BB0000B0B542F22B
:1006E0000004C4F2000420460121012504F0AEF804
:1006F000002808BFB0BD2046012104F0A3F840F255
:100700003801C2F2000108684CF6CD4301300860A0
:10071000086841F23030C2F2000080F86A500A687E
:10072000CCF6CC435A4349F699134FEA7202C1F60C
:1007300099139A429CBF012280F86B200A6801221B
:1007400080F867200B68DB0708BF80F8682009681D
:10075000890704BF012180F86910B0BD10B544F2CB
:100760000044C4F20004204640F2037104F03EFA53
:1007700038B1204604F0FEF9204640F2037104F03F
:100780002BFA0521C0F20571204604F04DFA00282D
:1007900008BF10BD204604F0EDF941F22021C2F25D
:1007A00000010A6801320A6041F2E661C2F200010A
:1007B000097821B141F22C30C2F2000019E041F277
:1007C0002821C2F20001B1F80021B1F80231013252
:1007D000D2B29A4204D141F21C20C2F2000008E0D9
:1007E000B1F80031C85441F22420C2F20000A1F84F
:1007F000002101680131016010BD0000FEE700002A
:1008000042F20840C4F20100016841F008010160B1
:1008100001680907FCD4016841F00401016000BFD0
:1008200001684907FCD47047022814D0012818BF7A
:10083000704742F22C40C4F20100026822F47002B8
:1008400002604FF4700202EB0151026801F4700182
:1008500011430160704742F22C40C4F20100C268AB
:1008600022F44012C2604FF4401202EB0151C26800
:1008700001F440111143C1607047000042F2084189
:10088000C4F201010A68002822F4006218BF02F5D0
:1008900000620A607047000080B540F2093002F043
:1008A00051FC40F20930BDE8804002F03BBC000042
:1008B00042F20840C4F20100016841F48071016015
:1008C0007047000042F20840C4F201000168C90705
:1008D00018BF7047016841F00101016070470000D6
:1008E000002942F20841C4F2010104D0C20710D12C
:1008F000800714D47047C20703D00A6822F480121C
:100900000A60800758BF7047086820F400400860FC
:1009100070470A6842F480120A608007EAD50868C6
:1009200040F4004008607047012805D0022818BF35
:1009300070476FF4E04001E06FF4602042F208423B
:10094000C4F2010213681840106010680843106078
:100950007047000010B582B040F2115002F0D2FB97
:1009600040F2096002F0CEFB032002F007FB4FF0DB
:100970009040032100221823002400F07BFFFFF7A2
:100980008BFF0020FFF77AFF4FF48070012100F009
:100990008BF801200221FFF747FF002003210522E9
:1009A00000F028F801200421052200F023F801209E
:1009B0004FF40021FFF7B8FF01200121FFF790FF5E
:1009C000FFF780FF0194019842F20F71884207D827
:1009D00042F2107001990131019101998142F9D3DC
:1009E000FFF70EFFFFF7B0FD02B0BDE81040FFF7C4
:1009F0005FBF000080B5B1F1120342F20C4C18BF8A
:100A00000B460528C4F2010C0DD8DCF828E000EBF9
:100A100080001F2181402EEA010103FA00F0084303
:100A2000CCF8280020E00B280ED800EB8000DCF882
:100A300024E01E381F2181402EEA010103FA00F054
:100A40000843CCF824000FE00F280DD800EB8000FD
:100A5000DCF820E03C381F2181402EEA010103FA36
:100A600000F00843CCF82000092B0CD8DCF8040077
:100A700003EB430107238B40984302FA01F108433B
:100A8000CCF8040080BD112B88BF80BD03EB43016F
:100A9000DCF800001E3907238B40984302FA01F16D
:100AA0000843CCF8000080BD002942F20441C4F2A2
:100AB000010106D0C20518D442051CD4800720D4F9
:100AC0007047C20503D50A6822F480720A604205A5
:100AD00003D50A6822F480620A60800758BF704715
:100AE000486820F00200486070470A6842F480724B
:100AF0000A604205E2D50A6842F480620A60800713
:100B0000DED5486840F00200486070472DE9F04F9C
:100B100085B0D0E9037B80460E6858460021154613
:100B20000024FFF729FC60BB38460021FFF74EFC8C
:100B300038B341F26F21C3F683315846FFF7ACFB5F
:100B400041F2B859C2F2000999F8001041F2B25AC4
:100B500041F25044C2F2000AC2F200040490A9B16A
:100B600041F2B456D8F80850C2F20006316828465F
:100B7000FFF73AFC48BBD8F81C003560C8F82000E5
:100B80001FE0C8E9064605B0BDE8F08FD8F81800A8
:100B90004FF07E5120F00040C8F81C60FFF708FCC1
:100BA000002804BF2868C8F81800D8F8080041F2E7
:100BB000B451C2F2000108600120C8F8206089F831
:100BC000000000208AF8000020700397D8F8087011
:100BD000D8F81C4038462146FFF758FB002105464F
:100BE0004FF00009FFF7E4FB002625F0004A4CF621
:100BF000CD41CBF680760028C3F64C51504618BF45
:100C00004FF07E56FFF7D4FB80B941F2B250C2F2EA
:100C1000000041F2504180F800900120C2F2000132
:100C2000C8E90697087005B0BDE8F08FD8F81890AD
:100C300030464946CDE90154FFF72EFB002104461A
:100C4000FFF7B6FB68B948460021FFF795FB78BB74
:100C500004994846FFF71AFB00218146FFF7A8FBDD
:100C600033E0204621463546FFF716FB81465846BD
:100C70005946FFF7B9FA01464846FFF73FFB41F2F4
:100C8000B251C2F200010E78012E33D146F26661F4
:100C9000C3F68671FFF700FB01465046FFF796FB4F
:100CA000DDF8109041F2B251C2F2000168BB2FE0B2
:100CB00048460021FFF77CFB58B904984946FFF7E6
:100CC00093FA00218146FFF757FB002808BF4FF039
:100CD000000941F26F21C3F683314846C8F81890E5
:100CE000FFF7DAFA0299FFF77FFAC8F81C0005B09F
:100CF000BDE8F08F01465046FFF768FBDDF8109025
:100D000041F2B251C2F2000110B986F00100087040
:100D10000878039E0128204609D14946FFF72CFB9D
:100D2000A8B920464946FFF7B1FA044612E0314619
:100D3000FFF73EFB68B948462146FFF755FA3146B2
:100D40000446FFF719FB002808BF344602E00024E0
:100D500000E0344601980021FFF71CFB06462846B8
:100D60002146FFF799FA41F26F21C3F68331054618
:100D7000C8F81800FFF790FA0299FFF735FA3946DC
:100D8000C8F81C001EB9FFF7F7FA18B10EE0FFF71C
:100D90000FFB58B925F000404946C8F81C70FFF712
:100DA00007FB002804BF0020C8F8180005B0BDE804
:100DB000F08F0000C0E90621016241F2B850C2F292
:100DC00000000021017041F2B250C2F20000017037
:100DD00041F25040C2F20000017041F2BA50C2F23A
:100DE0000000017070470000F0B589B041F2E46086
:100DF000C2F200000026067041F2E560C2F2000077
:100E0000067040F2115002F07DF940F2117002F0CC
:100E100079F94FF0904001210422012700F0B8FC3D
:100E20004FF0904002210122042300F023FD4FF0F7
:100E3000904001210322042300F046FD44F20044C7
:100E4000C4F20004204603F09DFE44F24021C0F2AB
:100E50000F01204603F060FE2046002103F0F6FE5D
:100E60002046002103F01AFF2046002103F002FF74
:100E7000204603F0C3FE2046082103F007FF20466A
:100E8000042103F0EFFE204603F0A0FE4FF4A06023
:100E900002F038F9032000F099FA01AD284600F07D
:100EA00029FB04F12800CDE9010640F20110ADF85C
:100EB0001800032029468DF80C600596CDE90776C9
:100EC00000F09CFA032000F069FA0320022100F0F0
:100ED000D9FA0B200221002201F044FF2046802194
:100EE00003F06CFE09B0F0BDF0B581B028B30E463A
:100EF00019B344F200440546C4F20004002700BFC1
:100F0000204640F2077103F071FE0028F8D0E95D39
:100F1000204603F033FE0137B742F1D1204640F2BC
:100F2000067103F063FE0028F8D0204640F20671F7
:100F300001B0BDE8F04003F04FBE01B0F0BD0000CD
:100F400010B540F23C00C2F200000021017040F2F6
:100F5000115002F0D7F840F2157002F0D3F84FF0BC
:100F6000904004214FF4C06200F012FC4FF090401A
:100F7000022101224FF4C06300F07CFC4FF090404E
:100F8000012103224FF4C06300F09EFC45F20044AF
:100F9000C4F20004204600F037FD41F68021C0F283
:100FA00006012046002200F0BDFC20460021002260
:100FB000002300F0AFFD2046012100F0A9FC2046EF
:100FC00000F044FD204640F20A5100F045FD204665
:100FD0004FF4A16100F040FD204640F2095100F0BD
:100FE0003BFD204640F20B51BDE8104000F034BDFF
:100FF0002DE9F04F83B0002A00F0C7809A46002BFD
:1010000000F0C38045F20044C4F2000489464FEA70
:10101000400847F66016204640F20A519346CFF644
:10102000FE7600F019FD20464FF4A16100F014FD9A
:10103000204640F2095100F00FFD204640F20B51CE
:1010400000F00AFD354600BF204640F2016100F085
:1010500017FD012803D1002D05F10105F4D1012868
:1010600000F09C80204600F063FD354620464FF49A
:10107000A06100F005FD18B9002D05F10105F5D1BD
:10108000002800F08F805FFA88F8204641466FF014
:10109000010200F037FD00F0FBFC002800F0868024
:1010A0002046494600F0AEFC354600BF204640F2DF
:1010B000025100F0E5FC18B9002D05F10105F5D14C
:1010C000002877D0204600F033FD354620464FF407
:1010D000A06100F0D5FC18B9002D05F10105F5D18E
:1010E00000286BD0204641460122012500F00AFD70
:1010F00000F0CEFC002865D0BAF1000F1ED0AAF196
:1011000001080025A84503D12046002100F000FC7D
:10111000374600BF204640F2065100F0B1FC18B936
:10112000002F07F10107F5D1002852D0204600F02A
:1011300065FC0BF8050001355545E3D1204601213A
:1011400000F0E6FB204600F0F9FC304621688905F6
:1011500003D5002800F10100F8D1002935D4354627
:10116000204640F2016100F08BFC012803D1002DE4
:1011700005F10105F4D101460139B1FA81F14909BE
:1011800001380D4618BF01202AE040F23C01C2F2AE
:1011900000010020087003B0BDE8F08F002001219D
:1011A00001251DE000200125022119E00020012574
:1011B000032115E000200125042111E00020012574
:1011C00005210DE0002006210AE00020012508216C
:1011D00006E020460121012500F09AFB00200721AE
:1011E00040F23C02C2F20002002D117000F0A48017
:1011F0000546204600F0A2FC304600BF2168890564
:1012000003D5002800F10100F8D1204640F20A5130
:1012100000F022FC20464FF4A16100F01DFC2046A6
:1012200040F2095100F018FC204640F20B5100F04A
:1012300013FC00BF204640F2016100F021FC0128B0
:1012400003D1002E06F10106F4D1012873D1204606
:1012500000F0F6FB4FF09040012101224FF4C063F3
:1012600000F008FB4FF09040012103224FF4C063CF
:1012700000F02AFB4FF090404FF4C06100F0C2FA3A
:101280000026002704E000BF082F07F1010720D245
:101290004FF090404FF4007100F0B2FA02960298BD
:1012A000C72805D80298013002900298C828F9D3BF
:1012B0004FF090404FF4007100F0A4FA01960198AD
:1012C000C728E1D80198013001900198C828F9D3C6
:1012D000DAE74FF0904004214FF4C06200F058FA72
:1012E0004FF09040022101224FF4C06300F0C2FA97
:1012F0004FF09040012103224FF4C06300F0E4FA64
:101300002046012100F004FB204600F09FFB204610
:1013100040F20A5100F0A0FB20464FF4A16100F01A
:101320009BFB204640F2095100F096FB204640F21C
:101330000B5100F091FB284603B0BDE8F08F000090
:1013400040F23401C2F20001086000BF08680028C2
:10135000FCD1704740F23400C2F20000016800295D
:1013600008BF70470168013901607047082100EB30
:101370008000C4F2020151F8202022F0010241F85D
:1013800020207047082100EB8000C4F2020151F8D0
:10139000202042F0010241F820207047082100EB94
:1013A0008000C4F2020151F8202022F0200241F80E
:1013B00020207047082100EB8000C4F2020151F8A0
:1013C000202042F0200241F820207047042200EB48
:1013D0008001C4F2020202EB81014B68800023F01D
:1013E00001034B6000234B608B60CB600B610F21CE
:1013F000136801FA00F018431060704710B540F20E
:10140000080E00EB8000C4F2020E5EF8203023F0DC
:1014100001034EF82030D1F800C00EEB8003C3F872
:1014200008C0CA68DA600A8B5A605EF820204B68F0
:1014300022F47C5C0A69CC6943EA0C031A43224318
:101440004EF820205EF820200B7A22F040020C7D1E
:10145000012B08BF40324EF820205EF82020012CDE
:1014600022F0800208BF80324EF82020497D5EF8CD
:101470002020002922F0100218BF10324EF8202040
:1014800010BD0000082200EB8000C4F2020252F8F6
:101490002030194342F82010704700000422C4F2A3
:1014A00002028000136801FA00F0184310607047D0
:1014B00008294FF000021BD801238B4013F48A7FC8
:1014C00016D040F2000CC4F2020C820000EB800047
:1014D000DCF800304CEA800001FA02F280681A4021
:1014E00000EA010018BF0122002818BF01200240B5
:1014F000104670470021C0E900110172C0E90611D1
:10150000C0E9031181827047F0B581B040F230012B
:1015100072B6C2F2000108884C8862B6FEF77BFF03
:1015200043F23335C4F253052946FEF7B5FE4FF0BA
:101530006651FEF7B1FE41F23037C2F200070646AF
:1015400038602046FEF767FF2946FEF7A5FE4FF0FC
:101550006651FEF7A1FE396978603046FEF796FEC7
:101560000146FEF741FE00210446FEF713FF002866
:1015700018BF002400F0DAFF84F000410028D8BF33
:1015800001EAE07478680021C4F23811BC60FEF70B
:1015900083FE4FF07F51FEF7B1FEF86001B0F0BD61
:1015A000FFF7CEBC10B582B00DF1030236200B213F
:1015B0000523FFF71DFD18B19DF80300800601D437
:1015C000002424E09DF804109DF8050041F2303419
:1015D00061F30B20C2F200042083FEF71CFF002100
:1015E000C4F2B431E061FEF757FE4FF06651FEF7EA
:1015F00053FE40F6DB71C4F249016062FEF74CFE17
:101600000021C4F23431FEF779FE20620124204625
:1016100002F06EFA204602B010BD000042F2100047
:10162000C4F20200016841F08001016070470000CF
:1016300080B50121CFF6F17142F20C028446C4F26A
:1016400002024FF0020E0B461068C0070AD1106864
:10165000C0065ABF10680EEA50000320012804D0CB
:1016600007E000BF0120012803D1002B03F1010393
:10167000EAD1012808BF0420002818BF80BD5068A7
:10168000022340F002005060C2F808C0506840F0E9
:10169000400050601068C0070AD11068C0065ABFE9
:1016A000106803EA50000320012804D007E000BFBF
:1016B0000120012803D1002901F10101EAD151687B
:1016C000012821F0020108BF0420516080BD000004
:1016D00042F20400C4F20200C168090658BF704714
:1016E00040F22311C4F26751016048F6AB11CCF609
:1016F000EF5101607047000010B50122CFF6F17282
:1017000042F20C038446C4F202034FF0020E144668
:101710001868C0070AD11868C0065ABF18680EEAD0
:1017200050000320012804D007E000BF0120012859
:1017300003D1002C04F10104EAD1012808BF0420E0
:10174000002818BF10BD586840F001005860CCF860
:10175000001002211868C0070AD11868C0065ABFD5
:10176000186801EA50000320012804D007E000BFF8
:101770000120012803D1002A02F10102EAD15968AF
:10178000012821F0010108BF0420596010BD0000AC
:10179000F0B5D0F820E0D0F824C000230F270025B2
:1017A00005E000BF0135082D03F104030CD022FA37
:1017B00005F6F607F6D007FA03F62EEA060601FA52
:1017C00003F446EA040EEDE7082300240F2504E0A5
:1017D0000133102B04F104040CD022FA03F6F607AF
:1017E000F6D005FA04F62CEA060701FA04F647EAF1
:1017F000060CEDE7C0F820E0C0F824C0F0BD000002
:10180000816270478161704710B540F2165001F057
:1018100079FC40F2115001F075FC40F2125001F0D9
:1018200071FC41F20044C4F600042046012100226C
:10183000012300F01FF8204600210022012300F0C0
:1018400043F820460121FFF7DBFF4FF090400121D4
:101850000022402300F00EF84FF0904000210022BB
:10186000402300F031F84FF090404021BDE8104097
:10187000FFF7C6BF2DE9F041D0F800E0D0F80CC06A
:1018800000244FF00308002605E000BF0136102EAB
:1018900004F1020412D023FA06F7FF07F6D008FA83
:1018A00004F72EEA070E01FA04F54EEA050E2CEABB
:1018B000070702FA04F547EA050CE7E7C0F800E07D
:1018C000C0F80CC0BDE8F0810129416814BF9943FC
:1018D00019434160B0B5D0F808C000214FF0030EA5
:1018E000002404E00134102C01F102010CD023FA91
:1018F00004F5ED07F6D00EFA01F52CEA050C02FA14
:1019000001F54CEA050CEDE7C0F808C0B0BD0000D9
:101910000268012922F4806208BF02F58062026039
:1019200070470000F0B581B00446022017460D460E
:1019300001F050FB4DF68361C4F21B31A0FB011294
:10194000910C4AF2FF12C0F24A4290420A4688BF06
:101950004822636848F2A066C0F2010623F07F03C4
:10196000B54243EA0203636007D845F6C072C0F28D
:101970003B4290422BD3482131E041F68021C0F216
:1019800006018D4237D84FF49671514348F638120C
:10199000C0F24102A1FB0212511C2162E16919222D
:1019A00021F48041002F18BF01F5804108BF0322B8
:1019B000E161E1696A4341F40041B0FBF2F0E161A9
:1019C000E169020508BF41F00101084312E048F255
:1019D0007F42C0F21E0290428CBF0131022121627F
:1019E0006900B0FBF1F0042898BF0420E1696FF3AF
:1019F0001F300843E06101B0F0BD00000069C0B2D3
:101A0000704700000161704710B545F20041C4F213
:101A10000001884209D045F60001C4F20001884265
:101A200018BF10BD40F2164401E040F215442046B4
:101A300001F088FB2046BDE8104001F073BB0000B8
:101A4000016821F00101016070470000016841F068
:101A5000010101607047000040F20152914202D141
:101A600041698069704701F01F0289094FF0010C3C
:101A70000B580CFA02F223EA02020A5070470000E7
:101A80008A09105801F01F01C84000F0010070479A
:101A9000B0B547F6601545F20044CFF6FE75C4F2C6
:101AA000000400BF204640F20151FFF7E9FF18B9DA
:101AB000002D05F10105F5D110B3204640F20A5181
:101AC000FFF7DEFF0546204640F20151FFF7C4FF55
:101AD000012D1CBF0120B0BD204640F20A51FFF786
:101AE000BBFF20464FF4A161FFF7B6FF204640F24E
:101AF0000951FFF7B1FF204640F20B51FFF7ACFF51
:101B00000020B0BD21F00101023218BF0131016196
:101B100070470000D0F800C06FF39F232CF0020C38
:101B200041EA0C01016043EA020181607047000054
:101B3000016841F48071016070470000016841F460
:101B4000007101607047000080B502F0E9FBFFF70B
:101B50005BFEFEF7FFFE00F0F1FCFFF721FD00F059
:101B60005DFD02F003FC02F08DFEBDE8804000F058
:101B70005BB900002DE9F04704468868116BC4E9A1
:101B80000301FEF783FB824660616068276A666B2B
:101B90005146FEF781FB3946FEF726FB07462062D9
:101BA00030460021FEF7E8FB90B93846314686F012
:101BB0000048FEF70BFC814638464146FEF7EAFB3B
:101BC000002818BF4746B9F1000F18BF37462762F3
:101BD000A1692668A768256A5046FEF757FB0146AB
:101BE0003846FEF759FB074630465146FEF754FB90
:101BF0002946FEF7F9FA01463846FEF7F5FAA76BD3
:101C00000646606238460021FEF7B6FB90B93046C2
:101C1000394687F00045FEF7D9FB80463046294615
:101C2000FEF7B8FB002818BF2E46B8F1000F18BF0A
:101C30003E466662C4F818A0BDE8F087FFF784FF4F
:101C400041F2303440F24005C2F200040026C2F2F4
:101C500000050AE001F016FD002808BF00F0EAFFC9
:101C6000204600F04BF902F045FE02F043FE01F081
:101C7000D3FD94F86A0028B184F86A60FFF744FC49
:101C800002F038FE94F86B000028E3D084F86B6013
:101C9000FFF788FC02F02EFE94F867000028D9D0E8
:101CA0002846214684F8676001F088FBD2E70000EF
:101CB0002DE9F04381B040F20407C2F200077878C2
:101CC00002283ED0012804D00028786901B0BDE880
:101CD000F08341F2DD68C2F2000898F8001041F28A
:101CE000E0690029F968C2F200094FF07E507C6873
:101CF000D9F800501CBF0020CBF68070FEF7CCFA5C
:101D00002946FEF771FA21460546C9F80000FEF79C
:101D10004FFB264628B9BE6828463146FEF756FBDB
:101D200050B928462146FEF743FB002818BF012082
:101D3000C9F8006088F80000D9F8000001B0BDE8DB
:101D4000F08341F2C465C2F20005F8682968FEF725
:101D50004BFA40F6DB71C4F2490104462860FEF7F5
:101D60000BFB88B940F6DB7540F6DB76CCF2C90593
:101D7000C4F2490620462946FEF736FA31460446A3
:101D8000FEF724FB0028F5D140F6DB71CCF24901C7
:101D90002046FEF70DFB88B940F6DB7540F6DB7692
:101DA000C4F2C905CCF2490620462946FEF71CFAC2
:101DB00031460446FEF7EEFA0028F5D184F00041E2
:101DC0002046FEF769FA48F68901C3F60841054640
:101DD000FEF762FA4AF6AB21C3F62A61FEF704FA6F
:101DE00001462846FEF758FA4FF07E51FEF7FCF9FF
:101DF00001462046FEF750FA4FF07C51FEF74CFAB0
:101E00004FF07C51FEF7F0F9D7E90114054608467A
:101E10002146FEF73BFA2946FEF73EFA2146FEF739
:101E2000E3F901B0BDE8F08370B540F20404C2F2FA
:101E30000004A06841F2E061C2F20001086041F2D2
:101E4000DD60C2F200000021017041F2C460C2F204
:101E5000000041F2B9560160C2F2000640F22A00C9
:101E60003170C2F20000FF21017040F22B00C2F27B
:101E70000000017040F23800C2F2000000682278D1
:101E800041F22C5141F23035C2F20001022AC2F275
:101E90000005086005D195F8640000281CBF286B78
:101EA0006061FFF705FF2178A061022910D00129A8
:101EB00007D0002918BF70BD012185F84010686463
:101EC00070BD226A022185F84010C5E9130270BD79
:101ED000032085F8400095F86400D4E90712C5E9AD
:101EE000131238B10120296BAA6B307005F1400044
:101EF000FEF760FFA069A86470BD00002DE9F04FF7
:101F000081B00546044615F8400F03281AD0022870
:101F10000FD0012840F02181606CFEF781FA41F278
:101F2000B051C2F20001088001B0BDE8F04F00F0EE
:101F3000F5BF94F86800002800F00F81284601F0F2
:101F400011F9FCE000F0A2FA94F86900002800F012
:101F5000F380274657F8301FB869FEF797F9814696
:101F600000F05CF9C8B141F2BA50C2F2000000269C
:101F7000067041F2BB50C2F20000067004F1380254
:101F800028463946FEF7C2FDA06C04F1F002216B31
:101F900082E803024FF48470CAE041F25040C2F27A
:101FA00000000078012650BB29F0004840464FF061
:101FB0007E51FEF7E1F910BBA06CE16DFEF766F90A
:101FC00041F2B851C2F200010978012908D120F08C
:101FD00000404FF07E51FEF7CFF908B101260EE028
:101FE00041F2BA50C2F20000007801280CD1002161
:101FF000C3F6A0714046FEF7BFF928B9002641F2AA
:10200000BA50C2F20000067041F2BB5B41F2BA5A0C
:10201000C2F2000BC2F2000A9BF800009AF80060BE
:1020200040B33EBB206B4FF00008C4E9170041F2FB
:10203000B850C2F2000080F8008041F2B250C2F203
:102040000000A16D80F8008041F25040C2F2000013
:1020500080F8008021F000404FF07E518AF8008027
:10206000FEF7A6F9002804BFA06BA065C4F8FC80A9
:10207000C4E94188002E8BF8006050D104F1380289
:1020800028463946FEF742FDA76C216B3846009181
:10209000FEF7FCF841F25041C2F2000191F800B0A5
:1020A0004FF00108BBF1000F29D120F00046304667
:1020B0004FF07E51FEF760F908BBE16D3846FEF740
:1020C000E5F841F2B851C2F200010978012909D1BD
:1020D00020F000404FF07E51FEF74EF910B14FF066
:1020E00001080CE09AF8000001280AD10021C3F68B
:1020F000A0713046FEF740F918B94FF000088AF891
:1021000000809AF8000040EA0B00C00728D041F296
:10211000BB510120C2F200018AF80000087004F1EE
:10212000E40029462246FFF725FDD4F8086158202F
:102130002650002084F8690094F8680068B104F122
:10214000A80004F1580104F1380201F0B7F8204664
:1021500000F0D2FA002084F8680001B0BDE8F08FEA
:1021600000980026C4F8F070C4E93D0912E70000A9
:1021700080B541F2B050C2F200000021018041F26E
:10218000CC60C2F20000016041F2D460C2F20000F3
:10219000017041F2D060C2F20000016041F2D860EB
:1021A000C2F20000016041F2DC60C2F20000017086
:1021B000002000F0B3FE4FF090404021BDE8804089
:1021C000FFF71EBB4FF090404021FFF71BBB000004
:1021D00041F21850C2F200000021017041F2C860C3
:1021E000C2F20000017041F2C960C2F20000017049
:1021F00041F22850C2F20000016041F22450C2F2C4
:102200000000016041F22050C2F20000017041F272
:10221000E860C2F2000001607047000041F218500F
:10222000C2F20000007870472DE9F04F81B00090B5
:1022300040F23800C2F20000D0F800B041F2205065
:10224000C2F200000C4690F800A041F2285041F282
:102250002451C2F20000C2F200010068554609682C
:10226000BAF1000F18BFABEB000520469146FEF710
:102270000DF820F0004600210746C4F2C811304690
:10228000FEF77AF841F21858C2F2000848B941F254
:10229000C8600021C2F2000088F80010017001201F
:1022A00026E02846002D18BF012000EA0A00012878
:1022B00040F09480642D00F291804CF6CD41C3F63D
:1022C0004C513046FEF766F8002840F08780002128
:1022D000C4F220113046FEF779F800287ED141F291
:1022E000C860C2F2000001780131017000210020B5
:1022F00041F2C962C2F20002117098F80010B9B13F
:1023000041F2C961C2F200010A78012A4FF00002CD
:1023100088BF0122104001284FF0000012D141F285
:10232000C862C2F2000288F800001070087009E06C
:1023300041F2C860C2F200000078042824BF0120E6
:1023400088F8000098F800600098012E846040F042
:102350008580681E40F2CE71002288428AF001001A
:1023600041F2E86888BF01221043C2F2000849D157
:102370002846FEF750F841F26F21C3F68321FDF79E
:102380008BFF01463846FDF7B9FF0021C4F2F0216A
:102390000546FEF71BF840F20009CCF2F0290028B0
:1023A0001CBF0025C4F2F02528464946FEF70EF86A
:1023B000D8F80070002808BF4D4628463946FDF77A
:1023C00065FF43F23331C3F6B361FDF765FF39466C
:1023D000FDF70AFF8146C8F800901DE0BAF1000F32
:1023E00051D098F8001041F2C860C2F200000022FB
:1023F0000129027047D141F2C960C2F200000078A1
:10240000411C4CE729F000404FF07E51FDF7B4FF2E
:10241000002808BFC8F80090D8F8000046F26661AE
:1024200020F00040C3F6A671FDF736FF0021C4F28C
:10243000A0010546FDF7AEFF002100281CBF0025C6
:10244000C4F2A005C4F2F0212846FDF7BFFF002822
:102450001CBF0025C4F2F0250098C56041F224504D
:10246000C2F20000046041F2285041F22052C2F250
:1024700000000121C2F20002C0F800B03046117025
:1024800001B0BDE8F08F012037E7000041F218509D
:10249000C2F200000178012920D141F22051C2F29C
:1024A00000010978D1B140F2380141F22852C2F25C
:1024B0000001C2F2000209681268891AB1F5C87FEA
:1024C00098BF70470021017041F2C860C2F200005D
:1024D000017041F2C960C2F2000001707047000053
:1024E00041F21850C2F200000021017041F2C860B0
:1024F000C2F20000017041F2C960C2F20000017036
:1025000041F22850C2F20000016041F22450C2F2B0
:102510000000016041F22050C2F20000017041F25F
:10252000E860C2F2000001607047000041F2B05064
:10253000C2F20000B0F9000070470000B0B541F2EF
:10254000B050C2F200000021018041F2CC60C2F222
:102550000000016041F2D460C2F20000017041F25B
:10256000D060C2F20000016041F2D860C2F2000007
:10257000016041F2DC60C2F20000017041F2BA5029
:10258000C2F20000017041F2BB50C2F200000170C3
:1025900041F2B250C2F20000017041F25040C2F26A
:1025A00000000170FFF714FE00F030FC4FF0904087
:1025B0004021FFF727F941F23035C2F2000505F15D
:1025C000A80400214CF6CD42C4F24001C3F6CC521F
:1025D0002046002300F006FC4CF200020021C4F269
:1025E0005A52C4F234412046134600F00BFC05F168
:1025F000E40400214CF6CD43C4F2A001C3F64C53D1
:102600002046002200F0EEFB0023C4F27023204697
:1026100000210022BDE8B04000F0F4BBB0B541F2AB
:102620003034C2F2000400204FF4FA7584F86400DC
:10263000FEF7B8FF30B90120FEF782FE013D08BF6A
:10264000B0BDF5E740F24005C2F20005284621463C
:1026500000F004FE2846214600F0B0FE216BA26B7C
:102660000020C4E91210C4E91621216641F2B851D4
:10267000C2F20001087041F2B251C2F2000141F20F
:10268000CC62087041F25041C2F20002C2F2000175
:10269000106041F2D462087041F2BA51C2F20002F5
:1026A000C2F20001107040F238020870C4F8040150
:1026B000C4E93E00C4F8C800C4F8C000C2F2000279
:1026C000126841F2D063C2F200031A6041F2D8628C
:1026D000C2F20002106041F2DC62C2F2000210702D
:1026E00041F2BB500125C2F200000D700570FFF7EA
:1026F000F7FE84F86450B0BD2DE9F04F87B090F834
:10270000401041F2BA528346D0F8CC000339C2F2ED
:102710000002B1FA81F116784F09FDF781FEDBF86E
:102720005840DBF83890049000F0B8FF41F2D861CF
:10273000C2F2000109688246039141F2D461C2F2FB
:1027400000010978204606914FF08041FDF730FEE8
:10275000054620464FF040410594FDF70DFE8046AA
:10276000002840F2380018BF4FF0FF38C2F20000D6
:10277000002D18BF4FF001080468374252D1BAF15A
:10278000000F4FD0CDF804A041F2D060059EC2F2F8
:102790000000076829F00040009030464FF04041AB
:1027A00026F0004AFDF7E8FD054630464FF080412F
:1027B000FDF7FEFD284318BF01200290069800286F
:1027C00041F2DC60C2F2000000F0968030464946DB
:1027D000E71BFDF761FD00210025FDF7F7FD04462D
:1027E000002818BF012400210098C4F24011FDF711
:1027F000DFFD002818BF01202040132F4FF00001FB
:1028000041F2D46488BF01210842C2F2000440F0C2
:10281000C38050464FF08041FDF7CAFD002808BF35
:102820002570BAE041F2CC6AC2F2000ADAF8004040
:1028300041F2D4610020C2F200010870204600215C
:10284000FDF7D2FDB0FA80F0069940090840012852
:1028500031D1DBF8C810DBF8DC602046FDF7C4FCA2
:102860000546CBF8C800304600210027FDF784FD5F
:1028700098B92846314686F00049FDF7A7FD069035
:1028800028464946FDF786FD002818BF4D460698A4
:10289000002818BF3546CBF8C8500498CAF8007015
:1028A000FDF7B0FD01462046FDF79EFCFDF7B8FDA3
:1028B0000246059801E0DDE9042041F2D861C2F248
:1028C0000001086041F2DC6040F6AC51C2F2000049
:1028D0008A4280F8008004DD4CF20004C4F25A54AD
:1028E0004BE14FF25420CFF6FF708242C8BF104632
:1028F000FDF788FD044640E100785FFA88F1002882
:10290000054618BF0125B0EB010918BF4FF00109BA
:1029100003984FF0804120F00040FDF73BFD044656
:10292000002850464FF0804118BF0124FDF740FDBC
:10293000002818BF0120DDF800A0002104EA0007EC
:10294000C4F2A0015046FDF717FD002104460028FF
:10295000C4F24011504618BF0124FDF70DFD0028B8
:1029600018BF0120274201BF0299294001EA09014D
:1029700010EA010041F2D464C2F200040DD001203B
:10298000207040F23800C2F20000006841F2D061CD
:10299000C2F20001086000E02570DDF8149094F8A0
:1029A00000A048460021FDF7F5FC04460198FDF71C
:1029B00032FD0646002C18BF86F00046BAF1000F23
:1029C00008BF564606998AF00100084041F2CC67DC
:1029D0000128C2F200073CD13C6800212046FDF7E7
:1029E00003FDB0BBDBF8C810DBF8DC902046FDF738
:1029F000FBFB0546CBF8C800484600210027FDF741
:102A0000BBFCA0B92846494689F00047FDF7DEFC2B
:102A1000039028463946FDF7BDFC002818BF3D4607
:102A200003980027002818BF4D46CBF8C85041F244
:102A3000CC60C2F20000076007460498FDF7E2FC94
:102A400001462046FDF7D0FBFDF7EAFC0490DDF8D7
:102A5000149006982AEA000001283BD1DBF8C84010
:102A600030460021FDF788FCDDF810A020B9204693
:102A70000021FDF78FFC48B930460021FDF798FC96
:102A800030BB20460021FDF777FC08BB26F000454F
:102A900020462946FDF79AFC48B905F10049204631
:102AA0004946FDF785FC2546002808BF4D462046CF
:102AB0002946FDF7EBFBCBF8C8005046FDF7A2FC1A
:102AC0002946FDF7E3FBFDF7ABFCDDF814908246E9
:102AD0003E6001E0DDF810A03C680121C4F2401125
:102AE0002046FDF781FB054630462946FDF76EFC82
:102AF0000121BB460746CCF240112046FDF774FB8E
:102B0000044630462146FDF745FC002818BF2646FE
:102B1000002F18BF2E460298CBF80060002841F223
:102B2000D860C2F20000C0F800901EBF41F2DC6025
:102B3000C2F2000080F800805046FDF763FCDBF82D
:102B40000010024608461146FDF74EFB4CF2000409
:102B5000C4F25A5421460546FDF738FC68B94CF2D8
:102B60000001CCF25A512846FDF722FC2C460028E1
:102B700004BF4CF20004CCF25A542046FDF750FC3E
:102B800041F2B051C2F20001088007B0BDE8F04F39
:102B900000F0C4B9B0B5016B826B04460020C4E9F3
:102BA0001210C4E91621216641F2B851C2F20001A7
:102BB000087041F2B251C2F2000141F2CC620870D9
:102BC00041F25041C2F20002C2F20001106041F233
:102BD000D462087041F2BA51C2F20002C2F200019E
:102BE000107040F238020870C4F80401C4E93E00D5
:102BF000C4F8C800C4F8C000C2F20002126841F272
:102C0000D063C2F200031A6041F2D862C2F200023D
:102C1000106041F2DC62C2F20002107041F2BB505F
:102C20000125C2F200000D700570FFF759FC84F811
:102C30006450B0BD2DE9F04140F20405C2F2000538
:102C40002C6940F23800C2F20000066820460021DC
:102C5000FDF7BCFB002808BF4FF07E542046FDF76F
:102C6000F8FB41F22C51C2F200010A68B21A82420A
:102C700001D2BDE8F08140F22A07C2F200072878AD
:102C80003A780E6041F2303441F2B95840F22B06E6
:102C90009042C2F20004C2F20008C2F2000603D160
:102CA00069783278914229D0A96841F2E062C2F293
:102CB0000002116041F2DD61C2F20001002294F8CD
:102CC00064300A7041F2C461C2F200010A6088F8FF
:102CD00000207BB1022807D001280BD1A16B04F1A1
:102CE000400000F0B9FA05E0216BA26B04F140004E
:102CF000FEF760F82878697838703170FEF7D8FFF1
:102D00002978A861022913D0012909D0002918BF08
:102D1000BDE8F081012184F840106064BDE8F081D5
:102D20002A6A022184F84010C4E91302BDE8F08148
:102D3000032084F8400098F80000D5E90712C4E9A0
:102D4000131258B994F8640040B10120216BA26BB2
:102D500088F8000004F14000FEF72CF8A869A06490
:102D6000BDE8F0814EF60C5CCEF2000CDCF80030D1
:102D700003F4E063A3F54073B3F5A06F01D21B0A1F
:102D800006E040F20053C0F2FA53CCF800300223C0
:102D900001FA03FCC3F104030F21D94011404EF2A4
:102DA000001241EA0C01CEF20002090140EA0203DE
:102DB00083F8001300F01F01012303FA01F11C2323
:102DC00003EAD000815070474FF68072C1F6FF725F
:102DD000114008434EF60851CEF200010860BFF3DF
:102DE0004F8F70474FF0000CC0E908CCC0E90CCC05
:102DF000C0F838C080E80E10C0E904CCC0F818C094
:102E00007047000030300EC070470000F0B589B048
:102E100040F2115000F076F940F2125000F072F9D1
:102E200040F2017000F06EF94FF0904001218022D5
:102E30000126FEF7ADFC40F20044C4F2000404F1A8
:102E40000065284601210222FEF7A2FC4FF09040C7
:102E50000221002280230027FEF70CFD28460221D4
:102E600000220223FEF706FD4FF0904000210322CE
:102E70008023FEF729FD2846002103220223FEF7C6
:102E800023FD204601F008FC05AD284601F0F2FCC8
:102E900040F60F60079020462946CDE905778DF86A
:102EA000207001F061FC01AD284601F0EFFB2046E7
:102EB00001212A46CDE901670397ADF8107001F0B2
:102EC00091FA204603212A4601F08CFA204601217E
:102ED000602201F09BFB20460321602201F096FB5B
:102EE00020460121002201F0B5FB204603210022EB
:102EF00001F0B0FB20460121002201F0A3FB204697
:102F00000321002201F09EFB2046202101F0AAFCB3
:102F1000204601F023FC09B0F0BD0000B0B54FF22F
:102F2000F115CFF6FF75A84240F60F61C8BF054600
:102F30008D4240F20044A8BF0D460128C4F20004AF
:102F400006DB20460121012201F07CFBADB20EE040
:102F5000B0F1FF3F04DD204601210022002504E0FE
:102F6000684282B220460121012501F06BFB204618
:102F700003212A46BDE8B04001F064BB41F20401E0
:102F8000C4F202010A68042822F440420A60CA6AB4
:102F900022F48072CA6288BF7047DFE800F0031431
:102FA0000C100800C86A20F48070C8627047086876
:102FB00040F4404008E0086840F4804004E00868BD
:102FC00040F4004000E008680860C86A40F480707F
:102FD000C862704770B541F20402C4F202020146B1
:102FE000106841F2002CC0F27A0C00F00C000828A6
:102FF000634619D11068136816681B014FF011035E
:10300000C0F3834058BF0223F603184405D440F6AA
:103010000013C0F23D03434306E0936A03F00F033D
:103020000133BCFBF3F34343106832A6C0F3031033
:10303000305C166844F6D245C6F30226C0F6000599
:1030400015F806E01668062919D823FA00F4C6F325
:10305000C220285C24FA00F0DFE801F004130E37E8
:1030600006151D00184670BDD16AC9052ED449F653
:103070008070C0F2D50070BD24FA0EF070BD002043
:1030800070BD204670BDD06A40064FF4004058BF66
:1030900048F2120070BDD16A890708BF70BDD06ABE
:1030A00000F00300012818460FD0D06A00F003009A
:1030B000022804BF4FF4004070BDD06A00F0030046
:1030C000032818BF4FF0000C604670BD1168C1F3B3
:1030D0008131DFE801F0020D040B400870BD4AF6B3
:1030E000AB21C2F6AA21A0FB011070BDC00870BDC3
:1030F000800870BD00000000000000000102030411
:103100000607080941F2000300F01F018009C4F21C
:1031100002034FF0010CC2580CFA01F11143C150E7
:103120007047000041F2000300F01F018009C4F263
:1031300002034FF0010CC2580CFA01F122EA01011E
:10314000C150704741F2000300F01F018009C4F232
:1031500002034FF0010CC2580CFA01F11143C150A7
:10316000704700002DE9F041D0E903570446866915
:1031700038460021FDF700F940BB30460021FDF73D
:10318000FBF820B928460021FDF704F948B930467C
:103190000021FDF70DF9C8BB28460021FDF7ECF82A
:1031A000A0BB30460021FDF7E7F890B941F26F214E
:1031B000CBF683213846FDF76FF801463046FDF720
:1031C00013F800210546FDF7F3F8D8B1A561BDE875
:1031D000F08130460021FDF7EBF800281CBFA66106
:1031E000BDE8F08141F26F21C3F683213846FDF737
:1031F00053F83146FCF7F8FF00210546FDF7BCF80F
:103200000028E3D10025A561BDE8F08128463146BC
:10321000FDF73CF841F26F218046C3F68321384622
:10322000FDF73AF8074640463946FDF7A5F820B9BC
:1032300030463946FCF7D8FF0AE087F000414046A7
:10324000FDF7B6F80028C1D130463946FDF71EF823
:103250000546A561BDE8F0818161704770B50D46F6
:10326000098B0446818001600846FDF7D4F80021EF
:10327000C4F2B431FDF710F84FF06651FDF70CF8C9
:103280002863002604F11C008A212683C4E9026613
:10329000C4E90466FCF79DFF286B40F23802A06089
:1032A00040F201102083C2F20002296B1268E16132
:1032B0002266A4F8A40084F8A66070BD2DE9F0474A
:1032C000076B04460D68384600219046FDF754F818
:1032D00088B92846394687F00046FDF777F88146D9
:1032E00028463146FDF756F8002818BF3546B9F193
:1032F000000F18BF3D46E560D8F800102846216150
:10330000FCF7C4FF824660616068276A666B5146BD
:10331000FCF7C2FF3946FCF767FF074620623046DC
:103320000021FDF729F890B93846314686F000486B
:10333000FDF74CF8814638464146FDF72BF800284A
:1033400018BF4746B9F1000F18BF37462762A16979
:103350002668A768256A5046FCF798FF014638465C
:10336000FCF79AFF074630465146FCF795FF294681
:10337000FCF73AFF01463846FCF736FFA76B0646D6
:10338000606238460021FCF7F7FF90B930463946B5
:1033900087F00045FDF71AF8804630462946FCF7CD
:1033A000F9FF002818BF2E46B8F1000F18BF3E469F
:1033B0006662C4F818A0BDE8F08700002DE9F0416E
:1033C00005468846088BA988411A0A4611F5006F00
:1033D000B8BF02F58052B1F5006FC8BFA1F58052A9
:1033E0002968A88050182860FDF70CF80021C4F265
:1033F000B431FCF751FF4FF06651FCF74DFF297EC9
:10340000C8F8300005EB810290600131687E01F060
:103410000301032829769CBF013068766C7E54B185
:103420002F1D0020264600BF57F8041FFCF7DCFEC6
:10343000013EF9D100E0002007462046FCF7EBFFF3
:1034400001463846FCF75AFF40F23801C2F200014B
:10345000096895F8A43005F11C0646F8230005F12B
:10346000600040F82310591C4FF471634B431B0C50
:1034700095F8A52003EB0313C91A102A85F8A410A8
:103480009CBF013285F8A52095F8A620F2B195F8E9
:10349000A520112A18D301F1100293B24FF2F107BF
:1034A0007B431B0D03EB0313D21A95B2CAB2F1236F
:1034B0005A43120B42EA02128A1AD4B250F825106B
:1034C00050F8240081420BD1002523E0012085F82B
:1034D000A6000020C8F83C00C8E90D00BDE8F08156
:1034E000081AFCF798FF0021C4F27A41FCF706FFA6
:1034F00056F8252056F8241005461046FCF7C6FE5F
:103500002946FCF7FBFE49F69A11C3F69961FCF7D0
:10351000C3FE0546D8F8380043F23331C3F63371A1
:10352000FCF7BAFE2946FCF75FFE40F6DB71C4F2F9
:1035300049010546C8F83800FCF7AEFE0021C4F288
:103540003431FCF7DBFE0021C8F83C00C4F2B43192
:103550002846FCF7D3FE4FF08B41FCF79DFEC8F8E0
:103560003400BDE8F0810000411F0020232938BF4E
:10357000012070474FF6004341F2D44C0022C0F6C0
:103580000003C2F2000C00BF53F822104CF82210C6
:103590000132102AF8D19CF80010552918BF704745
:1035A0009CF80110AA2905D105300CF10201232253
:1035B000FCF7F6BD7047000070B541F2D445C2F289
:1035C00000054AF655212A4622F8021B4FF6004410
:1035D000411D10462322C0F60004FCF7E1FDFEF772
:1035E00077F82046FEF724F8002600BFA9593019C5
:1035F000FEF782F80436402EF8D1BDE87040FEF7A1
:103600000DB80000B0B541F222550446C2F20005E3
:1036100000202870FDF7C6FF80B341F2303041F240
:103620003051C2F20000C2F20001008B91F8372045
:10363000201AA1F81F002AB941F23050C2F200004E
:10364000FFF7BAFF40F22800C2F200004FF6FF7108
:10365000018041F21C50C2F200000021016041F2E1
:103660002150C2F20000017041F23030C2F200007D
:10367000FFF790FABDE8B04000F014B901202870BF
:10368000B0BD000041F25140C2F200000078704726
:1036900041F22250C2F200000078704741F23050EF
:1036A000C2F20000008B704741F23050C2F20000BD
:1036B000C079704741F23050C2F200004079704743
:1036C0002DE9F04141F23054C2F20004204680213D
:1036D000FCF77FFD40F60320C0F6001020600320B9
:1036E000254605F8040F2046FFF744FF222000BFBF
:1036F00015F8011F19B90028A0F10100F8D129B16E
:10370000E079002804BF0720E07121E00120C0F229
:103710000710C4F805000020C0F6FF70C4F80900C7
:1037200048F64640CEF62800C4F80D00032040F2CB
:1037300005516074C9F2006184F825000A20C4F8BC
:103740001510002184F8270020466176FFF734FF2A
:1037500041F22251C2F20001002246F201400A70F9
:1037600041F25141C0F60000C2F20001A0624FF0E8
:103770007A700A7040F22C01C4F82E000120C2F2C7
:10378000000184F83700087041F21450C2F20000C2
:10379000026040F22800C2F200004FF6FF71018083
:1037A00041F21C50C2F20000026041F22150C2F20C
:1037B00000000270607DA57DE67D94F82580FCF711
:1037C0002AFE41F23037C2F20007C7F8E40028466B
:1037D000FCF721FE4DF20A75C3F623452946FCF796
:1037E0005BFDC7F8EC003046FCF715FEC7F8E800B3
:1037F0004046FCF710FE94F82710C7F8A8000846CA
:10380000FCF709FE2946FCF747FDC7F8AC00BDE808
:10381000F04100F047B8000040F2380041F2145186
:10382000C2F20000C2F2000100680A68821A322A5D
:103830002CBF0860704700F035B8000041F2225CF0
:10384000C2F2000C002300298CF8003018BF002AB7
:1038500001D1184670471318802B04D901208CF829
:10386000000000207047002A04BF10467047B0B522
:1038700041F2305CC2F1000E4FF0FF33C2F2000C97
:103880005C1C2518EDB21CF805500B445D700EEB66
:10389000040301332346F3D11346BDE8B040184674
:1038A000704700002DE9F04F81B041F2303841F20D
:1038B0003059C2F20008C2F20009B8F81800B9F98C
:1038C0001F1040F6FF760F1827EAE770C01B00F6BE
:1038D000FF70B043384440F6FF71B0F5805FA8BF79
:1038E000014601F47041D8F83850A0EB010B0021DB
:1038F00025F00040C3F6B451FCF700FD4FF600611F
:10390000C4F2FF610446FCF761FD00281CBF4FF6BE
:103910000064C4F2FF642046FCF782FD044628469A
:1039200000210025FCF736FD48F20001CFF6FF71BB
:10393000002818BF0C43FEF7F9FD421E01B2002912
:1039400010B248BF49424FF47A7251434BF23F42A2
:10395000C0F24622A1FB0212510940F2FF3A514542
:1039600038BF4FEA521A002858BF4AF4806A4FEA1B
:103970001B20D8F8301089F8390089F83A40200A1D
:10398000D8F848400091002189F83870D8E9027BC6
:1039900089F83B002046C3F6B451FCF7AFFC4FF06A
:1039A0007C51FCF721FCFCF73BFD20EAE071091A91
:1039B00001F6FF716FF30B01B9F91F20084481185C
:1039C0004FF20002B0F5805FB8BF3046C7F6FF7215
:1039D00010400A1A22EAE2739A1A02F6FF726FF393
:1039E0000B020A44131AB342B8BF1E468319D31AF6
:1039F00003F6FF7303F470431844101A000A89F8A1
:103A0000431089F844004FEA1A204CF6CD4189F85A
:103A10003D00C3F6CC51584689F83CA0FCF76EFC3B
:103A2000FCF7FEFC0021064689F83E00C4F27A410C
:103A30003846FCF731FC002120F00040C4F2D001F0
:103A4000FCF75CFCFCF7ECFC0099C7B2A9F8450058
:103A50002046FCF71BFC20F000404FF07E51FCF7A5
:103A6000B5FC002818BF012089F8420099F80F0022
:103A700099F80D10B04288BF012599F83000B8427E
:103A800099F83F0038BF0235884240F22C00C2F25C
:103A90000000007888BF0435002808BF083589F881
:103AA000415001B0BDE8F08F10B541F23050C2F284
:103AB000000090F8371000240029A0F81F4008BF2C
:103AC000FFF77AFD40F22800C2F200004FF6FF71C6
:103AD000018041F21C50C2F20000046041F221500A
:103AE000C2F200000470BDE81040FFF7DBBE00002A
:103AF00040F22C01C2F20001002818BF012008701A
:103B0000704700002DE9F04F83B041F22258C2F215
:103B100000080027002988F8007000F02982144668
:103B2000002A00F0258204EB000B0546BBF1800F54
:103B300003D9012088F800001AE241F2305AC2F29B
:103B4000000AD4B1002006E00B5C01370AF802300D
:103B50000130844211D04319DAB2052AF8D3A3F117
:103B60003806F6B21F2EF3D3053BDBB2222BEBD87F
:103B70009AF83730002BEBD1E6E7380600F0F881F1
:103B8000282D4BD8BBF1290F48D39AF8280080285C
:103B900003D0D8BBFEF7ECFA3AE0002088F800002A
:103BA000FDF700FD60B341F23030C2F20000008B3F
:103BB0009AF83710C0F50060AAF81F0029B941F241
:103BC0003050C2F20000FFF7F7FC40F22800C2F2CA
:103BD00000004FF6FF71018041F21C50C2F200005C
:103BE0000021016041F22150C2F20000017041F257
:103BF0003030C2F20000FEF7CDFFFFF753FE02E0C7
:103C0000012088F8000001208AF82800FEF7DAFA7F
:103C100041F25140C2F20000012101702F2D33D832
:103C2000BBF12F0F30D3BAF82E0041F230360FFA25
:103C300080F8C2F2000602216FF3DF3006F8401F61
:103C4000FCF7E9FB0021C3F6B451FCF725FBB8F102
:103C5000000F48BF80F000409AF82910F060084635
:103C6000FCF7D9FB43F23331C4F20B11FCF714FB20
:103C700056F8081C30613046FFF7EEFA41F2514029
:103C8000C2F20000012101702B2D00F2E280BBF195
:103C90002B0FC0F0DE8041F22159C2F2000999F8E1
:103CA0000000BAF82A80D8B140F22800C2F2000021
:103CB000B0F900000FFA88F1081AFCF7A3FB41F2F3
:103CC0001C59C2F200090021D9F80060C3F6B451B2
:103CD000FCF7E2FA3146FCF787FAC9F800004AE03F
:103CE00041F23030C2F20000018BBAF91F20066B9E
:103CF000501820EAE071091A01F6FF7140F6FF72D0
:103D000091430844B0F5805FA8BF024602F47041B9
:103D1000401A80B20FFA88F10A1AB2F5006FA8BFF4
:103D20004FF4006202448A1A02F6FF726FF30B022C
:103D300010444FF600030A1ACFF6FF73401A12F52B
:103D4000006FC8BF1346184400F6FF706FF30B00F6
:103D50001044FCF757FB0021C3F6B451FCF79CFA62
:103D60003146FCF741FA41F21C51C2F200010860F1
:103D7000012089F8000040F22800C2F20000A0F8FB
:103D8000008041F21C50C2F20000D0F8008041F2E5
:103D900030369AF82900C2F20006032106F8401FC7
:103DA000FCF739FB43F23331C4F20B11FCF774FA20
:103DB00000218146FCF70AFB0021C4F27A41002869
:103DC00018BF494656F8082C316130464146FEF787
:103DD0002BFAC0BB41F230399AF82E009AF82F1016
:103DE000C2F2000909F1400261F30E20C9F84880CF
:103DF0000292FCF710FB0021C3F6B451FCF74CFA19
:103E000020F0004630464FF07E51FCF7C3FA002800
:103E10001CBF0026C4F2B426D9F83000D9F8588067
:103E2000C9F84C600190D9F8386028F000404FF094
:103E30007E51FCF7AFFA002808BF4646DDE90110C5
:103E40003246FCF7B7FF41F25140C2F200000121B7
:103E500001702D2D38D8BBF12D0F35D3BAF82C00B9
:103E600090B300B2FCF7CEFA4CF6CD41C3F6CC517C
:103E7000FCF712FA0026C4F2C82631468046FCF749
:103E8000A5FA58B90021CCF2C8214046FCF790FAB7
:103E90004646002804BF0026CCF2C82641F230383E
:103EA0000021C2F200084FF00109C4F2201130468F
:103EB00088F84090FCF7F0F9C8F8440041F251400E
:103EC000C2F2000080F80090172D02D8BBF1150F48
:103ED00009D8252D02D8BBF1250F04D8272D32D8BB
:103EE000BBF1280F2FD39AF815009AF816609AF8AC
:103EF00017909AF82580FCF78EFA41F2303BC2F217
:103F0000000BCBF8E4003046FCF785FA4DF20A7658
:103F1000C3F623463146FCF7BFF9CBF8EC00484620
:103F2000FCF779FACBF8E8004046FCF774FA9AF807
:103F30002710CBF8A8000846FCF76DFA3146FCF7CD
:103F4000ABF9CBF8AC009AF8370088B9002600BF6F
:103F50007019C0B2FFF708FB18B90136F1B2A142DF
:103F6000F6D328B141F23050C2F20000FFF724FB33
:103F7000F8B203B0BDE8F08F80B540F6BE11C2F2D2
:103F800000010020087040F6BF11C2F20001087065
:103F900040F6BD11C2F20001087040F2E801C2F221
:103FA000000101220A70C1F8010040F6C011C2F2FE
:103FB000000140F26D1C85396FF08402C2F2000CE2
:103FC00040F2CB7E0CEB02038532724501F8850F7F
:103FD00083F88500F6D1BDE88040FFF771BB000093
:103FE00010B582B00DF1070000F07EFD58B10DF163
:103FF000070400BF9DF8070000F008F8204600F015
:1040000073FD0028F6D102B010BD00002DE9F0418B
:1040100082B040F2E807C2F200073978013904297A
:104020003CD8DFE801F003362A2D0600FF283CD1FA
:104030003EE0F978BC784A1CD3B23944A342FA7006
:10404000487132D3022C3AD3601E40B2002836D4D5
:10405000C2B2B9184D79797841F25246C2F20006DF
:104060003170747018B1B01C791DFCF799F8611C9F
:10407000C8B2884225D0FF202DE0787004201AE0D5
:1040800041B2B87000200129F87013DC01213970A9
:1040900038E1FF2814BF012003200CE00121397012
:1040A0000021FF28C7F8011002D002B0BDE8F0815E
:1040B000022000E00520387002B0BDE8F081002049
:1040C0000DE0721E002100BF12F8013F01381944B3
:1040D000FAD1C843C0B2401BB0FA80F040090028B2
:1040E000387100F00C810620022C3870C0F0E1809D
:1040F0007C78FFF7DFFA7E78844218BFFE2E40F00E
:10410000D8807D79FE2E344602D1FFF7D3FA0446DB
:10411000681E0A2800F2CD80DFE800F0061F5BCBA6
:10412000CBCBCBCBCB89A300FE2E00F0C2804FF6C9
:10413000FF708DF804400224ADF802008DF80540B0
:10414000FFF7A6FA8DF8060000200DF102010A5DC6
:104150000134052C1044FAD1A3E0B8780428C0F04B
:10416000A880FD79681E40B2002800F1A280B879CD
:1041700041F2BC51C2F200012A46FFF75FFBA842A0
:1041800040F09780FFF784FAFE2E00F0928041F213
:104190003C66A91CC2F200064FF6FF723280B47072
:1041A000F17030713DB141F2BC51701DC2F200019D
:1041B0002A46FBF7F5FFE91C080600F0A880701CF2
:1041C000CAB2002110F8013F013A1944FAD1C8439C
:1041D0009EE0B87803286CD3C21E100669D0B87967
:1041E000F91DD2B2FFF78EFCFFF752FAFE2E1AD05D
:1041F0004FF6FF71ADF8021002218DF80600002085
:104200000DF102028DF804408DF80510535C013168
:1042100005291844FAD1C0438DF807000DF10200BA
:10422000062100F069FB0B2D1BD00A2D41D1FFF7B1
:104230003BFCFFF72DFAFE2E3BD04FF6FF71ADF899
:10424000021002218DF8060000200DF102028DF807
:1042500004408DF80510535C013105291844FAD14A
:104260001FE0B878F988032898BF4FF4006188B23E
:10427000FFF7C8F9FFF70CFAFE2E1AD04FF6FF71C0
:10428000ADF8021002218DF8060000200DF10202A7
:104290008DF804408DF80510535C01310529184450
:1042A000FAD1C0438DF807000DF10200062100F09D
:1042B00023FB40F6BD14C2F2000420780F281ED85C
:1042C00040F6BE15C2F20005297840F26D18C2F220
:1042D0000008852201FB028001FB02F640F2E801A2
:1042E000C2F20001FBF75CFF062008F80600287800
:1042F000013000F00F00287020780130207001207C
:1043000038700020C7F8010002B0BDE8F081FF203E
:10431000691DC9B27054A81DC1B23046C7E700007C
:1043200040F20000C2F20000006844F6D351C1F22E
:104330006201A0FB01014FF0FF3000EB9110B0F1E2
:10434000807F11D24EF21001CEF2000148604EF68D
:104350002350CEF20000F0220270002207238A6070
:104360000B600270704700BFFEE7000070B584B0BC
:1043700040F23800C2F200000026066041F2303000
:10438000C2F20000012180F86B104FF4E160FEF7EB
:10439000B9FE42F20004C4F20004204600F07CF9A9
:1043A0006D46284600F066FA4720CDE9000640F247
:1043B000E7300290204629468DF80C6000F0D4F9D1
:1043C0002046012100F03EFA2046012100F036FA95
:1043D000132001210022FEF7C5FC204600F0BEF9A3
:1043E00004B070BD032900F20F81DFE801F002B8CC
:1043F000468D016A21F001010162816921F003010A
:1044000081611168036A19430162016A21F00201A6
:104410000162D188036A0B43A0F18041A1F5963176
:104420004FEAB1210729036200F2EE80012303FA6B
:1044300001F111F0E10F00F0E780016A21F00401C1
:1044400001629188036A19430162016A21F008013F
:1044500001621189036A1943016250F8041F21F4B3
:10446000807101605189036819430160016821F47A
:104470000071016092890368C3E0016A42F6044C4E
:1044800021F480710162C169C4F2010C21F00301C1
:10449000C1611168036A43EA01210162016A21F4E2
:1044A00000710162D388016A41EA0321ACF104037F
:1044B0009842016240F0A880016A21F480610162A3
:1044C0009188036A43EA01210162016A21F40061D3
:1044D00001621189036A43EA01210162DCF80000EC
:1044E00020F48050CCF800005089DCF8001041EA3C
:1044F0000010CCF80000DCF8000020F40050CCF8EC
:1045000000009089030126E0016A42F6044C21F480
:1045100080510162C169C4F2010C21F44071C16192
:104520001168036A43EA01310162016A21F4005112
:104530000162D388016A41EA0331ACF10403984275
:10454000016218BF7047DCF8000020F48040CCF80E
:10455000000050898301DCF80020604651E0016AC8
:1045600021F010010162816921F4407181611168BB
:10457000036A43EA01110162016A21F0200101622C
:10458000D188036A43EA011144F20003C4F2010333
:10459000984201622AD042F60041C4F201018842E9
:1045A00032D1016A21F0400101629188036A43EA35
:1045B00001110162016A21F0800101621189036A1F
:1045C00043EA0111016242F60440C4F201000168AD
:1045D00021F4806101605189036843EA810101602F
:1045E000016821F400610160918908E044F204004F
:1045F000C4F20100016821F4806101605189026800
:104600008B0043EA0201016070470000032988BF64
:104610007047DFE801F0020D050A50F8181F01E0AD
:1046200050F81C1F21F0700107E050F81C1F01E03A
:1046300050F8181F21F4E041120201600168114393
:1046400001607047032988BF7047890089B2084418
:1046500042637047032988BF7047DFE801F0020D0D
:10466000050A50F8181F01E050F81C1F21F008013E
:1046700007E050F81C1F01E050F8181F21F40061FA
:1046800012020160016811430160704700218181BD
:10469000C0E900118160704710B542F6FF31C4F2E5
:1046A0000101884211DC40F6FF71C4F2000188422A
:1046B00020DCB0F1804F3CD040F20041C4F2000158
:1046C000884249D140F201443EE044F2FF31C4F255
:1046D000010188421DDC42F60041C4F2010188421A
:1046E0002AD044F20001C4F20101884234D14FF4CF
:1046F000447429E041F20001C4F2000188421ED056
:1047000042F20001C4F20001884225D14FF48164D5
:104710001AE044F20041C4F20101884212D044F68A
:104720000001C4F20101884218BF10BD40F21234EA
:104730000AE04FF4806407E040F20B3404E040F2FA
:10474000044401E040F211342046FEF7FBFC204611
:10475000BDE81040FEF7E6BC10BD0000016841F066
:1047600001010160704700000A8842F6004CB0F178
:10477000804FC4F2010C826218BF60452ED10368DD
:1047800023F0700303604B8802681A4302608A8832
:1047900003681A43026042F6FF338A68C4F20103D9
:1047A0009842C2620ADD44F2FF32C4F20102904232
:1047B0001BDC604525D044F200021EE0B0F1804FC2
:1047C0001FD040F20042C4F20002904219D042F2DF
:1047D0000002C4F20002904213D02AE040F20043EB
:1047E000C4F200039842CAD0D5E744F60002C4F2EE
:1047F0000102904205D044F20042C4F2010290420C
:1048000017D1026822F440720260CA880368134319
:10481000A0F18042A2F596324FEAB222072A036045
:1048200007D8012303FA02F212F0E10F1CBF097B43
:104830000163416941F0010141617047C268114360
:10484000C1607047C943016170470000C2680069D8
:104850000A40084018BF0120002A18BF012210405A
:1048600070470000426822F07002426042681143C3
:104870004160704700214FF6FF72C0E9001182606D
:104880000173704780B541F22820C2F20000002178
:10489000A0F80011A0F8021141F22020C2F200009D
:1048A000016041F22420C2F20000016041F22C308C
:1048B000C2F20000016041F21C20C2F2000001605F
:1048C00041F2E660C2F200000170FCF78DFA00F0E0
:1048D000D1F8FFF751FB44F20040C4F2000005217B
:1048E00000F096F91C2002210022BDE88040FEF76E
:1048F00039BA0000FFF774BB2DE9F04F81B04EF6D6
:10490000FC5B41F200068A460546CEF2000BCEF271
:104910000006FEF7C9FE40F2000C4DF68363C2F2BA
:10492000000CC4F21B33A8B1DBF8001041F0807119
:10493000CBF80010316841F001013160DCF8001063
:10494000A1FB0312910C4143706849007268121A6E
:104950008A42FBD341F2E66744F20044C2F2000708
:104960000120C4F200043870E06941F21821C2F25B
:1049700000010860206841F21429C2F20009C9F858
:104980000000387841F21028C2F20008C8F8000090
:104990002846514665469A46FCF7A6FADBF8000021
:1049A000642240F08070CBF80000306840F00100D5
:1049B00030602868A0FB0A01890C7068514300BF71
:1049C0007268121A8A42FBD300F012F80020387085
:1049D000E06941F21821C2F2000108602068C9F8BC
:1049E00000003878C8F8000001B0BDE8F08F000082
:1049F00010B544F20044C4F20004204640F20371B2
:104A000000F0F4F838B1204600F0B4F8204640F247
:104A1000037100F0E1F8204640F2017100F0E6F881
:104A200038B1204600F0A6F8204640F2017100F0AF
:104A3000D3F8204640F2027100F0D8F838B1204691
:104A400000F098F8204640F2027100F0C5F82046C8
:104A50004FF4E06100F0CAF8002808BF10BD2046FE
:104A600000F088F820464FF4E061BDE8104000F007
:104A7000B3B8000010B544F20044C4F20004FFF7DC
:104A8000B7FF00BF204640F2057100F0AFF818B143
:104A9000204600F06FF8F5E72046042100F0E2F828
:104AA0002046082100F0F2F82046052100F0B0F879
:104AB0001C2002210022FEF755F9E06941F218217D
:104AC000C2F200010860206841F21421C2F2000124
:104AD000086041F2E660C2F20000007841F2102165
:104AE000C2F20001086010BD41F22821C2F20001AB
:104AF000B1F80021B1F802319A4204BF002070479A
:104B0000B1F802218A5C0270B1F802010130C0B232
:104B1000A1F8020101207047B0B5044643F6000039
:104B2000C4F2010084420D4607D044F20040C4F2B2
:104B30000000844205D1022000E00620FEF74AFA78
:104B400000E000202168090406D400EB5500B0FB0A
:104B5000F5F080B2E060B0BD400000EB5500B0FB66
:104B6000F5F04FF6F0710140C0F342000844E060F8
:104B7000B0BD0000406A6FF35F2070476FF35F21A4
:104B80008162704710B543F60001C4F2010188420A
:104B900009D044F20041C4F20001884218BF10BDA0
:104BA00040F2114401E040F20E342046FEF7CAFA0A
:104BB0002046BDE81040FEF7B5BA0000826822F03A
:104BC000800282608268114381607047016841F011
:104BD000010101607047000001F01F010122036A1A
:104BE00002FA01F119430162704700008A09105866
:104BF00001F01F01C84000F001007047016821F07A
:104C000001010160816841F0080181607047000086
:104C100001F01F0289094FF0010C0B580CFA02F247
:104C20001A430A5070470000C1F3891252F800C0BD
:104C30008A0D105801F01F03C1F30441C8402CFA3B
:104C400003F1084000F0010070470000026822F004
:104C500001020260026822F4C0620260026811432D
:104C600001607047026822F004020260026811438A
:104C700001607047026822F001020260426822F47B
:104C8000405242604268114341607047026822F01E
:104C9000080202600268114301607047026822F056
:104CA00001020260026822F480520260026811432D
:104CB0000160704702E008C8121F08C1002AFAD13B
:104CC00070477047002001E001C1121F002AFBD18C
:104CD000704700000000010203040000004D0008BE
:104CE0000000002030000000B44C0008304D0008E7
:104CF00030000020C01A0000C44C00080000000072
:104D000000A24A04020000000000B4420000B4C245
:104D100000000040000048420000000000000000C9
:104D20000000C8420000FA44FFFFFFFF010000003E
:040000050800016985
:00000001FF
