:020000040800F2
:10000000E01900207D010008A105000899050008FD
:100010009D050008FD040008E1070008000000003D
:10002000000000000000000000000000A90500081A
:100030009505000800000000A5050008AD050008B2
:100040009701000897010008970100089701000830
:100050009701000897010008970100089701000820
:1000600097010008970100089701000801050008A2
:100070009701000897010008970100089701000800
:10008000970100089701000800000000C106000861
:1000900097010008970100089701000897010008E0
:1000A00097010008970100089701000897010008D0
:1000B0004107000800000000970100080000000050
:1000C0009701000800000000970100089701000850
:1000D0009701000897010008970100080000000040
:1000E00000000000000000009701000897010008D0
:1000F0009701000897010008970100089701000880
:1001000097010008000000000000000097010008AF
:1001100000000000000000000000000000000000DF
:1001200000000000000000000000000000000000CF
:1001300000000000000000000000000000000000BF
:1001400000000000000000000000000000000000AF
:10015000000000000000000097010008970100085F
:100160009701000897010008DFF80CD000F0AEF905
:100170000048004745190008E0190020064880475C
:1001800006480047FEE7FEE7FEE7FEE7FEE7FEE77C
:10019000FEE7FEE7FEE7FEE7B1050008690100089B
:1001A00040EA01039B0703D009E008C9121F08C0F9
:1001B000042AFAD203E011F8013B00F8013B521E79
:1001C000F9D27047D2B201E000F8012B491EFBD2F0
:1001D00070470022F6E710B513460A460446194652
:1001E000FFF7F0FF204610BDF0B480EA0102D40F03
:1001F0004200B2EB410F02D20246084611464A00C5
:1002000042D0C30DDDB2C1F3C752AD1A202D35DA8D
:10021000C1F3160141F4000204B15242C5F12006B7
:1002200002FA06F12A411044B3EBD05F23D0C4B1E7
:10023000012DA0EBC35009DCF0BC4FF0004202EAF4
:10024000C352DBB200F5000000F012B9400000F12B
:10025000807000EBC350A0F1807040EAD17049007B
:1002600009E0490841EAC071A0EBC35000F5000065
:10027000400800EBC350F0BC00F0F1B8614201222D
:1002800002EB4101001BF6E7F0BC704781F0004132
:10029000AAE780F00040A7E780EA010210B502F06B
:1002A0000043400022D04A001FD0010E01EB126132
:1002B000C0F35600C2F3560240F4000042F40002BC
:1002C000A0FB022000047F39140400D0401C50EA37
:1002D000124001D44000491EC2B20C0604EBD010FB
:1002E000401C4008802A02D003E0002010BD20F00E
:1002F0000100002900DA0020184310BD30B480EA64
:10030000010202F0004530F0004221F0004013D01D
:1003100090B1C30DD40DC2F31601C0F31600E41A58
:1003200041F4000140F400027D34914201D3641C89
:1003300000E04900002C02DA30BC002070474FF486
:1003400000000023914201D3891A034340084FEA79
:100350004101F7D151B1914202D14FF0004105E086
:1003600002D24FF0010101E06FF0010103EBC45034
:10037000284430BC00F073B8002801DBC0F1004015
:10038000002901DBC1F10041814201D80120704701
:1003900000207047002801DBC0F10040002901DB8C
:1003A000C1F10041814201D2012070470020704715
:1003B000002801DBC0F10040002901DBC1F1004150
:1003C000814201D30120704700207047002801DBE3
:1003D000C0F10040002901DBC1F10041814201D997
:1003E0000120704700207047C10F80EAE070084488
:1003F000CA079623002100F03BB89623002211463D
:1004000000F036B800F0004220F00040C10DC0F30B
:10041000160040F400007F2901DA00207047962979
:1004200003DCC1F19601C84001E096398840002AFA
:10043000F4D04042704720F00040C10DC0F31600D8
:1004400040F400007F2901DA00207047962903DC80
:10045000C1F19601C840704796398840704700291D
:10046000A8BF7047401C490008BF20F0010070473A
:1004700010B4B0FA80FC00FA0CF050EA010404BF9A
:1004800010BC704749B1CCF1200421FA04F411FAF0
:100490000CF118BF012121430843A3EB0C01CB1D34
:1004A0004FEA00614FEA102042BF002010BC7047A5
:1004B00000EBC35010440029A4BF10BC7047401C7F
:1004C000490008BF20F0010010BC70471CB5094866
:1004D0000090094801900546009C06E0E06840F065
:1004E000010394E8070098471034AC42F6D3FFF7B5
:1004F0003FFE00007839000898390008FEE7000048
:1005000080B50320022100F013FF002808BF80BD42
:100510000320022100F002FF032000F067FE41F2F9
:10052000DD50C2F200000121017080BDB0B588B07D
:100530004FF4A06001F0F8FE0020002500F086FED8
:100540006C46204600F016FF42F24C40C4F2010017
:1005500000904FF48070019040F23000C2F2000031
:1005600003904FF4806004900120ADF81400022045
:1005700006904FF400500790002021468DF8085057
:1005800000F07CFE002000F055FE002000F03AFE56
:1005900008B0B0BD70470000FEE70000FEE70000B5
:1005A00070470000704700007047000000F012BE66
:1005B00081B041F20400C4F2020050F8041C41F082
:1005C000010140F8041C00BF50F8041C8907FBD54A
:1005D000016841F08001016000210091009A4F2ADA
:1005E00006D800BF009A01320092009A502AF9D32F
:1005F000026842F090020260009100994F2905D8EC
:1006000000990131009100995029F9D301684FF602
:10061000FF7221F00301016050F8041CCFF6F26272
:10062000114040F8041C01680C22C0F6FF02114082
:10063000016001684FF6FF72CFF2C0721140016095
:10064000016840F2431321F440010160816A02F520
:10065000003221F00F018162C16A9943C162016BCE
:1006600021F001010163002141600168016001681E
:10067000016001680160016811400160016841F09A
:10068000006141F48021016050F8041C41F0807148
:1006900040F8041C50F8041C8901FBD5016821F0C6
:1006A00003010160016841F002010160016809076E
:1006B000FCD54FF00060002101B001F097BC0000B4
:1006C000B0B542F20004C4F2000420460121012525
:1006D00002F052FF002808BFB0BD2046012102F001
:1006E00047FF40F23801C2F2000108684CF6CD43E2
:1006F00001300860086841F29820C2F2000080F8DA
:1007000062500A68CCF6CC435A4349F699134FEA33
:100710007202C1F699139A429CBF012280F86320AD
:100720000A68012280F85F200B68DB0708BF80F8A9
:1007300060200968890704BF012180F86110B0BDFD
:1007400010B544F20044C4F20004204640F20371A4
:1007500003F09AF838B1204603F05AF8204640F2E8
:10076000037103F087F80521C0F20571204603F0FC
:10077000A9F8002808BF10BD204603F049F841F24F
:100780008811C2F200010A6801320A6041F2DE51AA
:10079000C2F20001097821B141F29420C2F20000B6
:1007A00019E041F29011C2F20001B1F80021B1F854
:1007B00002310132D2B29A4204D141F28410C2F223
:1007C000000008E0B1F80031C85441F28C10C2F2C8
:1007D0000000A1F8002101680131016010BD000096
:1007E000FEE7000042F20840C4F20100016841F057
:1007F0000801016001680907FCD4016841F00401A7
:10080000016000BF01684907FCD47047022814D07A
:10081000012818BF704742F22C40C4F20100026860
:1008200022F4700202604FF4700202EB0151026880
:1008300001F4700111430160704742F22C40C4F290
:100840000100C26822F44012C2604FF4401202EB71
:100850000151C26801F440111143C16070470000AA
:1008600042F20841C4F201010A68002822F4006241
:1008700018BF02F500620A607047000080B540F2C0
:10088000093001F071FD40F20930BDE8804001F00F
:100890005BBD000042F20840C4F20100016841F46F
:1008A000807101607047000042F20840C4F201000C
:1008B0000168C90718BF7047016841F00101016074
:1008C00070470000002942F20841C4F2010104D03F
:1008D000C20710D1800714D47047C20703D00A683A
:1008E00022F480120A60800758BF7047086820F41D
:1008F0000040086070470A6842F480120A6080076E
:10090000EAD5086840F4004008607047012805D027
:10091000022818BF70476FF4E04001E06FF46020D8
:1009200042F20842C4F201021368184010601068D5
:10093000084310607047000010B582B040F21150BB
:1009400001F0F2FC40F2096001F0EEFC032001F03E
:1009500027FC4FF09040032100221823002400F0D0
:100960000DFEFFF78BFF0020FFF77AFF4FF480703A
:10097000012100F08BF801200221FFF747FF002042
:100980000321052200F028F801200421052200F0AF
:1009900023F801204FF40021FFF7B8FF01200121C7
:1009A000FFF790FFFFF780FF0194019842F20F716B
:1009B000884207D842F210700199013101910199E2
:1009C0008142F9D3FFF70EFFFFF7B0FD02B0BDE89B
:1009D0001040FFF75FBF000080B5B1F1120342F293
:1009E0000C4C18BF0B460528C4F2010C0DD8DCF8DE
:1009F00028E000EB80001F2181402EEA010103FA6C
:100A000000F00843CCF8280020E00B280ED800EBBB
:100A10008000DCF824E01E381F2181402EEA01010D
:100A200003FA00F00843CCF824000FE00F280DD89B
:100A300000EB8000DCF820E03C381F2181402EEAEA
:100A4000010103FA00F00843CCF82000092B0CD870
:100A5000DCF8040003EB430107238B40984302FAC0
:100A600001F10843CCF8040080BD112B88BF80BD84
:100A700003EB4301DCF800001E3907238B40984349
:100A800002FA01F10843CCF8000080BD002942F2CF
:100A90000441C4F2010106D0C20518D442051CD499
:100AA000800720D47047C20503D50A6822F48072FB
:100AB0000A60420503D50A6822F480620A60800752
:100AC00058BF7047486820F00200486070470A68C5
:100AD00042F480720A604205E2D50A6842F48062FC
:100AE0000A608007DED5486840F002004860704721
:100AF0002DE9F04F81B0D0E903AB044686690D467D
:100B0000584600210027FFF737FC28BB504600213C
:100B1000FFF75CFC00B3A0682968FFF7B7FB002172
:100B200007464FF00009FFF743FC40F2000827F0AA
:100B30000047CBF68078002838464FF07E5118BF2A
:100B40004FF07E58FFF734FC50B9C4F8189028686D
:100B5000E06101B0BDE8F08FA76101B0BDE8F08FA2
:100B600030464146FFF798FB002181460026FFF7FB
:100B700011FC00285846594618BF4FF00009FFF7EE
:100B800033FB3946FFF788FB00210546FFF7F4FBEE
:100B9000B0B928464FF07E51FFF726FB4FF07C514D
:100BA000FFF77AFB064628463146FFF7A7FB0146CA
:100BB0003046FFF719FB4FF07C51FFF76DFB0646FF
:100BC00030465146FFF702FC41F26F210028CBF678
:100BD0008331584618BF5646FFF75EFB0146304644
:100BE000FFF702FB01464846FFF7E2FB41F26F21A7
:100BF000C3F6833108B9584610E05846FFF74CFB5E
:100C00003146FFF7F1FA01464846FFF7B5FB58B900
:100C100041F26F218BF00040C3F68331FFF73CFBBC
:100C20004946FFF7E1FA064630465146FFF7CEFB4C
:100C3000002818BF564630460021FFF7ABFB0028BE
:100C400018BF002640463146FFF726FBA06101B0E1
:100C5000BDE8F08F0022C0E9062141F2C340C2F294
:100C60000000012101707047F0B589B041F2DC50FD
:100C7000C2F200000026067041F2DD50C2F2000010
:100C8000067040F2115001F04FFB40F2117001F07C
:100C90004BFB4FF0904001210422012700F0FCFBA8
:100CA0004FF0904002210122042300F067FC4FF036
:100CB000904001210322042300F08AFC44F2004406
:100CC000C4F20004204602F0ABFD44F24021C0F221
:100CD0000F01204602F06EFD2046002102F004FEC6
:100CE0002046002102F028FE2046002102F010FEDE
:100CF000204602F0D1FD2046082102F015FE2046D4
:100D0000042102F0FDFD204602F0AEFD4FF4A0608C
:100D100001F00AFB032000F099FA01AD284600F02B
:100D200029FB04F12800CDE9010640F20110ADF8DD
:100D30001800032029468DF80C600596CDE907764A
:100D400000F09CFA032000F069FA0320022100F071
:100D5000D9FA0B200221002201F016F92046802149
:100D600002F07AFD09B0F0BD002908BF70472DE9F7
:100D7000F04144F200460C468046C4F200060025CD
:100D800018F80570304640F2077102F07DFD00282A
:100D9000F8D03046394602F03FFD00BF304640F201
:100DA000067102F071FD0028F8D0304640F206715D
:100DB00002F060FD0135A542E2D1BDE8F041704787
:100DC00010B540F23C00C2F200000021017040F278
:100DD000115001F0A9FA40F2157001F0A5FA4FF098
:100DE000904004214FF4C06200F056FB4FF0904059
:100DF000022101224FF4C06300F0C0FB4FF090408D
:100E0000012103224FF4C06300F0E2FB45F20044ED
:100E1000C4F20004204600F07BFC41F68021C0F2C1
:100E200006012046002200F001FC2046002100229D
:100E3000002300F0F3FC2046012100F0EDFB2046EA
:100E400000F088FC204640F20A5100F089FC204660
:100E50004FF4A16100F084FC204640F2095100F0FB
:100E60007FFC204640F20B51BDE8104000F078BCFA
:100E70002DE9F04F83B0002A00F0C7809A46002B7E
:100E800000F0C38045F20044C4F2000489464FEAF2
:100E9000400847F66016204640F20A519346CFF6C6
:100EA000FE7600F05DFC20464FF4A16100F058FC96
:100EB000204640F2095100F053FC204640F20B510D
:100EC00000F04EFC354600BF204640F2016100F0C4
:100ED0005BFC012803D1002D05F10105F4D10128A7
:100EE00000F09C80204600F0A7FC354620464FF4D9
:100EF000A06100F049FC18B9002D05F10105F5D1FC
:100F0000002800F08F805FFA88F8204641466FF095
:100F1000010200F07BFC00F03FFC002800F086801E
:100F20002046494600F0F2FB354600BF204640F21D
:100F3000025100F029FC18B9002D05F10105F5D189
:100F4000002877D0204600F077FC354620464FF445
:100F5000A06100F019FC18B9002D05F10105F5D1CB
:100F600000286BD0204641460122012500F04EFCAE
:100F700000F012FC002865D0BAF1000F1ED0AAF1D3
:100F800001080025A84503D12046002100F044FBBC
:100F9000374600BF204640F2065100F0F5FB18B975
:100FA000002F07F10107F5D1002852D0204600F0AC
:100FB000A9FB0BF8050001355545E3D12046012179
:100FC00000F02AFB204600F03DFC304621688905F0
:100FD00003D5002800F10100F8D1002935D43546A9
:100FE000204640F2016100F0CFFB012803D1002D23
:100FF00005F10105F4D101460139B1FA81F1490940
:1010000001380D4618BF01202AE040F23C01C2F22F
:1010100000010020087003B0BDE8F08F002001211E
:1010200001251DE000200125022119E000200125F5
:10103000032115E000200125042111E000200125F5
:1010400005210DE0002006210AE0002001250821ED
:1010500006E020460121012500F0DEFA00200721EC
:1010600040F23C02C2F20002002D117000F0A48098
:101070000546204600F0E6FB304600BF21688905A2
:1010800003D5002800F10100F8D1204640F20A51B2
:1010900000F066FB20464FF4A16100F061FB2046A2
:1010A00040F2095100F05CFB204640F20B5100F089
:1010B00057FB00BF204640F2016100F065FB0128AC
:1010C00003D1002E06F10106F4D1012873D1204688
:1010D00000F03AFB4FF09040012101224FF4C06331
:1010E00000F04CFA4FF09040012103224FF4C0630E
:1010F00000F06EFA4FF090404FF4C06100F006FA35
:101100000026002704E000BF082F07F1010720D2C6
:101110004FF090404FF4007100F0F6F902960298FB
:10112000C72805D80298013002900298C828F9D340
:101130004FF090404FF4007100F0E8F901960198EB
:10114000C728E1D80198013001900198C828F9D347
:10115000DAE74FF0904004214FF4C06200F09CF9B0
:101160004FF09040022101224FF4C06300F006FAD4
:101170004FF09040012103224FF4C06300F028FAA1
:101180002046012100F048FA204600F0E3FA20460C
:1011900040F20A5100F0E4FA20464FF4A16100F059
:1011A000DFFA204640F2095100F0DAFA204640F218
:1011B0000B5100F0D5FA284603B0BDE8F08F0000CF
:1011C00040F23401C2F20001086000BF0868002844
:1011D000FCD1704740F23400C2F2000001680029DF
:1011E00008BF70470168013901607047082100EBB2
:1011F0008000C4F2020151F8202022F0010241F8DF
:1012000020207047082100EB8000C4F2020151F851
:10121000202042F0010241F820207047082100EB15
:101220008000C4F2020151F8202022F0200241F88F
:1012300020207047082100EB8000C4F2020151F821
:10124000202042F0200241F820207047042200EBC9
:101250008001C4F2020202EB81014B68800023F09E
:1012600001034B6000234B608B60CB600B610F214F
:10127000136801FA00F018431060704710B540F28F
:10128000080E00EB8000C4F2020E5EF8203023F05E
:1012900001034EF82030D1F800C00EEB8003C3F8F4
:1012A00008C0CA68DA600A8B5A605EF820204B6872
:1012B00022F47C5C0A69CC6943EA0C031A4322439A
:1012C0004EF820205EF820200B7A22F040020C7DA0
:1012D000012B08BF40324EF820205EF82020012C60
:1012E00022F0800208BF80324EF82020497D5EF84F
:1012F0002020002922F0100218BF10324EF82020C2
:1013000010BD0000082200EB8000C4F2020252F877
:101310002030194342F82010704700000422C4F224
:1013200002028000136801FA00F018431060704751
:1013300008294FF000021BD801238B4013F48A7F49
:1013400016D040F2000CC4F2020C820000EB8000C8
:10135000DCF800304CEA800001FA02F280681A40A2
:1013600000EA010018BF0122002818BF0120024036
:10137000104670470021C0E900110172C0E9061152
:10138000C0E9031181827047F0B581B040F23001AD
:1013900072B6C2F2000108884C8862B6FFF72DF8D9
:1013A00043F23335C4F253052946FEF775FF4FF07B
:1013B0006651FEF771FF41F29827C2F20007064618
:1013C00038602046FFF719F82946FEF765FF4FF011
:1013D0006651FEF761FF396978603046FEF756FFC7
:1013E0000146FEF701FF00210446FEF7D3FF002867
:1013F00018BF002400F0B2FC84F000410028D8BFE0
:1014000001EAE07478680021C4F23811BC60FEF78C
:1014100043FF4FF07F51FEF771FFF86001B0F0BD60
:10142000FFF7CEBC10B582B00DF1030236200B21C0
:101430000523FFF71DFD18B19DF80300800601D4B8
:10144000002423E09DF806109DF8070061F30B20AF
:10145000FEF7D3FF41F298240021C2F20004C4F247
:10146000B431A061FEF718FF4FF06651FEF714FF8C
:1014700040F6DB71C4F249012062FEF70DFF002146
:10148000C4F23431FEF73AFFE0610124204601F056
:1014900089FA204602B010BDF0B5D0F820E0D0F8AF
:1014A00024C000230F27002505E000BF0135082DCB
:1014B00003F104030CD022FA05F6F607F6D007FA7A
:1014C00003F62EEA060601FA03F446EA040EEDE7F7
:1014D000082300240F2504E00133102B04F1040439
:1014E0000CD022FA03F6F607F6D005FA04F62CEA39
:1014F000060701FA04F647EA060CEDE7C0F820E01B
:10150000C0F824C0F0BD000081627047816170475F
:1015100010B540F2165000F007FF40F2115000F0F5
:1015200003FF40F2125000F0FFFE41F20044C4F607
:101530000004204601210022012300F01FF820466C
:1015400000210022012300F043F820460121FFF78B
:10155000DBFF4FF0904001210022402300F00EF805
:101560004FF0904000210022402300F031F84FF06E
:1015700090404021BDE81040FFF7C6BF2DE9F04183
:10158000D0F800E0D0F80CC000244FF0030800268B
:1015900005E000BF0136102E04F1020412D023FA38
:1015A00006F7FF07F6D008FA04F72EEA070E01FA4D
:1015B00004F54EEA050E2CEA070702FA04F547EA9D
:1015C000050CE7E7C0F800E0C0F80CC0BDE8F0810A
:1015D0000129416814BF994319434160B0B5D0F85F
:1015E00008C000214FF0030E002404E00134102C49
:1015F00001F102010CD023FA04F5ED07F6D00EFA42
:1016000001F52CEA050C02FA01F54CEA050CEDE7B0
:10161000C0F808C0B0BD00000268012922F4806251
:1016200008BF02F58062026070470000F0B581B02B
:101630000446022017460D4600F0DEFD4DF683619C
:10164000C4F21B31A0FB0112910C4AF2FF12C0F24E
:101650004A4290420A4688BF4822636848F2A06620
:10166000C0F2010623F07F03B54243EA0203636040
:1016700007D845F6C072C0F23B4290422BD34821B6
:1016800031E041F68021C0F206018D4237D84FF497
:101690009671514348F63812C0F24102A1FB021282
:1016A000511C2162E169192221F48041002F18BFE9
:1016B00001F5804108BF0322E161E1696A4341F419
:1016C0000041B0FBF2F0E161E169020508BF41F0C1
:1016D0000101084312E048F27F42C0F21E0290422C
:1016E0008CBF0131022121626900B0FBF1F00428B6
:1016F00098BF0420E1696FF31F300843E06101B037
:10170000F0BD00000069C0B2704700000161704781
:1017100010B545F20041C4F20001884209D045F6F7
:101720000001C4F20001884218BF10BD40F2164407
:1017300001E040F21544204600F016FE2046BDE8C8
:10174000104000F001BE0000016821F001010160BD
:1017500070470000016841F001010160704700001E
:1017600040F20152914202D141698069704701F013
:101770001F0289094FF0010C0B580CFA02F223EA00
:1017800002020A50704700008A09105801F01F0138
:10179000C84000F001007047B0B547F6601545F24B
:1017A0000044CFF6FE75C4F2000400BF204640F2AC
:1017B0000151FFF7E9FF18B9002D05F10105F5D139
:1017C00010B3204640F20A51FFF7DEFF05462046DF
:1017D00040F20151FFF7C4FF012D1CBF0120B0BD35
:1017E000204640F20A51FFF7BBFF20464FF4A161AB
:1017F000FFF7B6FF204640F20951FFF7B1FF204640
:1018000040F20B51FFF7ACFF0020B0BD21F0010109
:10181000023218BF0131016170470000D0F800C0EA
:101820006FF39F232CF0020C41EA0C01016043EAA4
:101830000201816070470000016841F4807101601D
:1018400070470000016841F40071016070470000BA
:1018500080B501F0FBFBFFF75BFEFFF76DF800F0D2
:1018600085FAFFF7DDFD00F0C1FA01F015FC01F08B
:101870009FFEBDE8804000F05BB900002DE9F04715
:1018800004468868D16AC4E90301FEF7FFFC82467A
:1018900060616068276A666B5146FEF7FDFC394659
:1018A000FEF7A2FC0746206230460021FEF764FDE9
:1018B00090B93846314686F00048FEF787FD8146EC
:1018C00038464146FEF766FD002818BF4746B9F185
:1018D000000F18BF37462762A1692668A768256AE6
:1018E0005046FEF7D3FC01463846FEF7D5FC0746C6
:1018F00030465146FEF7D0FC2946FEF775FC0146FE
:101900003846FEF771FCA76B064660623846002138
:10191000FEF732FD90B93046394687F00045FEF7B4
:1019200055FD804630462946FEF734FD002818BF95
:101930002E46B8F1000F18BF3E466662C4F818A0E4
:10194000BDE8F087FFF784FF41F2982440F240059C
:10195000C2F200040026C2F200050AE000F082FE96
:10196000002808BF00F07AFA204600F049F901F09B
:1019700057FE01F055FE00F0EDFE94F8620028B12C
:1019800084F86260FFF700FD01F04AFE94F86300FE
:101990000028E3D084F86360FFF744FD01F040FEC7
:1019A00094F85F000028D9D02846214684F85F606B
:1019B00000F0EEFDD2E700002DE9F04381B040F2E7
:1019C0000407C2F20007787802283ED0012804D02C
:1019D0000028786901B0BDE8F08341F2D458C2F222
:1019E000000898F8001041F2D8590029F968C2F2AD
:1019F00000094FF07E507C68D9F800501CBF0020D1
:101A0000CBF68070FEF748FC2946FEF7EDFB214639
:101A10000546C9F80000FEF7CBFC264628B9BE688B
:101A200028463146FEF7D2FC50B928462146FEF73B
:101A3000BFFC002818BF0120C9F8006088F800002A
:101A4000D9F8000001B0BDE8F08341F2D055C2F2F0
:101A50000005F8682968FEF7C7FB40F6DB71C4F2A1
:101A6000490104462860FEF787FC88B940F6DB751B
:101A700040F6DB76CCF2C905C4F249062046294679
:101A8000FEF7B2FB31460446FEF7A0FC0028F5D174
:101A900040F6DB71CCF249012046FEF789FC88B99B
:101AA00040F6DB7540F6DB76C4F2C905CCF2490698
:101AB00020462946FEF798FB31460446FEF76AFCAD
:101AC0000028F5D184F000412046FEF7E5FB48F6FA
:101AD0008901C3F608410546FEF7DEFB4AF6AB2155
:101AE000C3F62A61FEF780FB01462846FEF7D4FBC9
:101AF0004FF07E51FEF778FB01462046FEF7CCFB07
:101B00004FF07C51FEF7C8FB4FF07C51FEF76CFBA9
:101B1000D7E90114054608462146FEF7B7FB2946DA
:101B2000FEF7BAFB2146FEF75FFB01B0BDE8F0838C
:101B300070B540F20404C2F20004A06841F2D8512A
:101B4000C2F20001086041F2D450C2F2000000214C
:101B5000017041F2D050C2F2000041F2C246016071
:101B6000C2F2000640F228003170C2F20000FF21EC
:101B7000017040F22900C2F20000017040F238000A
:101B8000C2F200000068227841F23C4141F29825FF
:101B9000C2F20001022AC2F20005086005D195F8E0
:101BA0005C0000281CBFE86A6061FFF705FF217830
:101BB000A061022910D0012907D0002918BF70BDEB
:101BC000012185F83C10286470BD226A022185F845
:101BD0003C10C5E9120270BD032085F83C0095F861
:101BE0005C00D4E90712C5E9121230B10120E96A9C
:101BF000307005F13C00FFF72DF8A069686470BDF6
:101C00002DE9F0470546044615F83C0F032818D087
:101C100002280ED0012840F08680206CFEF7F2FBEF
:101C200041F2C041C2F200010880BDE8F04700F077
:101C300087BA94F86000002875D0284600F0A4FB0D
:101C40005BE094F86100002851D0264656F82CAF8E
:101C5000B0695146FEF71AFB41F2C349C2F20009CE
:101C600099F80070804620F000402FB10021C3F6A3
:101C7000A071FEF781FB03E04FF07E51FEF7A6FB5B
:101C8000002804BF87F0010089F8000041F2C44039
:101C9000C2F20000027899F800105AB151B901223D
:101CA000636B89F800200022C4E9153AC4F8F420D7
:101CB000C4E93F22017049B104F1DC002946224603
:101CC000FFF7DCFDD4F8000154210CE02846314632
:101CD000FEF70EFF606CE16A04F1E80282E803019E
:101CE00000204FF480716050002084F8610094F867
:101CF0006000002808BFBDE8F08704F1A00004F1EF
:101D0000540104F1340200F0C3FBD4F8C400FEF720
:101D100079FB41F2C041C2F20001088000F010FAE4
:101D2000002084F86000BDE8F087000080B541F233
:101D3000C040C2F2000000210180002000F000FA43
:101D40004FF090404021BDE88040FFF7DDBB000030
:101D50004FF090404021FFF7D9BB000041F2C04056
:101D6000C2F20000B0F9000070470000B0B541F2C7
:101D7000C040C2F200000021018000F059F94FF08C
:101D800090404021FFF7C2FB41F29825C2F20005C6
:101D900005F1A0040021C4F2201120464FF07C522E
:101DA000002300F031F94CF200020021C4F25A5233
:101DB000C4F234412046134600F036F905F1DC0444
:101DC00000214CF6CD43C4F2A001C3F64C5320468B
:101DD000002200F019F90023C4F2702320460021EC
:101DE0000022BDE8B04000F01FB90000B0B541F2DC
:101DF0009824C2F2000400204FF4FA7584F85C00C5
:101E0000FFF710FB30B90120FFF7DAF9013D08BFF9
:101E1000B0BDF5E740F24005C2F200052846214674
:101E200000F02EFB2846214600F0B2FBE06A616B11
:101E300041F2C3430022C2F200030125C4E91102AA
:101E40001D70C4E91510C4F8FC20C4E93C22C4F894
:101E5000C020C4F8B82084F85C50B0BD2DE9F04132
:101E600040F20405C2F200052C6940F23800C2F2CB
:101E70000000066820460021FEF7A8FA002808BFE7
:101E80004FF07E542046FEF7D6FA41F23C41C2F2B2
:101E900000010A68B21A824201D2BDE8F08140F224
:101EA0002807C2F2000728783A780E6041F2982499
:101EB00041F2C24840F229069042C2F20004C2F246
:101EC0000008C2F2000603D169783278914228D026
:101ED000A96841F2D852C2F20002116041F2D45115
:101EE000C2F20001002294F85C300A7041F2D05135
:101EF000C2F200010A6088F8002073B1022807D0FE
:101F000001280AD1616B04F13C0000F0B7FA04E04B
:101F1000E16A04F13C00FEF79DFE2878697838708C
:101F20003170FFF749FD2978A861022913D00129F2
:101F300009D0002918BFBDE8F081012184F83C10C8
:101F40002064BDE8F0812A6A022184F83C10C4E9CB
:101F50001202BDE8F081032084F83C0098F80000EC
:101F6000D5E90712C4E9121250B994F85C0038B1EF
:101F70000120E16A88F8000004F13C00FEF76AFEE7
:101F8000A8696064BDE8F0814EF60C5CCEF2000CEE
:101F9000DCF8003003F4E063A3F54073B3F5A06F01
:101FA00001D21B0A06E040F20053C0F2FA53CCF80B
:101FB0000030022301FA03FCC3F104030F21D940CE
:101FC00011404EF2001241EA0C01CEF2000209016A
:101FD00040EA020383F8001300F01F01012303FA13
:101FE00001F11C2303EAD000815070474FF6807244
:101FF000C1F6FF72114008434EF60851CEF20001BF
:102000000860BFF34F8F70474FF0000CC0E908CC59
:10201000C0E90CCCC0F838C080E80E10C0E904CC90
:10202000C0F818C07047000030300EC07047000084
:10203000F0B589B040F2115000F076F940F212503C
:1020400000F072F940F2017000F06EF94FF090402C
:10205000012180220126FFF71FFA40F20044C4F25A
:10206000000404F10065284601210222FFF714FA5A
:102070004FF090400221002280230027FFF77EFAD4
:102080002846022100220223FFF778FA4FF0904001
:10209000002103228023FFF79BFA28460021032218
:1020A0000223FFF795FA204601F08CF905AD28468A
:1020B00001F076FA40F60F60079020462946CDE9F8
:1020C00005778DF8207001F0E5F901AD284601F0A3
:1020D00073F9204601212A46CDE901670397ADF83F
:1020E000107001F015F8204603212A4601F010F87F
:1020F00020460121602201F01FF9204603216022C1
:1021000001F01AF920460121002201F039F9204698
:102110000321002201F034F920460121002201F0C0
:1021200027F920460321002201F022F92046202130
:1021300001F02EFA204601F0A7F909B0F0BD000029
:10214000B0B54FF2F115CFF6FF75A84240F60F611A
:10215000C8BF05468D4240F20044A8BF0D46012885
:10216000C4F2000406DB20460121012201F000F93F
:10217000ADB20EE0B0F1FF3F04DD204601210022A8
:10218000002504E0684282B220460121012501F0C9
:10219000EFF8204603212A46BDE8B04001F0E8B838
:1021A00041F20401C4F202010A68042822F4404208
:1021B0000A60CA6A22F48072CA6288BF7047DFE888
:1021C00000F003140C100800C86A20F48070C86284
:1021D0007047086840F4404008E0086840F48040D8
:1021E00004E0086840F4004000E008680860C86A3D
:1021F00040F48070C862704770B541F20402C4F2C6
:1022000002020146106841F2002CC0F27A0C00F084
:102210000C000828634619D11068136816681B0162
:102220004FF01103C0F3834058BF0223F603184454
:1022300005D440F60013C0F23D03434306E0936A21
:1022400003F00F030133BCFBF3F34343106832A6E2
:10225000C0F30310305C166843F66E15C6F3022611
:10226000C0F6000515F806E01668062919D823FA05
:1022700000F4C6F3C220285C24FA00F0DFE801F085
:1022800004130E3706151D00184670BDD16AC90526
:102290002ED449F68070C0F2D50070BD24FA0EF03D
:1022A00070BD002070BD204670BDD06A40064FF45E
:1022B000004058BF48F2120070BDD16A890708BFBC
:1022C00070BDD06A00F00300012818460FD0D06A14
:1022D00000F00300022804BF4FF4004070BDD06A34
:1022E00000F00300032818BF4FF0000C604670BDDB
:1022F0001168C1F38131DFE801F0020D040B4008E1
:1023000070BD4AF6AB21C2F6AA21A0FB011070BD38
:10231000C00870BD800870BD000000000000000013
:10232000010203040607080941F2000300F01F013F
:102330008009C4F202034FF0010CC2580CFA01F1FB
:102340001143C1507047000041F2000300F01F012B
:102350008009C4F202034FF0010CC2580CFA01F1DB
:1023600022EA0101C150704741F2000300F01F0151
:102370008009C4F202034FF0010CC2580CFA01F1BB
:102380001143C150704700002DE9F041D0E90357D7
:102390000446866938460021FDF7EEFF40BB304613
:1023A0000021FDF7E9FF20B928460021FDF7F2FFE3
:1023B00048B930460021FDF7FBFFC8BB2846002185
:1023C000FDF7DAFFA0BB30460021FDF7D5FF90B93D
:1023D00041F26F21CBF683213846FDF75DFF0146C0
:1023E0003046FDF701FF00210546FDF7E1FFD8B1BA
:1023F000A561BDE8F08130460021FDF7D9FF002836
:102400001CBFA661BDE8F08141F26F21C3F68321B4
:102410003846FDF741FF3146FDF7E6FE002105464F
:10242000FDF7AAFF0028E3D10025A561BDE8F081F2
:1024300028463146FDF72AFF41F26F218046C3F658
:1024400083213846FDF728FF074640463946FDF709
:1024500093FF20B930463946FDF7C6FE0AE087F003
:1024600000414046FDF7A4FF0028C1D1304639465F
:10247000FDF70CFF0546A561BDE8F081816170475D
:10248000002202600B6A4360C96A02738160704770
:102490002DE9F047076B04460D6838460021904649
:1024A000FDF76AFF88B92846394687F00046FDF7F0
:1024B0008DFF814628463146FDF76CFF002818BF86
:1024C0003546B9F1000F18BF3D46E560D8F8001059
:1024D00028462161FDF7DAFE824660616068276A5E
:1024E000666B5146FDF7D8FE3946FDF77DFE07467F
:1024F000206230460021FDF73FFF90B93846314653
:1025000086F00048FDF762FF814638464146FDF7F8
:1025100041FF002818BF4746B9F1000F18BF3746E2
:102520002762A1692668A768256A5046FDF7AEFEB6
:1025300001463846FDF7B0FE074630465146FDF7E6
:10254000ABFE2946FDF750FE01463846FDF74CFE2E
:10255000A76B0646606238460021FDF70DFF90B973
:102560003046394687F00045FDF730FF804630465B
:102570002946FDF70FFF002818BF2E46B8F1000FBF
:1025800018BF3E466662C4F818A0BDE8F087000098
:10259000F0B581B00E6A0C46416805463046FDF73D
:1025A00075FE0021C4F234310746FDF70FFF10B16C
:1025B0004FF0FF3007E00021CCF234313846FDF710
:1025C000F7FE18B9012029680844286028686E6061
:1025D000FDF70AFF0021C4F2B431FDF75DFE31467C
:1025E000FDF702FE297BE062B1B3A9680646FDF75C
:1025F0004DFE0021C4F2C821AE60FDF74DFE49F644
:102600009A11656BC3F69961FDF746FE43F23331CB
:102610000646C3F633712846FDF73EFE3146FDF708
:10262000E3FD40F6DB71C4F2490105466063FDF746
:1026300033FE0021C4F23431FDF760FE0021A063B7
:10264000C4F2B4312846FDF759FE4FF08B41FDF737
:1026500023FE206301B0F0BDA8600120287301B003
:10266000F0BD000041F2B030C2F2000000787047C7
:1026700041F23840C2F200000078704741F2404019
:10268000C2F200004079704710B541F24044C2F2F6
:10269000000420468021FDF79CFD012144F20F62D9
:1026A000CFF60071C2F68C0240F60320C4E9021294
:1026B0004FF47A71C0F60010218240F2055120607B
:1026C00040F20310A4F815100A2141F23842A0800C
:1026D000002084F8251040F20511C2F20002C0F279
:1026E0005001107041F2B032C4F827100821C2F234
:1026F000000284F82B104FF07A71107040F22A0219
:10270000C4F82E100121C2F2000284F837101170B3
:1027100041F23441C2F20001086041F298210022E6
:10272000C2F20001C4F2A002A071E0754CF6CC43E5
:10273000C1E937200020C3F64C53C4F220104FF0FB
:102740007C52C1F8E430C1E92802BDE8104000F035
:1027500047B8000040F2380041F23441C2F20000B4
:10276000C2F2000100680A68821A322A2CBF08608F
:10277000704700F035B8000041F2384CC2F2000C4E
:10278000002300298CF8003018BF002A01D1184618
:1027900070471318802B04D901208CF8000000200A
:1027A0007047002A04BF10467047B0B541F2404C54
:1027B000C2F1000E4FF0FF33C2F2000C5C1C251872
:1027C000EDB21CF805500B445D700EEB04030133B1
:1027D0002346F3D11346BDE8B040184670470000C9
:1027E0002DE9F04381B041F29828C2F20008D8F8F0
:1027F0002C0042F60E51C3F6B251FDF77FFD4FF6A5
:102800000064C4F2FF6421460546FDF7DFFD48B9C8
:1028100028464FF04741FDF7CBFD2C46002808BF66
:102820004FF04744D8F8440042F60E51D8F83470BF
:10283000C3F6B251FDF762FD4FF60065C4F2FF65C5
:1028400029460646FDF7C2FD48B930464FF04741DC
:10285000FDF7AEFD3546002808BF4FF0474542F66C
:102860000E5127F00040C3F6B251FDF747FD4FF679
:102870000061C4F2FF610646FDF7A8FD00281CBFF9
:102880004FF60066C4F2FF663046FDF7BBFD064614
:102890002046FDF7B7FD07462846FDF7B3FD044681
:1028A000FFF75CFA00B20146002848BF41424FF4EE
:1028B0007A7251434BF23F42C0F24622A1FB021210
:1028C000510940F2FF33994241F2404538BF530964
:1028D0000028C2F200054FEA172048BF43F4806386
:1028E00085F83900300A85F83B00200A85F8440055
:1028F000180A85F8387085F83D00D8E902704CF662
:10290000CD4185F83A60D8F82C90D8F84460C3F6E9
:10291000CC5185F8434085F83C30FDF7EFFCFDF7DE
:1029200071FD0021044685F83E00C4F27A41384624
:10293000FDF7B2FC002120F00040C4F2D001FDF709
:10294000DDFCFDF75FFDC7B2A5F8450030464946FE
:10295000FDF79CFC20F000404FF07E51FDF736FD66
:10296000002818BF0120E97B95F8302085F8420047
:10297000687B95F83F300026A14288BF0126BA4205
:1029800038BF0236834240F22A00C2F200000078CB
:1029900088BF0436002808BF083685F8416001B0BA
:1029A000BDE8F08340F22A01C2F20001002818BFFE
:1029B00001200870704700002DE9F04F81B041F20E
:1029C0003843C2F20003002700291F7018BF002AF5
:1029D00003D1F8B201B0BDE8F08F02EB0008B8F106
:1029E000800F02D901201870F3E741F2404BC2F288
:1029F000000BD2B1002306E0CE5C01370BF8056076
:102A000001339A4211D01C18E5B2052DF8D3A4F178
:102A10003806F6B21F2EF3D3661FF6B2222EEBD87D
:102A20009BF83760002EEBD1E6E73906D1D0282895
:102A3000824611D8B8F1290F0ED39BF8280010B1A7
:102A4000FFF786F901E0FFF771F941F2B030C2F209
:102A5000000001210170504641F298292F28C2F24E
:102A6000000929D8B8F12F0F26D3BBF92E00022177
:102A70004C4604F83C1FFDF7B7FC42F60E51C3F676
:102A8000B251FDF709FC9BF82910E0600846FDF7FC
:102A9000B4FC43F23331C4F20B11FDF7FDFB54F8E3
:102AA000081C20612046FFF7E9FC41F2B031504696
:102AB000C2F2000101220A702B2848D8B8F12B0F6E
:102AC00045D3BBF92A0003214C4604F83C1FFDF70F
:102AD0008BFC42F60E55C3F6B2552946FDF7DCFBDA
:102AE000BBF92E10A0600846FDF77EFC2946FDF7D5
:102AF000D3FB20F0004528464FF07E51FDF74AFCFD
:102B000000281CBF0025C4F234359BF82900E5607D
:102B1000FDF773FC43F23331C4F20B11FDF7BCFB3C
:102B200000210546FDF752FC0022C4F27A4200283B
:102B300018BF2A4654F8101C20462261FEF78AF876
:102B400041F2B0315046C2F2000101220A702D2834
:102B500033D8B8F12D0F30D3BBF82C1069B308B2BD
:102B6000FDF742FC4CF6CD41C3F6CC51FDF794FB8A
:102B70000025C4F2C82529460446FDF727FC58B9AC
:102B80000021CCF2C8212046FDF712FC2546002882
:102B900004BF0025CCF2C82500210124C4F2201175
:102BA000284689F83C40FDF777FBC9F8400041F220
:102BB000B030C2F2000004705046172802D8B8F1B5
:102BC000150F0BD8252802D8B8F1250F06D82728CD
:102BD0003FF6FFAEB8F1280FFFF4FBAE9BF81500EF
:102BE0009BF816409BF817509BF82580FDF705FCD5
:102BF000C9F8DC002046FDF700FC4DF20A71C3F66F
:102C00002341FDF749FBC9F8E4002846FDF7F5FB31
:102C1000C9F8E0004046FDF7F0FB9BF82710C9F823
:102C2000A0000846FDF7E9FB4CF6CD41C3F6CC51B8
:102C3000FDF732FBC9F8A400CBE6000080B540F6F2
:102C40002611C2F200010020087040F62711C2F2DE
:102C50000001087040F62511C2F20001087040F230
:102C60005001C2F2000101220A70C1F8010040F6D1
:102C70002811C2F2000140F2D50C85396FF08402B0
:102C8000C2F2000C40F2CB7E0CEB0203853272459F
:102C900001F8850F83F88500F6D1BDE88040FFF785
:102CA000F3BC00002DE9F04FA7B00DF10F0000F0CC
:102CB00069FD50B10DF10F049DF80F0000F008F907
:102CC000204600F05FFD0028F6D140F6251BC2F239
:102CD000000B9BF80000002800F0F78004AD40F6E0
:102CE000271740F2D508E81DC2F20007C2F200081B
:102CF0004FF085090DF1960602900CE0C0438DF867
:102D00009B003046062100F08DFC00BF9BF80000C0
:102D1000002800F0DA803878852200FB098100FB6A
:102D200009F42846FDF73CFA002008F8040038783A
:102D3000013000F00F0038709BF8000001388BF86C
:102D400000009DF814000028E0D09DF81200022831
:102D5000DCD39DF81140FFF791FC01469DF811006E
:102D60008C4218BFFE28D1D1B0F1FE049DF815A009
:102D700018BF0124FE2808BFFFF780FCBAF1010F3D
:102D800014D14FF6FF710224ADF896108DF898001B
:102D90008DF89940FFF76CFC8DF89A00002000BF79
:102DA000315D0134052C0844FAD1A7E7AAF10101ED
:102DB000B1FA81F14909BAF1030F44EA010450D094
:102DC000BAF1020FA2D19DF8121004299ED39DF8EA
:102DD0001720511E49B2002998D49DF8161082463A
:102DE000084641F2C841C2F200010192FFF7C4FC5B
:102DF000019988427FF48AAFFFF73AFCDDF804C0FE
:102E0000002C3FF483AF544641F2485A0CF10201C2
:102E10004FF6FF72C2F2000ABCF1000FAAF80020C0
:102E20008AF802408AF803108AF804000AD041F2B6
:102E3000C8410AF10500C2F200016246FDF7B0F98F
:102E4000DDF804C00CF10301080633D00AF10100DB
:102E5000CAB2002110F8013F013A1944FAD1C8431F
:102E600029E09DF812100329FFF450AFCA1E110685
:102E70003FF44CAF9DF81610824608460299D2B234
:102E8000FFF79AFDFFF7F4FB002C3FF43FAF4FF63E
:102E9000FF71ADF8961002218DF89A00002054467B
:102EA0008DF898A08DF89910725C013105291044B5
:102EB000FAD123E7FF200CF10501C9B20AF801009D
:102EC0000CF10600C1B250461DE727B0BDE8F08FF7
:102ED0002DE9F04381B040F25004C2F200042178A1
:102EE000013905294DD8DFE801F0033E2A350643B4
:102EF000FF284DD14FE0E178A6784A1CD3B2214497
:102F0000B342E270487143D3022E5BD3701E40B2CD
:102F1000002857D4C2B2A1184D79617841F2B13777
:102F2000C2F2000739707E7018B1B81C611DFDF740
:102F300037F9711CC8B2884246D0FF204DE00546E3
:102F4000FFF79CFBFE2D294618BF884225D16170F2
:102F500004202AE041B2A07000200129E07023DCA7
:102F6000012121706CE0FF2814BF012003201CE028
:102F7000A178F1B1E0780130C2B28A42E07007D3A3
:102F80005BE0012121700021FF28C4F8011002D06C
:102F900001B0BDE8F083022007E006202070002089
:102FA000608001B0BDE8F0830520207001B0BDE86D
:102FB000F08341B2012940DDA0700020E07001B033
:102FC000BDE8F08300200CE07A1E002112F8013FDA
:102FD00001381944FAD1C843C0B2401BB0FA80F09E
:102FE0004009207148B3072640F625152670C2F225
:102FF000000528780F2820D840F62619C2F20009CB
:1030000099F8001040F2D508C2F20008852201FBB1
:10301000028001FB02F740F25001C2F20001FDF70D
:10302000BFF808F8076099F80000013000F00F00C1
:1030300089F80000287801302870012020700020D5
:10304000C4F8010001B0BDE8F083000040F20000C8
:10305000C2F20000006844F6D351C1F26201A0FB45
:1030600001014FF0FF3000EB9110B0F1807F11D2E1
:103070004EF21001CEF2000148604EF62350CEF21F
:103080000000F0220270002207238A600B600270A9
:10309000704700BFFEE7000070B584B040F2380012
:1030A000C2F200000026066041F29820C2F2000041
:1030B000012180F863104FF4E160FFF735F942F227
:1030C0000004C4F20004204600F07CF96D46284656
:1030D00000F066FA4720CDE9000640F2E7300290A2
:1030E000204629468DF80C6000F0D4F920460121D5
:1030F00000F03EFA2046012100F036FA13200121AB
:103100000022FEF741FF204600F0BEF904B070BD7A
:10311000032900F20F81DFE801F002B8468D016A51
:1031200021F001010162816921F0030181611168CF
:10313000036A19430162016A21F002010162D18828
:10314000036A0B43A0F18041A1F596314FEAB1210A
:103150000729036200F2EE80012303FA01F111F066
:10316000E10F00F0E780016A21F00401016291881B
:10317000036A19430162016A21F0080101621189A1
:10318000036A1943016250F8041F21F48071016041
:103190005189036819430160016821F400710160DD
:1031A00092890368C3E0016A42F6044C21F48071FD
:1031B0000162C169C4F2010C21F00301C16111680F
:1031C000036A43EA01210162016A21F4007101628C
:1031D000D388016A41EA0321ACF1040398420162F9
:1031E00040F0A880016A21F4806101629188036A3D
:1031F00043EA01210162016A21F40061016211893F
:10320000036A43EA01210162DCF8000020F48050E7
:10321000CCF800005089DCF8001041EA0010CCF82E
:103220000000DCF8000020F40050CCF80000908989
:10323000030126E0016A42F6044C21F48051016248
:10324000C169C4F2010C21F44071C1611168036AC3
:1032500043EA01310162016A21F400510162D3881D
:10326000016A41EA0331ACF104039842016218BFDC
:103270007047DCF8000020F48040CCF80000508952
:103280008301DCF80020604651E0016A21F0100162
:103290000162816921F4407181611168036A43EA26
:1032A00001110162016A21F020010162D188036AE3
:1032B00043EA011144F20003C4F20103984201629F
:1032C0002AD042F60041C4F20101884232D1016A9B
:1032D00021F0400101629188036A43EA0111016211
:1032E000016A21F0800101621189036A43EA011138
:1032F000016242F60440C4F20100016821F48061D9
:1033000001605189036843EA81010160016821F489
:1033100000610160918908E044F20400C4F20100F8
:10332000016821F480610160518902688B0043EAE1
:103330000201016070470000032988BF7047DFE881
:1033400001F0020D050A50F8181F01E050F81C1F8B
:1033500021F0700107E050F81C1F01E050F8181F21
:1033600021F4E041120201600168114301607047DD
:10337000032988BF7047890089B2084442637047B7
:10338000032988BF7047DFE801F0020D050A50F8F5
:10339000181F01E050F81C1F21F0080107E050F849
:1033A0001C1F01E050F8181F21F400611202016097
:1033B000016811430160704700218181C0E900115B
:1033C0008160704710B542F6FF31C4F201018842B6
:1033D00011DC40F6FF71C4F20001884220DCB0F13C
:1033E000804F3CD040F20041C4F20001884249D1F4
:1033F00040F201443EE044F2FF31C4F20101884250
:103400001DDC42F60041C4F2010188422AD044F298
:103410000001C4F20101884234D14FF4447429E020
:1034200041F20001C4F2000188421ED042F20001C4
:10343000C4F20001884225D14FF481641AE044F2BD
:103440000041C4F20101884212D044F60001C4F2E6
:103450000101884218BF10BD40F212340AE04FF457
:10346000806407E040F20B3404E040F2044401E0E1
:1034700040F211342046FEF777FF2046BDE81040A9
:10348000FEF762BF10BD0000016841F0010101605C
:10349000704700000A8842F6004CB0F1804FC4F239
:1034A000010C826218BF60452ED1036823F07003BF
:1034B00003604B8802681A4302608A8803681A43D3
:1034C000026042F6FF338A68C4F201039842C26286
:1034D0000ADD44F2FF32C4F2010290421BDC604577
:1034E00025D044F200021EE0B0F1804F1FD040F220
:1034F0000042C4F20002904219D042F20002C4F22B
:103500000002904213D02AE040F20043C4F20003CC
:103510009842CAD0D5E744F60002C4F201029042B4
:1035200005D044F20042C4F20102904217D1026871
:1035300022F440720260CA8803681343A0F18042FB
:10354000A2F596324FEAB222072A036007D8012378
:1035500003FA02F212F0E10F1CBF097B016341691B
:1035600041F0010141617047C2681143C160704779
:10357000C943016170470000C26800690A40084001
:1035800018BF0120002A18BF012210407047000018
:10359000426822F070024260426811434160704705
:1035A00000214FF6FF72C0E900118260017370477D
:1035B00080B541F29010C2F200000021A0F8001185
:1035C000A0F8021141F28810C2F20000016041F23D
:1035D0008C10C2F20000016041F29420C2F200009F
:1035E000016041F28410C2F20000016041F2DE503D
:1035F000C2F200000170FDF737FB00F089F8FFF719
:103600001DFB44F20040C4F20000052100F04EF919
:103610001C2002210022BDE88040FEF7B5BC00005E
:10362000FFF740BB2DE9F04141F2DE5544F2004482
:10363000C2F200050122C4F200042A70E26941F2DC
:103640008018C2F20008C8F80020226841F27C17F6
:10365000C2F200073A602A7841F27816C2F20006F8
:103660003260FDF781FB4FF4E15000BF013800BF2D
:10367000FCD100F00BF800202870E069C8F80000C9
:103680002068386028783060BDE8F08110B544F2D9
:103690000044C4F20004204640F2037100F0F4F844
:1036A00038B1204600F0B4F8204640F2037100F033
:1036B000E1F8204640F2017100F0E6F838B120460A
:1036C00000F0A6F8204640F2017100F0D3F8204641
:1036D00040F2027100F0D8F838B1204600F098F8B6
:1036E000204640F2027100F0C5F820464FF4E06138
:1036F00000F0CAF8002808BF10BD204600F088F886
:1037000020464FF4E061BDE8104000F0B3B800007F
:1037100010B544F20044C4F20004FFF7B7FF00BF45
:10372000204640F2057100F0AFF818B1204600F0D5
:103730006FF8F5E72046042100F0E2F82046082162
:1037400000F0F2F82046052100F0B0F81C2002211C
:103750000022FEF719FCE06941F28011C2F200017B
:103760000860206841F27C11C2F20001086041F259
:10377000DE50C2F20000007841F27811C2F200017E
:10378000086010BD41F29011C2F20001B1F80021B1
:10379000B1F802319A4204BF00207047B1F802210B
:1037A0008A5C0270B1F802010130C0B2A1F80201D6
:1037B00001207047B0B5044643F60000C4F2010092
:1037C00084420D4607D044F20040C4F20000844217
:1037D00005D1022000E00620FEF70EFD00E00020EB
:1037E0002168090406D400EB5500B0FBF5F080B267
:1037F000E060B0BD400000EB5500B0FBF5F04FF6C7
:10380000F0710140C0F342000844E060B0BD000028
:10381000406A6FF35F2070476FF35F2181627047EA
:1038200010B543F60001C4F20101884209D044F208
:103830000041C4F20001884218BF10BD40F211449B
:1038400001E040F20E342046FEF78EFD2046BDE832
:103850001040FEF779BD0000826822F0800282608D
:103860008268114381607047016841F00101016085
:103870007047000001F01F010122036A02FA01F102
:1038800019430162704700008A09105801F01F01B6
:10389000C84000F001007047016821F0010101609B
:1038A000816841F0080181607047000001F01F024B
:1038B00089094FF0010C0B580CFA02F21A430A5016
:1038C00070470000C1F3891252F800C08A0D1058E9
:1038D00001F01F03C1F30441C8402CFA03F1084072
:1038E00000F0010070470000026822F0010202604F
:1038F000026822F4C06202600268114301607047EE
:10390000026822F0040202600268114301607047FD
:10391000026822F001020260426822F440524260D2
:103920004268114341607047026822F00802026059
:103930000268114301607047026822F001020260D0
:10394000026822F4805202600268114301607047ED
:1039500002E008C8121F08C1002AFAD17047704758
:10396000002001E001C1121F002AFBD170470000B6
:103970000000010203040000983900080000002044
:103980003000000050390008C8390008300000201D
:10399000B01900006039000800A24A0402000000CB
:1039A0000000B4420000B4C20000004000004842E1
:1039B00000000000000000000000C8420000FA44BF
:0839C000FFFF01000000000000
:040000050800016985
:00000001FF
